:020000040800F2
:10000000FFFF0420290300080D0300081F03000858
:100010000D0300080D0300080D0300080000000098
:100020000000000000000000000000000D030008B8
:100030000D030008000000000D030008412F000818
:100040000D0300080D0300080D0300080D03000850
:100050000D0300080D0300080D0300080D03000840
:100060000D0300080D0300080D0300080D03000830
:100070000D0300080D0300080D0300080D03000820
:100080000D0300080D0300080D0300080D03000810
:100090000D0300080D0300080D0300080D03000800
:1000A0000D0300080D0300080D0300080D030008F0
:1000B0009D3000080D0300080D0300080D03000823
:1000C0000D0300080D0300080D0300080D030008D0
:1000D0000D0300080D0300080D0300080D030008C0
:1000E0000D0300080D0300080D0300080D030008B0
:1000F0000D0300080D0300080D0300080D030008A0
:100100000D0300080D0300080D0300080D0300088F
:100110000D0300080D0300080D0300080D0300087F
:100120000D030008713600080D0300080D030008D8
:100130000D0300080D0300080D0300080D0300085F
:100140000D0300080D0300080D0300080D0300084F
:100150000D0300080D0300080D0300080D0300083F
:100160000D0300080D0300080D0300080D0300082F
:100170000D0300080D0300087D3600080000000094
:100180000D0300080D0300080D0300080D0300080F
:100190000D0300080D0300080D0300080D030008FF
:1001A0000D0300080D0300080D0300080D030008EF
:1001B0000D0300080D0300080D0300080D030008DF
:0801C0000D0300080D03000807
:1001C800044B05481B1A062B02D9044B03B11847E8
:1001D800704700BF330400203004002000000000F6
:1001E80005490648091A891001EBD171491002D056
:1001F800034B03B118477047300400203004002037
:100208000000000010B5064C237843B9FFF7D8FF6B
:10021800044B13B10448AFF300800123237010BDD1
:100228003004002000000000D05B000808B5084B2F
:100238001BB108480849AFF300800848036813B9A0
:10024800BDE80840CCE7064B002BF9D09847F7E704
:1002580000000000D05B00083404002030040020B7
:10026800000000004FEA4102B2F1E04324BFB3F5B9
:10027800001CDCF1FE5C0DD901F0004C4FEAC00215
:100288004CEA5070B2F1004F40EB830008BF20F0F9
:100298000100704711F0804F21D113F13872BCBFB3
:1002A80001F00040704741F480114FEA5252C2F108
:1002B8001802C2F1200C10FA0CF320FA02F018BF51
:1002C80040F001004FEAC1234FEAD32303FA0CFCA4
:1002D80040EA0C0023FA02F34FEA4303CCE77FEA33
:1002E800625307D150EA01331EBF4FF0FE4040F47D
:1002F8004000704701F0004040F0FE4040F400002C
:10030800704700BF684620F007018D4601B5BDE87B
:10031800014085467047684620F007018D46FEE794
:1003280019491A4B5B1A9B0800229A4206D01848B2
:1003380050F8220041F822000132F6E7154B164A20
:10034800934203D0002243F8042BF8E7134A144CD5
:10035800D2F8883043F47003C2F88830D2F83432C7
:1003680023F04043C2F834320E4BE41AA41000259F
:100378001E46A54204D056F8253098470135F8E7BF
:1003880000F012F804F0F2BD000000203004002054
:10039800C85E000830040020540B002000ED00E087
:1003A800C45E00089C5E00080F49D1F8883043F409
:1003B8007003C1F888300D4B1A68002042F0010222
:1003C8001A6098601A6822F0847222F480321A60E7
:1003D800074A5A601A6822F480221A60D8604FF0DF
:1003E80000638B60704700BF00ED00E000380240FA
:1003F8001030002430B5184C184D636A23F480334C
:1004080063626B6885B023F001036B60144B019342
:1004180011238DF80830032301228DF80B3068462C
:1004280000238DF80F308DF80D308DF801308DF8E0
:100438000A308DF809308DF80C308DF800208DF8D1
:100448000E2000F059FF05236B60636A43F4803384
:10045800636205B030BD00BF00ED00E090ED00E044
:100468000000012030B5BFF34F8FBFF36F8F304BC3
:100478000022C3F85022BFF34F8FBFF36F8F596923
:1004880041F480215961BFF34F8FBFF34F8FBFF302
:100498006F8FC3F85022596941F400315961BFF395
:1004A8004F8FBFF36F8FC3F88420BFF34F8FD3F8FC
:1004B8008020C2F34E33C2F3C902590143F6E074F7
:1004C8000C4011461A4844EA817511F1FF31C0F811
:1004D8006052F7D213F1FF33EFD2BFF34F8FBFF360
:1004E8006F8F0023C0F88430BFF34F8FD0F880207F
:1004F800C2F34E33C2F3C902590143F6E0740C400B
:1005080011460B4844EA817511F1FF31C0F8605279
:10051800F7D213F1FF33EFD2BFF34F8F436943F4A0
:1005280080334361BFF34F8FBFF36F8F30BD00BF80
:1005380000ED00E010B592B0012306934FF480332C
:1005480007934FF480030D9319230E934FF4D87338
:1005580002240F9306A809230C941094119300F019
:10056800F1FE00B1FEE701F035FA00B1FEE70F2316
:1005780001934FF4A0530390049301A84FF48053C0
:1005880007210294059301F0B5F800B1FEE712B017
:1005980010BD08B5FFF72EFFFFF764FF00F016F84F
:1005A800BDE80840FFF7C6BF10B5044601F0CCF916
:1005B8004FF47A73B0FBF3F000F088FE4FF0FF3091
:1005C8002146002200F046FE002010BD074A08B56B
:1005D800136843F400731360032000F029FE0F2012
:1005E800FFF7E2FF01F016FD002008BD003C0240C5
:1005F800014B1868704700BF4C040020704738B59D
:100608000D460446C8B190F82C3003F0FF021BB920
:1006180080F82D20FFF7F2FF022384F82C30211DEB
:10062800206801F011FA20686268294601F04FFA43
:10063800012384F82C30002038BD012038BD38B59E
:10064800044690F82C00C0B202280D460DD00223B3
:1006580084F82C30206801F085FA2B68022B0CBF37
:100668000523012384F82C30002038BD10B504463A
:1006780090F82C00C0B2022809D0022384F82C304C
:10068800206801F095FA012384F82C30002010BD71
:1006980003682DE9F34713F0010604460BD0464AD8
:1006A800916821F400019160466B91683143916033
:1006B800B6FA86F6760913F4002510D03E49E56BA4
:1006C800D1F88C2022F440122A43B5F5801FC1F8D6
:1006D8008C2015BFB5FA85F500256D090126D902CC
:1006E80010D53548216CD0F88C2022F440020A43FA
:1006F800B1F5800FC0F88C2003D0002908BF012570
:1007080000E0012613F0807F18BF01269A0660D505
:1007180000230193284B1A6C42F080521A641B6C18
:10072800264A03F080530193019B136843F48073B6
:100738001360FFF75DFF0746204B1B68DB0506D4F7
:10074800FFF756FFC01B6428F6D9032044E31A4B71
:10075800226B196F4A4012F4407F3AD0196F1A6F12
:1007680042F480321A671A6F21F4407022F4803202
:100778008F071A6718670FD4226B02F44073B3F51A
:10078800407F0D4B1CD1996822F0704020F44070D6
:1007980021F4F811014316E0FFF72AFF0746064B3C
:1007A8001B6F9807E8D4FFF723FF41F28833C01B7B
:1007B8009842F4D9C9E700BF0038024000700040F1
:1007C800996821F4F8119960196FC2F30B020A4372
:1007D8001A672368D9060CD5774AD2F88C1021F00D
:1007E8008071C2F88C10D2F88C00A16B0143C2F85A
:1007F8008C105A0441BF7048D0F8902022F4403140
:10080800626E44BF0A43C0F890201F0441BF6A4883
:10081800D0F8902022F44021A26E44BF0A43C0F8C9
:100828009020D80341BF6448D0F8902022F44011AA
:10083800E26E44BF0A43C0F89020990341BF5E4866
:10084800D0F8902022F44001226F44BF0A43C0F838
:1008580090205A0641BF5848D0F8902022F0030152
:10086800626C44BF0A43C0F890201F0641BF52483B
:10087800D0F8902022F00C01A26C44BF0A43C0F8C3
:100888009020D80541BF4C48D0F8902022F0300184
:10089800E26C44BF0A43C0F89020990541BF46481E
:1008A800D0F8902022F0C001226D44BF0A43C0F85E
:1008B80090205A0541BF4048D0F8902022F440715A
:1008C800626D44BF0A43C0F890201F0541BF3A48F3
:1008D800D0F8902022F44061A26D44BF0A43C0F8CA
:1008E8009020D80441BF3448D0F8902022F44051D9
:1008F800E26D44BF0A43C0F89020990441BF2E48D6
:10090800D0F8902022F44041226E44BF0A43C0F838
:1009180090205A0241BF2848D0F8902022F08061E8
:10092800A26F44BF0A43C0F890209F020CD522480A
:10093800E16FD0F8902022F000620A43B1F1006F15
:10094800C0F8902008BF012513F0080F18BF012533
:10095800580341BF1848D0F8902022F04071626FC8
:1009680044BF0A43C0F89020190241BF1248D0F88A
:10097800902022F08051D4F8802044BF0A43C0F868
:100988009020012E06D0B3F1007F03D0012D40F056
:1009980085811EE1084A136823F080631360FFF71E
:1009A80027FE0746044E33681A0107D5FFF720FED5
:1009B800C01B6428F6D9C8E6003802402068C3077F
:1009C8003CD5636BD3BBD6F884204FF4403C9CFAEB
:1009D800ACF84FF07061B8FA88F8D6F8843091FA1C
:1009E800A1FE47F6C079BEFA8EFE99FAA9F9B9FABE
:1009F80089F99CFAACFCBCFA8CFC91FAA1F14FF095
:100A0800E04AB1FA81F19AFAAAFAA768BAFA8AFA18
:100A180007FA0AFA676802F4403207FA09F922FA73
:100A280008F203F070634AEA090702FA0CF223FAA3
:100A38000EF33A438B401343C6F88430070303D5BB
:100A4800E36BB3F5801F05D0C60248D5236CB3F518
:100A5800800F44D1BB4E4FF4403CD6F884209CFA1A
:100A6800ACF84FF0E041B8FA88F8D6F8843091FA3B
:100A7800A1FE47F6C079BEFA8EFE99FAA9F9B9FA2D
:100A880089F99CFAACFC4FF0706ABCFA8CFC9AFAB3
:100A9800AAFABAFA8AFA91FAA1F1E768B1FA81F1E9
:100AA80007FA0AFA676802F4403207FA09F922FAE3
:100AB80008F203F0E0434AEA090702FA0CF223FAC3
:100AC8000EF33A438B401343C6F88430D6F88C3083
:100AD800626A23F01F03013A1343C6F88C30C10140
:100AE8003BD5984E4FF0706CD6F884209CFAACF841
:100AF8004FF0E041B8FA88F8D6F8843091FAA1FEB0
:100B080047F6C079BEFA8EFE99FAA9F94FF4403A31
:100B1800B9FA89F99AFAAAFABAFA8AFA9CFAACFCEA
:100B2800BCFA8CFC91FAA1F12769B1FA81F107FAB4
:100B38000AFA676802F0706207FA09F922FA08F2FD
:100B480003F0E0434AEA090702FA0CF223FA0EF32B
:100B58003A438B401343C6F88430820126D547F6C2
:100B6800C07696FAA6F64FF44037B6FA86F697FAA4
:100B7800A7F74FF07060B7FA87F790FAA0F04FF038
:100B8800E041B0FA80F091FAA1F12269B1FA81F15D
:100B980002FA07F36268B2401A43E36883401A43D3
:100BA800A3688B401343674AC2F88430654A1368C8
:100BB80043F080631360FFF71BFD0646614B1B681B
:100BC8001B013FF5E3AEFFF713FD801B6428F5D941
:100BD800BBE55C4A136823F080531360FFF708FDF8
:100BE8000546584B1B689F005AD421680E035DD4F4
:100BF800CD025ED4880200F1A7800A0741D5514D85
:100C08004FF07061D5F8883091FAA1F74FF4403071
:100C1800B7FA87F7D5F8882090FAA0FC47F6C07E87
:100C2800BCFA8CFC9EFAAEFEBEFA8EFE90FAA0F0DC
:100C3800B0FA80F091FAA1F14FF0E048B1FA81F1F1
:100C480098FAA8F8E669B8FA88F806FA08F866691A
:100C580002F4403206FA0EF622FA0CF203F0706340
:100C680048EA06068240FB4032438B401343C5F8EE
:100C78008830D5F88C3023F44032E36A1343C5F842
:100C88008C30304A136843F080531360FFF7B0FC90
:100C980004462C4B1B689B0040F1978000209BE08A
:100CA800FFF7A6FC401B64289BD94EE5E36B1BB1FC
:100CB8009EE7236C002B9DD1224D4FF4403ED5F882
:100CC80088209EFAAEF84FF0E040B8FA88F8D5F8D8
:100CD800883090FAA0F747F6C07CB7FA87F79CFAF5
:100CE800ACFCBCFA8CFC9EFAAEFE4FF07069BEFA02
:100CF8008EFE99FAA9F9B9FA89F990FAA0F0A669CD
:100D0800B0FA80F006FA09F9666902F4403206FA88
:100D18000CFC22FA08F203F0E04349EA0C0602FA56
:100D28000EF2FB40324383401343C5F88830D5F8B0
:100D38008C30A26A23F4F853013A43EA0223C5F837
:100D48008C3057E700380240E36FB3F1006F7FF44F
:100D580054AF234D4FF0706ED5F888209EFAAEF848
:100D68004FF0E040B8FA88F8D5F8883090FAA0F744
:100D780047F6C07CB7FA87F79CFAACFC4FF44039C9
:100D8800BCFA8CFC99FAA9F9B9FA89F99EFAAEFE6F
:100D9800BEFA8EFE90FAA0F0266AB0FA80F006FA43
:100DA80009F9666902F0706206FA0CFC22FA08F288
:100DB80003F0E04349EA0C0602FA0EF2FB40324324
:100DC80083401343C5F8883017E7FFF711FC001B71
:100DD80064287FF65EAFB8E402B0BDE8F08700BFD4
:100DE8000038024070472DE9F04104460E4690460F
:100DF8001D46FFF7FDFB0746B8F1000F36D1226804
:100E0800D3693340B3420ED0691CF9D07DB1FFF7E6
:100E1800EFFBC01BA842F2D309E06B1C06D1D369D3
:100E28003340B342F9D00020BDE8F081CDB9236842
:100E38001A6822F080021A601A6822F020021A60EA
:100E48001A6822F480721A609A6822F001029A6085
:100E5800012384F86930002384F868300320BDE852
:100E6800F081FFF7C5FBC01BA842E0D22268D6E795
:100E780038B504460568A2682169C3692868114322
:100E880062690A4342EA0301814A02400A432A602E
:100E98006A68206A22F44051E2680A436A60AA68D4
:100EA800A16922F4306201430A43AA60794A954253
:100EB80007D102F594327849D2F8902002F0030263
:100EC80009E0764A95420CD102F5FA327449D2F813
:100ED800902002F00C02B3F5004F8A5C40F0B1801C
:100EE80072E0704A95420DD102F5F832D2F890209E
:100EF80002F03002102A00F082805DD9202A78D0D2
:100F0800302A0EE0684A95420DD102F5F632D2F841
:100F1800902002F0C002402A71D04DD9802A68D0B2
:100F2800C02A76D080E0614A95420FD102F5F432AA
:100F3800D2F8902002F44072B2F5807F5FD03BD99E
:100F4800B2F5007F55D0B2F5407FEAE7584A95429E
:100F580012D102F59232D2F8902002F44062B2F532
:100F6800806F4CD002D8002A3DD05DE0B2F5006F0A
:100F78003FD0B2F5406FD4E74E4A95420FD102F503
:100F8800E032D2F8902002F44052B2F5805F36D0B9
:100F980012D9B2F5005F2CD0B2F5405FC1E7464ADE
:100FA800954241D102F5DE32D2F8902002F4404257
:100FB800B2F5804F23D001D87AB135E0B2F5004FB1
:100FC80017D0B2F5404FACE7082A30D8DFE802F076
:100FD800080E142F1A2F2F2F2400B3F5004F39D1E4
:100FE80000F0CCFC10E0B3F5004F36D100F0DCFC8B
:100FF8000AE0B3F5004F33D16068304B0FE0B3F52A
:10100800004F33D100F060FC40006368B0FBF3F39D
:1010180007E0B3F5004F31D160684FF48033B3FB7C
:10102800F0F39BB2002004E0B3F5004F2ED101206D
:10103800002323F00F012268C3F342030B43D3605C
:1010480038BD082A22D8DFE802F005080B21112153
:101058002121190000F092FC0AE000F0A5FC07E04D
:101068006268174BB3FBF2F39BB20CE000F02CFC68
:101078006368B0FBF3F080B2E86005E062684FF4A3
:101088000043B3FBF2F3EB60002038BD012038BD0C
:10109800F369FFEF00100140F55B000800440040D1
:1010A800E85B000800480040004C00400050004049
:1010B8000014014000780040007C00400048E8012E
:1010C8000024F400436ADA0710B541BF0468626877
:1010D80022F40031826A44BF0A4362609C0741BF20
:1010E8000468626822F48031C26A44BF0A436260BD
:1010F800590741BF0468626822F48021026B44BF2B
:101108000A4362601A0741BF0468626822F400411A
:10111800426B44BF0A436260DC0641BF0468A268B0
:1011280022F48051826B44BF0A43A260990641BFF2
:101138000468A26822F40051C26B44BF0A43A2604B
:101148005A0610D50168046C4A6822F480122243BA
:10115800B4F5801F4A6001BF4A6822F4C004426C9B
:10116800224308BF4A601B0641BF01684B6823F44D
:101178000022836C44BF13434B6010BD00220368F8
:1011880010B5C2661B681907044604D423681B6897
:101198005B0714D509E04FF400116FF07E43FFF7A9
:1011A80022FE0028F2D0032010BD20464FF4800113
:1011B80000226FF07E43FFF716FE0028F3D10123CB
:1011C800002084F8693084F8680010BD10B5044622
:1011D80060B390F8693003F0FF021BB980F868200B
:1011E800FFF700FE2268022384F86930136823F0B1
:1011F800010313602046FFF73BFE012816D0636AFF
:1012080013B12046FFF75EFF23685A6822F4904224
:101218005A609A6822F02A029A601A6842F001021B
:1012280020461A60BDE81040FFF7A8BF012010BD96
:10123800074AD36823F4E0631B041B0C43F0BF6325
:1012480043F4003300F0070043EA0023D3607047FB
:1012580000ED00E0154BDB68C3F3022370B5C3F162
:1012680007051C1D042D28BF0425062C8CBF033B35
:101278000023012404FA03F6AC40013C013E21405E
:1012880099403240002842EA01024FEA0212AFBFF9
:1012980000F1604000F00F00054BD2B2A5BF00F589
:1012A8006140D2B21A5480F8002370BD00ED00E00E
:1012B80014ED00E04109012300F01F00024A8340B9
:1012C80042F82130704700BF00E100E00138B0F17A
:1012D800807F3FBF064B074A5860F0213FBF82F826
:1012E800231000200722986034BF1A60012070473D
:1012F80010E000E000ED00E0114943788B600378CE
:10130800DBB14368CB60C37A027B1B0643EA0273F6
:1013180002781343827A43EAC243427B43EA824318
:10132800827B43EA4243C27B43EA0243427A43EA6E
:101338000223027A43EA420300E0CB600B61704764
:1013480090ED00E0036873B5DE07044603D4236814
:101358009D0770D4C2E0A44B9A6802F00C02042ADC
:1013680007D09A6802F00C02082A0BD15B68580271
:1013780008D59D4B1B689903E9D56368002BE6D116
:101388000120B3E1984B1A6822F480321A601A6877
:1013980022F480221A601A6822F480321A60FFF759
:1013A80027F90546904B1A68920307D5FFF720F9ED
:1013B800401BB0F5FA7FF5D9032097E11A6822F4AB
:1013C80080321A606268B2F5803F03D11A6822F44D
:1013D800802205E0B2F5A02F08D11A6842F48022D5
:1013E8001A601A6842F480321A6008E0196821F419
:1013F80080211960196821F4803119606AB1FFF7FA
:10140800F7F80546784B1B689E03A0D4FFF7F0F861
:10141800401BB0F5FA7FF5D9CEE7FFF7E9F80546A6
:10142800714B1B68980392D5FFF7E2F8401BB0F5A3
:10143800FA7FF5D9C0E76C4B9A6812F00C0F07D009
:101448009A6802F00C02082A16D15B68590213D474
:10145800654B1A68920702D5E268012A90D119688B
:10146800F82090FAA0F02269B0FA80F021F0F80193
:1014780082400A431A6031E0E2685B4BEAB11A68BD
:1014880042F001021A60FFF7B3F8054656480368B0
:101498009E0705D4FFF7ACF8401B6428F6D98BE704
:1014A8000268F82191FAA1F12369B1FA81F122F0D9
:1014B800F8028B401343036010E01A6822F001021F
:1014C8001A60FFF795F80546474B1B68990705D53D
:1014D800FFF78EF8401B6428F6D96DE723681A07D2
:1014E80003D423685B0767D524E062693E4B82B169
:1014F8005A6F42F001025A67FFF77AF805463A4BED
:101508005B6F9E07EDD4FFF773F8401B6428F6D98C
:1015180052E75A6F22F001025A67FFF769F8054649
:10152800314B5B6F9807DCD5FFF762F8401B6428E6
:10153800F6D941E7002301932B4B1A6C42F08052F5
:101548001A641B6C294A03F080530193019B1368AA
:1015580043F480731360FFF74BF80546234B1B6871
:10156800D9052DD5204B1A6F22F001021A671A6F80
:1015780022F004021A671A6F22F001021A67FFF7B5
:1015880037F80546184B1A6F92071FD41A6F22F0C6
:1015980001021A67A268012A20D11A6F22F00402F8
:1015A8001A671A6F42F001021A67FFF721F8054619
:1015B8000D4B1B6F9E0725D5A169002939D17AE00B
:1015C800FFF716F8401B6428C8D9F5E6FFF710F8AE
:1015D80041F28833401B9842D4D9EDE6052A07D159
:1015E8001A6F42F00402DBE7003802400070004046
:1015F800196F21F004011967196F21F001011967AA
:1016080042B1D2E7FEF7F4FF41F28833401B98421B
:10161800CED9D1E6FEF7ECFF0546354B1B6F980790
:10162800CAD5FEF7E5FF41F28833401B9842F4D94A
:10163800C2E62F4B9A6802F00C02082A3FF4A0AECB
:101648001A68022922F080721A6042D1FEF7D0FF90
:1016580005462748036899012FD447F6C07696FABD
:10166800A6F64FF44035B6FA86F695FAA5F54FF08A
:101678007061B5FA85F591FAA1F1E369226AB1FAC8
:1016880081F11A43636A42F00052B3401A43A36AD5
:101698005B08013BAB401343E26A8A401343436053
:1016A800036843F080730360FEF7A2FF0446104B03
:1016B8001B689A0107D5002018E0FEF799FF401B28
:1016C8006428C6D978E6FEF793FF001B6428EED994
:1016D80072E6FEF78DFF0446054B1B689B01EAD5B1
:1016E800FEF786FF001B6428F6D965E602B070BDD8
:1016F80000380240724A136803F00F03994270B52C
:1017080004460D466BD9136823F00F030B4313608F
:10171800136803F00F038B4201D0012070BD0168EC
:101728008B0741BF6748836823F0F002A36844BF72
:1017380013438360CE070BD421684D0740F1AF8077
:101748006048836823F4E052E36813438360A6E0AB
:1017580062685C4B012A196802D111F4003F06E067
:10176800022A02D111F0007F01E011F0020FD4D05B
:10177800996821F003010A439A60FEF739FF63680C
:10178800012B05460ED14F4B9B6803F00C03042B2D
:10179800D2D0FEF72DFF41F28833401B9842F2D990
:1017A800032070BD022B14D1464B9B6803F00C0339
:1017B800082BC1D0FEF71CFF41F28833401B98422A
:1017C800F2D9EDE7FEF714FF41F28833401B984247
:1017D800E6D83C4B9B6813F00C0FF3D1ACE70168DB
:1017E800880741BF3748836823F0F002A36844BFE5
:1017F80013438360CA070BD4314A136823F00F03DD
:101808002B431360136803F00F03AB4285D193E7B2
:1018180062682C4B012A196802D111F4003F06E0D6
:10182800022A02D111F0007F01E011F0020F3FF40B
:1018380074AF996821F003010A439A60FEF7D8FE55
:101848006368012B06460DD11E4B9B6803F00C0301
:10185800042BD1D0FEF7CCFE41F28833801B98428E
:10186800F2D99DE7022B14D1164B9B6803F00C03A9
:10187800082BC1D0FEF7BCFE41F28833801B98428A
:10188800F2D98DE7FEF7B4FE41F28833801B984207
:1018980086D80C4B9B6813F00C0FF3D1ACE70B0701
:1018A80041BF084A2169936823F4604344BF43EA6F
:1018B800C10393600F20FEF777FE002070BD00BFC4
:1018C800003C02400038024010B51C4CA36803F0ED
:1018D8000C03042B2ED0082B2ED1626802F03F0394
:1018E800626847F6C07112F4800F626891FAA1F13C
:1018F80047F6C07000EA020008BF114AB1FA81F148
:1019080020FA01F00EBFB2FBF3F20E49B1FBF3F27D
:1019180002FB00F3094A50684FF4403292FAA2F2EF
:1019280000F44030B2FA82F2D04001304000B3FBFC
:10193800F0F010BD034810BD014810BD003802404A
:101948000024F40040787D0108B5FFF7BDFF084B7F
:10195800F0229B6892FAA2F203F0F003B2FA82F244
:10196800D340044AD35CD840034B186008BD00BF7D
:1019780000380240F95B00080400002008B5FFF7B2
:10198800E3FF074B4FF4E0529B6892FAA2F203F48C
:10199800E053B2FA82F2D340024AD35CD84008BD81
:1019A80000380240F95B000808B5FFF7CDFF074B88
:1019B8004FF460429B6892FAA2F203F46043B2FAD1
:1019C80082F2D340024AD35CD84008BD00380240B6
:1019D800F95B000813B500230193194B1A6C42F008
:1019E80080521A641B6C174A03F080530193019BC1
:1019F800136843F480331360FEF7FAFD0446114B75
:101A08005A68D20307D4FEF7F3FD001BB0F57A7FBE
:101A1800F5D9032012E01A6842F400321A60FEF782
:101A2800E7FD0446074B5B689B0306D4FEF7E0FD21
:101A3800001BB0F57A7FF5D9EBE7002002B010BDA6
:101A480000380240007000400B680A6A012B2DE93B
:101A5800F0474B68D1F808E0CF680E694D698C698A
:101A6800D1F81CA0D1F82490016813D04EEA030ED7
:101A78004EEA07073E4335432C4321F4FF4844EA26
:101A88000A010A4328F07F0842EA090343EA0803E7
:101A9800036019E042EA0A024EEA030E21F4FF4C01
:101AA80042EA09094EEA070742682CF07F0C3E43D8
:101AB80049EA0C01354322F4FF4C2CF07F0C2C43EF
:101AC80044EA0C04016044600020BDE8F087012A64
:101AD8002DE9F043CA680E684D688C68D1F81090FB
:101AE8004B69D1F818C01AD08768013E07F07047D3
:101AF800013D3743013C47EA0516013A46EA042509
:101B080045EA023409F1FF32013B44EA024141EA65
:101B180003520CF1FF3342EA036383601FE0C1689C
:101B280006F1FF3E01F070486F1E4EEA0808661E77
:101B380048EA071E09F1FF354EEA062747EA054637
:101B48000CF1FF3546EA0565013B8668C560013A38
:101B58001B0506F0704643EA0232324382600020D9
:101B6800BDE8F08373B500230193044691E80900AA
:101B78000343C86843EA40208B68013B40EA4313AB
:101B88000193019B23611546FEF732FD0646A069C5
:101B980010F020000AD06B1CF9D00DB9032005E025
:101BA800FEF726FD801BA842F1D9F7E702B070BD09
:101BB800436943EA410141610020704710B504467A
:101BC800002851D090F835300BB900F024FA0223E0
:101BD80084F835302368254A196860680A401A6015
:101BE8001968626901431143E2681143226911438C
:101BF800A2681143A2691143226A1143626A114320
:101C0800A26A1143E26A1143226B102842EA0102D8
:101C18001A600BD1A27F617F120442EA0122217F60
:101C28000A43E17F42EA016211498A61DA6842F0B7
:101C38001002DA60DA6842F00802DA60DA6842F024
:101C48000102DA60DA6842F00402DA60DA6842F027
:101C58000202DA601A6842F480421A600020012306
:101C6800E06484F8353010BD012010BD07F0E0FFB6
:101C7800000005502DE9F04307684C68FD68D1F86D
:101C8800189007F1840ED2010EEB0203C5F30B4541
:101C9800586800F470405860FE68086805EB040C4A
:101CA800C6F30B46451C354445EA0C455D60FD68A6
:101CB800CE68C5F30A0505EB060C9D6805F470456A
:101CC8009D60FE688F68C6F30A067D1C354445EAA8
:101CD8000C459D601D690F6925F007051D614FF0D2
:101CE800000C1F619E6991F8315091F83280C3F859
:101CF80018C091F8306046EA096646EA052545EAC3
:101D080008459D615D6925F0FF055D614D695D616F
:101D1800DD6925F4E06525F00705DD610E6ACD690A
:101D28003543DD619D6A4D6AC3F828C09D624FB195
:101D3800012F09D0BD1E022D08D9072F0CBF02257F
:101D4800012504E0042502E0032500E00225241A09
:101D58006C43E01C8C6ADE6AC96A6C4340EA04443E
:101D680006F0E026DE62DC62186B20F4FF6020F0EB
:101D78000700186319635EF8023043F001034EF858
:101D88000230BDE8F083704738B5044600286AD0B1
:101D980090F8A13003F0FF021BB980F8A020FFF7EC
:101DA800F2FF022384F8A13023689A6922F0704276
:101DB8009A61996962681143A2681143E268114304
:101DC80022690A439A619968284A0A409A60996880
:101DD800A2690A43616942EA01429A60D968234AC2
:101DE8000A40DA60D968226A0A43E16942EA014294
:101DF800DA6019691D4A0A401A611969A26A0A4318
:101E0800616A42EA01421A615969184A0A405A61EC
:101E18005969226B0A43E16A42EA01425A61D96A66
:101E280094F8360094F8352001F07F41D962D96AD8
:101E380094F83450294341EA022242EA0042DA6225
:101E48005A6B42F004025A635A6B42F002025A6318
:101E58009A6942F001029A6100200123C4F8A400A3
:101E680084F8A13038BD012038BD00BF00F800F06B
:101E7800F8B590F8A030012B06468C4696464FF0F0
:101E880002001DD0012786F8A07086F8A10034242E
:101E98000D4604FB02640FCD38340FC40FCD0FC4B8
:101EA8000FCD0FC42B682360304661467246FFF79A
:101EB800E1FE336800205F6286F8A17086F8A00012
:101EC800F8BD90F8A030012B70B54FF0020304461E
:101ED80015D080F8A13034235343C618012580F863
:101EE800A050F16403F138010144FFF7C3FE2368F1
:101EF80000205D6284F8A15084F8A00070BD1846E7
:101F080070BD90F8A100704770470368DA6842F026
:101F18000102DA601A6842F001021A600020704774
:101F28002E4A0368904212D0B0F1804F0FD0A2F52C
:101F38007C4290420BD002F58062904207D002F5B5
:101F48008062904203D002F57842904218D14A68E4
:101F580023F070031343214A904237D0B0F1804FE9
:101F680034D01F4A904231D002F5806290422DD081
:101F780002F58062904229D002F57842904225D03D
:101F8800184A904222D002F5806290421ED002F593
:101F9800806290421AD0A2F59832904216D002F58B
:101FA8008062904212D002F5806290420ED00360A7
:101FB8008B68C3620B688362084B98420BD003F5A9
:101FC8008063984207D0012343617047CA6823F4AD
:101FD80040731343EBE70B690363F4E70000014028
:101FE800000400400040014010B5044680B190F85C
:101FF80039300BB9FFF788FF022384F8393020689D
:10200800211DFFF78DFF012384F83930002010BD12
:10201800012010BD70477047F7B5044690F83400AA
:10202800012816464FF0020041D0256884F8350093
:102038002868DFF888C020F002004FF0010E84F80D
:1020480034E0286028680143A06C2960B3F5803F1C
:102058001849C163C0F848C004D205F1280100F04E
:102068008FFA1EE04164C4F838E06264E363E36B0E
:10207800B3F5803F06D3E36B5B08E363A36B5B00B8
:10208800A363F4E7A36B023BA363A36B2364E36B33
:10209800E26B009205F12801324606EB830300F05B
:1020A800E1F8054A136843F001031360002003B008
:1020B800F0BD00BFDF20000800000550CB2000085D
:1020C800704708B5806B012380F83530FFF7F8FFBB
:1020D80008BD7047704710B5846B012384F835300C
:1020E800A36BA06CCBB103681968A26B12F0010254
:1020F80006D1090304D5DB68E16B03EBC10107E0F6
:102108001A6812031AD41B69E16B012203EBC1019F
:1021180000F0EAF8A36B013B0FE003681A681103AB
:1021280002D5626CDA6009E01A68120306D4E16B22
:10213800626C02EB81021A61236CA36323689B68BB
:10214800DB0705D5002384F83430204601F098FADF
:1021580010BD03689A68520710B5044617D51A6966
:10216800500714D5DA68A06C22F00402DA60042261
:102178005A61E36C43F00203E364002384F83520DA
:1021880084F8343000F029FA2046FFF799FF2368D5
:102198009A68910718D51A69920715D5DA68A06C5C
:1021A80022F00202DA6002225A61E36C43F0010372
:1021B800E364042384F83530002384F8343000F0D5
:1021C8000CFA2046FFF77CFF23689A68D0060AD5E8
:1021D8001A69D10607D510225A61002384F83430D1
:1021E8002046FFF776FF23689A6812070ED51A690A
:1021F80010070BD5DA6822F00802DA6008225A6163
:10220800002384F834302046FFF764FF23689A6877
:10221800D1070ED51A69D2070BD5DA6822F0010268
:10222800DA6001225A61002384F83430204601F034
:1022380027FA10BD90F83430012B4FF002030CD070
:10224800074A80F83530136823F00403136001232C
:1022580080F83530002380F834301846704700BFC6
:102268000000055030B590F83440012C3AD00124D4
:1022780080F83440046825682D0301D4122503E052
:1022880025682D0302D5222580F83550256825F0CC
:1022980001052560256845F4802525602361039B99
:1022A80063608368402B0BBFA260A160E160E260BD
:1022B800236843F010032360236843F00803236076
:1022C800236843F004032360636943F08003636178
:1022D800236843F002032360236843F0010323606B
:1022E800002030BD022030BD03680AB9D96000E083
:1022F80019610020704700002DE9F3410F680022A2
:102308000123934003EA07059D4240F0D8804C68BA
:1023180024F0100CBCF1020F14D14FEAD20E00EBDE
:102328008E0E02F00706DEF82030B6004FF00F08D8
:1023380008FA06F823EA08080B69B34048EA0303D9
:10234800CEF820304FEA420E0323066803FA0EF354
:10235800DB4303EA060804F0030606FA0EF60CF15E
:10236800FF3C48EA0606BCF1010F066011D88668F2
:1023780003EA060CCE6806FA0EF64CEA06068660F4
:10238800466826EA050CC4F3001696404CEA060691
:102398004660C66803EA060C8B6803FA0EF64CEA38
:1023A8000603C360E30040F18A80484E002301938E
:1023B800D6F844E04EF4804EC6F844E0766C06F455
:1023C80080460196019E22F0030606F1804606F536
:1023D8009C3602F0030CD6F808804FEA8C0C4FF0BC
:1023E8000F0E0EFA0CFE28EA0E0EDFF8E8804045C4
:1023F80037D003F1804303F50133984222D003F527
:102408008063984220D003F5806398421ED003F57C
:10241800806398421CD003F5806398421AD003F574
:102428008063984218D003F58063984216D003F56C
:102438008063984214D003F5806398420CBF092347
:102448000A230EE001230CE002230AE0032308E03C
:10245800042306E0052304E0062302E0072300E046
:10246800082303FA0CF343EA0E03DFF864E0B360D1
:10247800DEF80030EE4314F4803F14BF2B433340A2
:10248800CEF80030DEF80430DFF844E014F4003F02
:1024980014BF2B433340CEF80430DEF8083014F470
:1024A800801F14BF2B433340CEF80830DEF80C30C1
:1024B800A40254BF06EA03051D43054BDD60013243
:1024C800102A7FF41DAF02B0BDE8F0810038024049
:1024D800003C01400000024002B9090481617047D4
:1024E8000368DAB223F47F7323F003031821103A48
:1024F800B2FBF1F20449032A88BF0433895C0365FF
:102508004165006D704700BF095C000838B5044696
:10251800002831D00168194A022380F835300B6849
:1025280080681A4063681843E368184323691843AE
:1025380063691843A3691843E3691843236A03438B
:102548001343626A042A01BFE06A256B28430343E8
:102558000B604B69042A23F0070343EA020304BF14
:10256800A26A13434B612046FFF7BAFF00200123FC
:10257800E06484F8353038BD012038BD3F8010F064
:1025880030B590F83440012C4FF0020423D080F885
:1025980035400468012580F83450256825F0010588
:1025A8002560256825F48025256063608368402BB5
:1025B8000BBFA260A160E160E260236843F01E03E4
:1025C8002360636943F080036361236843F0010378
:1025D8002360002030BD204630BD026838B513683E
:1025E80023F0010313600446FEF702F8054623684A
:1025F800186810F0010010D0FDF7FAFF401BB0F585
:102608007A7FF4D9E36C43F02003E36403200023CA
:1026180084F8343084F8350038BD012384F8340058
:1026280084F8353038BD000070B5056D416D2A68F5
:1026380008238B401342044615D0026811684E07E0
:1026480011D5116821F004011160AB60C36C43F02F
:102658000103C364042380F83530002380F8343044
:10266800836C03B19847616D454B2A688B401342D0
:1026780016D022685169090612D5516921F08001E6
:102688005161AB60E36C43F00203E364042384F814
:102698003530002384F83430A36C0BB120469847BA
:1026A800616D384B2A688B40134216D02268116836
:1026B8008E0712D5116821F002011160AB60E36C3E
:1026C80043F00403E364042384F83530002384F8DA
:1026D8003430A36C0BB120469847616D2B681022EB
:1026E8008A401A421ED02368196808071AD5196843
:1026F800490308D5AA601A6812030CD51B681E0383
:102708000CD5412308E01968C8055EBF196821F097
:1027180008011960AA60312384F83530236C0BB1A5
:1027280020469847616D2B6820228A401A4226D09D
:1027380023681968C90622D519684E0309D5AA6005
:102748001A68150301D4636C14E01B68180316D5C6
:102758000FE01968C9055EBF196821F010011960FA
:10276800AA60E36CE364112384F83530002384F80D
:102778003430E36B1BB12046BDE87040184770BD8C
:1027880001008000040080002DE9F0411D46036827
:1027980004461B6816460F469847236839469B68C7
:1027A80020469847236831469B6820469847236807
:1027B80020469A6829469047236820465B68BDE80A
:1027C800F04118472DE9F0411D46036804461B688F
:1027D80016460F469847236839469B68204698470F
:1027E800236831469B68204698472368C5F307212C
:1027F8009B6820469847236820469B68E9B298471B
:10280800236820465B68BDE8F04118472DE9F04190
:102818001D460368069E1B68044617468846984767
:10282800236841469B6820469847236820469B6852
:10283800394698472E44B542236805D09B6815F859
:10284800011B20469847F6E720465B68BDE8F04143
:102858001847036870B504461B6816460D46984726
:10286800236829469B6820469847236831469B6819
:1028780020469847236820461B689847236845F0F8
:1028880001019B682046984723680021DB682046A1
:102898009847236805465B6820469847284670BDD8
:1028A800036870B504461B6816460D4698472368AA
:1028B80029469B6820469847236831469B682046EE
:1028C8009847236820461B689847236845F001010C
:1028D8009B682046984723682046DB680121984773
:1028E800236800210502DB682046984723680543D2
:1028F8005B6820469847284670BD2DE9F0411D4683
:102908000368069E1B68044690460F46984723684E
:1029180039469B6820469847236841469B6820466D
:102928009847236820461B689847236820469B6879
:1029380047F0010198472E44B542236806D0DB686A
:1029480020460121984705F8010BF5E720465B680A
:10295800BDE8F0411847142300BF013B13F0FF0303
:10296800FAD17047B1B903689A6822F440429A6074
:102978009A6842F440429A605A6822F080025A608B
:102988005A685A601A6822F440421A601A6842F477
:10299800804243E001290ED103689A6822F440423C
:1029A8009A609A6842F440429A601A6822F4404257
:1029B8001A601A6832E0022913D103689A6822F46F
:1029C80040429A609A6842F440429A601A6822F437
:1029D80040421A601A681A60DA6842F48042DA6083
:1029E8007047032910D103689A6822F440429A601C
:1029F8009A6842F440429A601A6822F440421A6087
:102A08001A6842F4004209E0042908D103681A68E8
:102A180022F440421A601A6842F440421A60704731
:102A280010B58CB03C4B00220192196B41F00101AA
:102A38001963196B01F00101019101990292196B57
:102A480041F002011963196B01F002010291029928
:102A58000392196B41F004011963196B01F0040129
:102A6800039103990492196B41F008011963196BDA
:102A780001F00801049104990592196B41F01001C5
:102A88001963196B01F01001059105990692196BEC
:102A980041F020011963196B01F020010691069994
:102AA8000792196B41F040011963196B01F040015D
:102AB800079107990892196B41F080011963196B06
:102AC80001F08001089108990992196B41F480710D
:102AD8001963196B01F48071099109990A92196BAC
:102AE80041F400711963196B01F400710A910A9994
:102AF8000B921A6B42F480621A631B6B03F48063B7
:102B08000B930B9B054B036001210446FFF72AFF3B
:102B180020460CB010BD00BF00380240001402402F
:102B2800B1B903689A6822F440529A609A6842F4EC
:102B380040529A605A6822F040025A605A685A60B5
:102B48001A6822F440521A601A6842F4805243E02C
:102B580001290ED103689A6822F440529A609A6853
:102B680042F440529A601A6822F440521A601A6875
:102B780032E0022913D103689A6822F440529A601D
:102B88009A6842F440529A601A6822F440521A60D5
:102B98001A681A60DA6842F48052DA6070470329CA
:102BA80010D103689A6822F440529A609A6842F4F5
:102BB80040529A601A6822F440521A601A6842F425
:102BC800005209E0042908D103681A6822F4405227
:102BD8001A601A6842F440521A60704710B58CB0F7
:102BE8003C4B00220192196B41F001011963196BEA
:102BF80001F00101019101990292196B41F0020162
:102C08001963196B01F00201029102990392196B81
:102C180041F004011963196B01F004010391039950
:102C28000492196B41F008011963196B01F008014E
:102C3800049104990592196B41F010011963196BFD
:102C480001F01001059105990692196B41F02001D8
:102C58001963196B01F02001069106990792196B07
:102C680041F040011963196B01F040010791079980
:102C78000892196B41F080011963196B01F080010A
:102C8800089108990992196B41F480711963196BBD
:102C980001F48071099109990A92196B41F4007144
:102CA8001963196B01F400710A910A990B921A6B56
:102CB80042F480621A631B6B03F480630B930B9BD3
:102CC800054B036001210446FFF72AFF20460CB09C
:102CD80010BD00BF003802400014024038B500F1B2
:102CE80008050446043428460021FFF719FF20464A
:102CF8000021FFF737FE28460121FFF711FF204684
:102D08000021FFF72FFE28460121FFF709FF204683
:102D18000121FFF727FEBDE83840FFF71CBE38B594
:102D280000F108050446043428460121FFF7F8FE9F
:102D380020460121FFF716FE28460121FFF7F0FE85
:102D480020460021FFF70EFE28460021FFF7E8FE87
:102D580020460121FFF706FEBDE83840FFF7FBBD1E
:102D68002DE9F8438046071D3846894608F10806CC
:102D78000121FFF7F7FD30460021FFF7D1FEFFF7ED
:102D8800EAFD0825002430460121FFF7C9FEFFF7B8
:102D9800E2FDD8F804301B6964001B0630464FF08A
:102DA8000001E4B205F1FF3548BF44F00104FFF724
:102DB800B7FEFFF7D0FD15F0FF05E4D13846B9F1AD
:102DC800000F01D0294600E00121FFF7CBFDFFF7F6
:102DD800C2FD30460121FFF7A3FEFFF7BCFD3046D8
:102DE8000021FFF79DFEFFF7B6FD38460121FFF7EA
:102DF800B9FDFFF7B0FD2046BDE8F8832DE9F041A5
:102E080007460E46082407F1080500212846FFF763
:102E180087FE07F10408FFF79EFD16F0800F14BF28
:102E2800012100214046FFF79DFD013CFFF793FD7E
:102E380028460121FFF774FE7600FFF78CFD14F099
:102E4800FF04F6B2DFD128462146FFF769FEFFF7F7
:102E580082FD40460121FFF785FDFFF77CFD2846EE
:102E68000121FFF75DFEFFF776FD7B681E692846A6
:102E78002146FFF755FEFFF76EFD86F08000C0F390
:102E8800C010BDE8F081000010B50B4C0B4B20467C
:102E980040F8043BFFF7C4FD04F10800FFF79EFE6D
:102EA8006268536923F080035361A268536923F071
:102EB8004003536110BD00BF50040020205C00088F
:102EC800704770470348044B0449054A036002F001
:102ED800F3BD00BF5C040020540B0020C92E00087D
:102EE800000000207047000070B500221146104B0A
:102EF80010011C18A56815F0020F1D4608D1A4681A
:102F0800E40705D50C011E581C59A64238BF1146C6
:102F18001C5814B11C58013C1C500132202AE6D11F
:102F28000B01EA185268EA50024B196070BD00BFE5
:102F380060040020640600202DE9F00FEFF30882FA
:102F48000E4D0F4C29684FF6FF7399421BBF2B6833
:102F580004EB03130023DA600CBF2B600833FFF780
:102F6800C3FF2B6804EB0314083462686FF0060390
:102F78009E4682F30888BDE8F00F7047640600207B
:102F88006004002002480349034A02F095BD00BFCF
:102F980060060020ED2E00080000002070470000A9
:102FA800044805490122022380E80C00034A02F084
:102FB80083BD00BF68060020A52F00080000002080
:102FC80070470000F0B572B600254FF0FF301426A8
:102FD8000D4C6E43A719A6591EB97E68002E08BF6E
:102FE80028460135202DF2D1451C0AD01425C6B239
:102FF8006E43A5190027A7516960AA60EA602F747B
:103008006B7462B6F0BD00BF7406002072B6074B41
:10301800142202FB01310B7C03F0FF001BB1087C7A
:103028000023C0B20B7462B6704700BF740600205C
:103038002DE9F041074600240F4E14256543731906
:103048001033B0465B788BB138462146FFF7DEFF78
:1030580060B173590BB173599847142303FB048368
:103068005A681AB1586803689B6898470134E4B2F3
:10307800202C28BF0024DFE77406002082B072B637
:10308800034B1B68019362B6019802B0704700BFFA
:103098007006002038B54FF080431A69D20733D53F
:1030A8004FF6FE721A6100241849142303FB041317
:1030B80003F1080250680D4618B15368013B53608C
:1030C8001BE0986850601A7CFF2A1FBF1A7C0132E7
:1030D800D2B21A7414236343CA181032527862B9F0
:1030E800CA580AB1CB589847142303FB04535A68AB
:1030F8001AB1586803689B6898470134202CD3D1CB
:10310800034A13680133136038BD00BF74060020FA
:103118007006002010B592B00C46FEF72FFC002C6C
:103128004FEA400308BF0124A04207EE903A28BFA7
:103138002046B8EE677A07EE900AF8EE677A002420
:10314800C7EE277A1C4B0294196C41F001011964EF
:103158001B6C079403F001030293029B05944FF044
:1031680080430393BCEEE77A03A817EE102A120CEB
:10317800531C07EE103AB8EEC77A0492C7EE877A66
:103188000894B7EE007A77EEC77AFCEEE77ACDEDD1
:10319800017ABDF804300693FEF726FF0321224684
:1031A8001C20FEF757F81C20FEF784F803A8FEF74A
:1031B800ACFE12B010BD00BF0038024038B5002484
:1031C8000D4D142161436A18002301346B50202CE3
:1031D8004FF47A7153609160D36013745374EFD1D4
:1031E800064A1360064A0360136C43F00103136434
:1031F800FFF790FF62B638BD740600207006002005
:103208000038024002480349034A02F055BC00BF97
:10321800F4080020C92F00080000002010B504465B
:1032280001F04FFD204610BD38B505464C1E14F878
:10323800011F19B1284601F09BFDF8E738BD30B5EC
:1032480085B00B1E4FF00002BABF5B420124144642
:103258008DF80F200A210A2293FBF2F502FB1533A1
:1032680004AA0A44303302F80C3C4A1ED2B22B4658
:103278000DB11146EFE72CB104AB13442D2103F82F
:103288000C1C114601AB1944FFF7CEFF05B030BD49
:103298001FB500238DF80F300A220A23B1FBF3F47F
:1032A80003FB141304A91144303301F80C3C531EDA
:1032B800DBB221460CB11A46EFE701AB9918FFF7CC
:1032C800B3FF04B010BD1FB500238DF80F300A22DC
:1032D80001F00F0304AC092B144494BF3033573367
:1032E80004F80C3C090902F1FF33DBB201D01A469D
:1032F800EEE701AB9918FFF797FF04B010BDF8B5DA
:10330800B5EEC00A2DED028BF1EE10FA0D46064619
:1033180046BFB1EE400A2D21202101230022AA42F6
:1033280003D20A2043430132F9E7BDEEC08A304692
:10333800F8EEC87A30EE670A07EE903AF8EE677A48
:1033480020EE270ABDEEC00A10EE104A002CB8BFC6
:10335800644201F00DFD304618EE101AFFF76FFFBA
:1033680030462E2101F004FD002301220A214A43A0
:103378000133A242DBB2F9DBED1AEDB20027AF420E
:10338800304604D2302101F0F3FC0137F7E7BDECF9
:10339800028B2146BDE8F840FFF751BF0EB477B560
:1033A80007AB044653F8046B01930025715D0029AF
:1033B80054D0252904D0204601F0DAFC0135F5E780
:1033C80073195978692916D007D863292BD066292B
:1033D80031D0252940D120462AE0752913D07829F3
:1033E80019D0732938D1019B20461A1D19680192FA
:1033F800FFF71AFF30E0019B20461A1D1968019259
:10340800FFF71DFF28E0019B20461A1D196801924D
:10341800FFF73EFF20E0019B20461A1D1968019224
:10342800FFF751FF18E0019B1A1D197801922046F9
:1034380001F09EFC10E0019B073323F0070303F122
:103448000802D3E900010192FCF70CFF032100EE0A
:10345800100A2046FFF753FF0235A7E703B0BDE87F
:10346800704003B07047000010B5054C204601F0CD
:1034780027FC20460349044ABDE8104002F01CBB63
:10348800F80800202532000800000020036870B505
:1034980004461B6816460D469847236829469B68CC
:1034A80020469847236831469B68204698472368FA
:1034B80020461B689847236845F001019B68204611
:1034C800984723680021DB6820469847236805460B
:1034D8005B6820469847284670BD2DE9F0411D4697
:1034E800036804461B6816460F4698472368394602
:1034F8009B6820469847236831469B682046984732
:10350800236820469A6829469047236820465B68C6
:10351800BDE8F04118472DE9F0411D46036804460F
:103528001B6816460F469847236839469B6820460D
:103538009847236831469B68204698472368C5F317
:1035480007219B6820469847236820469B68E9B274
:103558009847236820465B68BDE8F04118472DE985
:10356800F0411D460368069E1B68044617468846B8
:103578009847236841469B68204698472368204619
:103588009B68394698472E44B542236805D09B6806
:1035980015F8011B20469847F6E720465B68BDE80A
:1035A800F0411847036870B504461B6816460D4677
:1035B8009847236829469B682046984723683146E0
:1035C8009B6820469847236820461B6898472368CD
:1035D80045F001019B682046984723682046DB6830
:1035E80001219847236800210502DB682046984797
:1035F800236805435B6820469847284670BD2DE937
:10360800F0411D460368069E1B68044690460F4617
:103618009847236839469B6820469847236841465F
:103628009B6820469847236820461B68984723686C
:1036380020469B6847F0010198472E44B54223680D
:1036480006D0DB6820460121984705F8010BF5E70D
:1036580020465B68BDE8F0411847642300BF013B82
:1036680013F0FF03FAD170470148FEF7DDBF00BF32
:10367800000900200148FEF76CBD00BF5809002072
:10368800014B01221A607047FC080020704711F1B5
:10369800FF3101D300BFFAE7704700002DE9F04180
:1036A8008CB05D4B5D48002400945A6B42F00102D7
:1036B8005A635A6B02F001020092009A01941A6B45
:1036C80042F480021A631A6B02F480020192019A92
:1036D80002941A6B42F001021A631A6B02F001029B
:1036E8000292029A03941A6B42F008021A631A6B48
:1036F80002F008020392039A04941A6B42F0100233
:103708001A631A6B02F010020492049A05941A6B59
:1037180042F040021A631A6B02F040020592059AC1
:1037280006941A6B42F080021A631B6B03F0800345
:10373800069303254FF0020801270D26069B0A95DC
:10374800502307A90793CDF8208009970B96FEF719
:10375800D3FD082307A9324807930A95CDF820809E
:1037680009970B96FEF7C8FD602307A92D48079314
:103778000A95CDF8208009970B96FEF7BDFD4FF40A
:10378800007307A9284807930A95CDF82080099760
:103798000B96FEF7B1FD4FF4BC4307A923480793E6
:1037A8000A95CDF8208009970B96FEF7A5FD204BCA
:1037B8004FF000725A604FF480621A614FF48052E1
:1037C8005A614FF480429A614FF48072DA614FF483
:1037D80000321A629D62174A174D1A600521224667
:1037E8004E209C60DC605C62DC621C63AB649D63A1
:1037F800FDF730FD4E20FDF75DFD052122463920FD
:10380800FDF728FD3920FDF755FDA86CFEF77EFE73
:103818000CB0BDE8F08100BF003802400000024053
:10382800000C02400010024000180240001C024038
:1038380000090020286402405809002010B5436997
:10384800046904480A4663430021BDE81040FEF7B6
:10385800E3BB00BF58090020006970474069704702
:1038680070B5051D04466021284612228023FFF703
:1038780034FE204644F62061FFF709FF0024064B7A
:103888001E191A5D7378284660210234FFF725FE59
:10389800B4F5967FF3D170BD785C0008234B0268BD
:1038A80073B500251D605369214E0561044643F434
:1038B8000053456131465361FFF7E9FE22685369B9
:1038C80023F40053536120463146FFF7E0FE194EBA
:1038D8006021201D0A22FFF7D9FD8023F3602023F1
:1038E800B360154B3360154B019575613561756093
:1038F800B5615A6B42F001025A635B6B03F0010336
:1039080001932046019BFFF7C9FE3046FEF756F9A2
:10391800A0232361782363612046FFF7A1FF304687
:10392800FEF788FC284602B070BD00BFFC080020E6
:103938008096980058090020000005500038024081
:103948008CB0454B00220192196B41F001011963BB
:10395800196B01F00101019101990292196B41F073
:1039680002011963196B01F0020102910299039295
:10397800196B41F004011963196B01F004010391FB
:1039880003990492196B41F008011963196B01F04E
:103998000801049104990592196B41F0100119630B
:1039A800196B01F01001059105990692196B41F008
:1039B80020011963196B01F02001069106990792FD
:1039C800196B41F040011963196B01F0400107912F
:1039D80007990892196B41F080011963196B01F07E
:1039E8008001089108990992196B41F48071196353
:1039F800196B01F48071099109990A92196B41F4C4
:103A080000711963196B01F400710A910A990B92FC
:103A18001A6B42F480621A631B6B03F480630B9386
:103A28000B9B0E4B03609A6822F040629A609A687A
:103A380042F040629A605A6822F400525A605A680A
:103A48005A601A6822F040621A601A6842F080626E
:103A58001A600CB0704700BF00380240001C0240DA
:103A6800B1B903689A6822F440229A609A6842F4CD
:103A780040229A605A6822F400725A605A685A6062
:103A88001A6822F440221A601A6842F4802243E03D
:103A980001290ED103689A6822F440229A609A6834
:103AA80042F440229A601A6822F440221A601A6886
:103AB80032E0022913D103689A6822F440229A60FE
:103AC8009A6842F440229A601A6822F440221A60E6
:103AD8001A681A60DA6842F48022DA6070470329AB
:103AE80010D103689A6822F440229A609A6842F4D6
:103AF80040229A601A6822F440221A601A6842F436
:103B0800002209E0042908D103681A6822F4402237
:103B18001A601A6842F440221A60704710B58CB0D7
:103B28003C4B00220192196B41F001011963196B9A
:103B380001F00101019101990292196B41F0020112
:103B48001963196B01F00201029102990392196B32
:103B580041F004011963196B01F004010391039901
:103B68000492196B41F008011963196B01F00801FF
:103B7800049104990592196B41F010011963196BAE
:103B880001F01001059105990692196B41F0200189
:103B98001963196B01F02001069106990792196BB8
:103BA80041F040011963196B01F040010791079931
:103BB8000892196B41F080011963196B01F08001BB
:103BC800089108990992196B41F480711963196B6E
:103BD80001F48071099109990A92196B41F40071F5
:103BE8001963196B01F400710A910A990B921A6B07
:103BF80042F480621A631B6B03F480630B930B9B84
:103C0800054B036001210446FFF72AFF20460CB04C
:103C180010BD00BF0038024000040240B1B903687B
:103C28009A6822F440329A609A6842F440329A6064
:103C38005A6822F480725A605A685A601A6822F4E4
:103C480040321A601A6842F4803243E001290ED1EA
:103C580003689A6822F440329A609A6842F44032C3
:103C68009A601A6822F440321A601A6832E002290F
:103C780013D103689A6822F440329A609A6842F431
:103C880040329A601A6822F440321A601A681A6040
:103C9800DA6842F48032DA607047032910D1036889
:103CA8009A6822F440329A609A6842F440329A60E4
:103CB8001A6822F440321A601A6842F4003209E0A5
:103CC800042908D103681A6822F440321A601A6875
:103CD80042F440321A60704710B58CB03C4B002259
:103CE8000192196B41F001011963196B01F001018F
:103CF800019101990292196B41F002011963196B44
:103D080001F00201029102990392196B41F004013A
:103D18001963196B01F00401039103990492196B5B
:103D280041F008011963196B01F008010491049925
:103D38000592196B41F010011963196B01F010011C
:103D4800059105990692196B41F020011963196BC9
:103D580001F02001069106990792196B41F0400184
:103D68001963196B01F04001079107990892196BC3
:103D780041F080011963196B01F0800108910899DD
:103D88000992196B41F480711963196B01F4807100
:103D9800099109990A92196B41F400711963196B19
:103DA80001F400710A910A990B921A6B42F480622D
:103DB8001A631B6B03F480630B930B9B054B036027
:103DC80001210446FFF72AFF20460CB010BD00BFB2
:103DD800003802400004024010B50446FFF7B0FD69
:103DE80020460B4B40F8043F0430FFF797FE04F1E0
:103DF8000C00FFF771FFA268536923F40073536145
:103E0800E268536923F480735361204610BD00BFF4
:103E1800505C000838B500F108050446043428460B
:103E28000021FFF7FBFE20460021FFF719FE284678
:103E38000121FFF7F3FE20460021FFF711FE284677
:103E48000121FFF7EBFE20460121FFF709FEBDE83F
:103E58003840FFF702BC38B500F1080504460434C1
:103E680028460121FFF7DAFE20460121FFF7F8FD79
:103E780028460121FFF7D2FE20460021FFF7F0FD7A
:103E880028460021FFF7CAFE20460121FFF7E8FD7A
:103E9800BDE83840FFF7E1BB2DE9F8438046071D30
:103EA8003846894608F108060121FFF7D9FD304652
:103EB8000021FFF7B3FEFFF7D0FB082500243046AA
:103EC8000121FFF7ABFEFFF7C8FBD8F804301B69E8
:103ED80064009B0530464FF00001E4B205F1FF3560
:103EE80048BF44F00104FFF799FEFFF7B6FB15F051
:103EF800FF05E4D13846B9F1000F01D0294600E0AA
:103F08000121FFF7ADFDFFF7A8FB30460121FFF7C0
:103F180085FEFFF7A2FB30460021FFF77FFEFFF783
:103F28009CFB38460121FFF79BFDFFF796FB2046D7
:103F3800BDE8F8832DE9F04107460E46082407F14D
:103F4800080500212846FFF769FE07F10408FFF776
:103F580084FB16F0800F14BF012100214046FFF7B3
:103F68007FFD013CFFF779FB28460121FFF756FE4C
:103F78007600FFF772FB14F0FF04F6B2DFD1284693
:103F88002146FFF74BFEFFF768FB40460121FFF78C
:103F980067FDFFF762FB28460121FFF73FFEFFF7A9
:103FA8005CFB7B681E6928462146FFF737FEFFF752
:103FB80054FB86F40070C0F34020BDE8F0817047E0
:103FC8004FF4F07070474FF4887070472DE9F04F48
:103FD80091B00024D0F8C0200C9200F118084FF4DA
:103FE800F0764FF48875022307464FF0FF0B4FF425
:103FF800C06A4FF0070903A9224640460793019378
:104008000394049605940695CDF820B009948DF88C
:104018003C408DF83D408DF83E40CDF828A0CDF8C5
:104028002C900D960E95FDF723FF019B0793D7F86B
:10403800C030039403F57F33404603A90122049658
:10404800059406950C93CDF820B009948DF83C4062
:104058008DF83D408DF83E40CDF828A0CDF82C9045
:104068000D960E95FDF704FF11B0BDE8F08FD0F85E
:10407800C03003F57F330360012343607047026853
:10408800002399520233B3F57F3FFAD17047426853
:10409800183002B10122FDF714BF40F2DF13994234
:1040A80028BF194640F20F139A4228BF1A464FF408
:1040B800F073C181028203FB0212016801EB420224
:1040C8004261704743691980037B012B0FD1C38973
:1040D80001339BB2B3F5F07F19D3038A01339BB246
:1040E8000022B3F5887FC28107D3028212E0038AD7
:1040F80001339BB2B3F5887F01D203820AE0C389FA
:1041080001339BB20022B3F5F07F028201D2C38152
:1041180000E0C281C389018A4FF4F07202FB0132C8
:10412800036803EB42034361704770B59DF8104084
:104138009DF81460A410640144EAD604DB0805461F
:1041480044EAC32489B292B2FFF7A7FF2846214662
:10415800BDE87040FFF7B6BF38B5456804463DB9BD
:10416800FFF785FF20462946BDE83840FFF78FBF97
:10417800FF21FFF78CFFD4F8C03023600023636071
:1041880038BD0000054808230360C02343610523A8
:10419800C3614FF48033C362FCF77ABAA8090020E0
:1041A800F0B58FB04E4B4F4E4F4800220092596CDD
:1041B80041F080615964596C01F080610091009967
:1041C8000192196B41F400011963196B01F40001A4
:1041D800019101990292196B41F010011963196B51
:1041E80001F01001029102990392196B41F040010C
:1041F8001963196B01F04001039103990492196B3B
:1042080041F480711963196B01F480710491049968
:104218000592196B41F400711963196B01F400716F
:10422800059105990692196B41F480611963196B20
:1042380001F48061069106990792196B41F4807127
:104248001963196B01F48071079107990892196B2A
:1042580041F4806119631B6B0B9203F4806308932C
:1042680002240E25089B0A94102309A909930C948B
:104278000D954FF48057FEF73FF8092309A91B480D
:104288000A940D930997FEF737F84FF467433046C1
:1042980009A909930A940D95FEF72EF84EF6FF73B7
:1042A80009A9134809930A940D95FEF725F80A946D
:1042B800104C0D95F723204609A909930125FEF70F
:1042C8001BF8304609A909970A95FEF715F808233F
:1042D800204609A909930A95FEF70EF80FB0F0BD1C
:1042E800003802400020024000100240001802403E
:1042F800002402400028024038B52823C36209235D
:104308000363352343630B23836340F21B13036466
:1043180040F21523C36340F21D13836440F2352332
:1043280004464364FFF72EFF4FF4F073A3674FF47E
:104338008873E3672546002384F84C3084F84D30B1
:1043480084F84E30E36123626362A3620C4B45F844
:10435800183F2846FDF7D5FD10B92046FFF720FF86
:104368002846FDF711FD07484FF480510122FEF75A
:10437800B3F8054808210122BDE83840FEF7ACB87B
:1043880000680140002002400028024038B5044679
:104398000123C0F8C0100373FFF7AEFFD4F8C03094
:1043A800002584E828002046E58125826561A5600E
:1043B800FFF70CFED4F8C030294684E828002046D0
:1043C800FFF75DFE2046FFF752FE20462946FFF71D
:1043D80056FED4F8C03084E8280038BD02480349A6
:1043E800034A01F069BB00BF2C0A0020C73F000840
:1043F800000000207047036E03EB81010166184638
:10440800704700002DE9F7430023012200F1500610
:1044180089461021026541658265C36531464FF6BC
:10442800FF7204460193FCF70AF91B4D013D01D0C8
:1044380000BFFBE7102702234FF001082365314630
:104448006765C4F85880E56520464FF6FF72FCF7AB
:10445800F6F8032323650823A36531466765E565F8
:1044680020464FF6FF72FCF7EAF84FF40873019301
:1044780004232365019BE36531464FF6FF726765A8
:10448800C4F858802046FCF7DAF820464946FCF77D
:10449800EDF803B0BDE8F083C14B030010B58CB054
:1044A8003D4B3E4800220092996B41F0010199630F
:1044B800996B01F00101009100990192196B41F08B
:1044C80004011963196B01F0040101910199029229
:1044D800196B41F008011963196B01F00801029189
:1044E80002990392196B41F010011963196B01F0DD
:1044F8001001039103990492196B41F0200119638B
:10450800196B01F02001049104990592196B41F08F
:1045180040011963196B01F0400105910599069254
:104528001A6B42F080021A631B6B03F08003069338
:10453800069B02230CAC08930A930C230B930823C5
:1045480044F8143D012221460992FDF7D5FE4CF2AC
:104558000B73214612480793FDF7CEFE4FF683737F
:10456800214610480793FDF7C7FE4FF63F03214643
:104578000D480793FDF7C0FE48F2331321460B4858
:104588000793FDF7B9FE2823094807932146FDF74D
:10459800B3FE0CB010BD00BF003802400008024056
:1045A800000C0240001002400014024000180240B3
:1045B800001C0240042210B5C263C26010220261CE
:1045C80040224261134B03604FF4807202238261E0
:1045D8004FF400620721436343648364C364026247
:1045E80000234FF480520446816301644360836072
:1045F800C36142628362FFF751FF04F13401204630
:10460800FBF7FDFF204640F20361BDE81040FFF7CD
:10461800F9BE00BF400100A038B50D460446FFF7BB
:10462800C9FF1648C5B1164B1B225043373043F813
:10463800040F144A9342F7D1104B4FF04042012027
:104648001B214B4352F8041B37338B4218BF002001
:1046580012F17E5FF4D106E04FF0404318601B680A
:104668001B1A58425841064B002243F8042F054AAA
:104678009342F9D14FF04043236638BD3412FECA45
:10468800FCFFFFBFFCFF7FC002480349034A01F05B
:1046980013BA00BFF00A0020FD4300080000002004
:1046A800142300BF013B13F0FF03FAD17047704792
:1046B800704700687047000070B500240C704948C6
:1046C80001230D46164652218022FEF75DF8454823
:1046D8005221FF220123FEF757F82246234641487C
:1046E8005221FEF751F806233E485221FF22FEF7D9
:1046F8004BF8522183223B48FEF7ABF840F0040305
:10470800522138488322DBB2FEF73EF83548522161
:10471800FF220723FEF738F832485221812201236D
:10472800FEF732F82F48522180220123FEF72CF899
:104738002C48522194226B23FEF726F82346294859
:10474800294C52218322FEF71FF826485221832242
:10475800FEF77FF818B9013CF7D1204670BD012358
:10476800204852218322FEF70FF8522192221D4839
:10477800FEF76FF800F07F03C0F3C0102B705221D2
:104788003070812217480023FDF7FEFF06231548E5
:104798005221FF22FDF7F8FF522183221148FEF72C
:1047A80058F85221034683220E48FDF7EDFF0D48C5
:1047B8005221FF220123FDF7E7FF0A485221002278
:1047C8000123FDF7E1FF07485221FF220023FDF7EF
:1047D800DBFF0448522180220023FDF7D5FF01208A
:1047E80070BD00BF5004002041420F0013B50B22DA
:1047F8000446522113480123FDF7C6FF0E230093F8
:1048080052211422231D0F48FEF777F8E37BA27B81
:1048180043EA0222A2F1150141F6EA7399420ED841
:1048280023686A214A4303EB4303A2F562626421C9
:1048380092FBF1F21344042293FBF2F32360206805
:1048480002B010BD50040020F0B5522187B0892273
:1048580005468648FDF7FDFF40F0010352218348D5
:104868008922DBB2FDF790FF80485221C022FDF774
:10487800F0FFEE2840F0F5807C487D4C5221BF22A5
:104888000123FDF781FF013C01D000BFFBE777481A
:10489800522188222346FDF777FF7448522180224F
:1048A8000123FDF771FF71485221FF220123FDF713
:1048B8006BFF23466D4852212246FDF765FF5221C2
:1048C80091226A48FDF7C5FF684852212246012314
:1048D800FDF75AFF65485221FF222346FDF754FF92
:1048E8002346624852218022FDF74EFF06A928463A
:1048F80001F80A4D0DF10F02FFF7DEFE04AD0623A5
:1049080000935A485221B0222B46FDF7F6FF57482C
:104918005221FF220123FDF737FF544852214F222D
:104928002346FDF731FF514852214E222C23FDF733
:104938002BFF4E485221FF222346FDF725FF4B4807
:104948005221B423B622FDF71FFF9DF80F309DF8C2
:104958000E60002B14BF0C2000202146E2B2D308C1
:10496800824206AF02F007023B4401D3B14209D1AB
:10497800012707FA02F213F8087C27EA020203F873
:10498800082C06E013F8083C1341DB0744BF01314B
:10499800C9B20134302CE1D136480121FEF7C0F804
:1049A80035480121FDF7DEFF32480121FEF7B8F84E
:1049B80031480021FDF7D6FF2E480021FEF7B0F858
:1049C8002D480121FDF7CEFFFFF76AFE52212B4843
:1049D800FEF714FA2548B021FEF710FA0024295DE5
:1049E80022480134FEF70AFA062CF8D121480021A2
:1049F800FEF796F820480021FDF7B4FF1D48012175
:104A0800FEF78EF81C480021FDF7ACFF194801217C
:104A1800FEF786F818480121FDF7A4FFFFF740FECE
:104A2800522184221148FDF714FF522104460A221C
:104A38000E480423FDF7A8FE0C485221842204F0F6
:104A4800EF03FDF7A1FE094852210B220123FDF7D0
:104A58009BFE0648522100220223FDF795FE002006
:104A680001E06FF0010007B0F0BD00BF5004002066
:104A7800A18601005804002054040020500400209E
:104A880070477047002370B5A0F80031A0F80231D4
:104A9800A0F80431A0F80631A0F808310446C0F89F
:104AA8000C11034600F1800618460022002520F864
:104AB800025B0132102AA0F87E50F7D12033B342AE
:104AC800F2D10B6808461B689847D4F80C010368B4
:104AD800C0219B689847D4F80C01036803219B68A0
:104AE8009847D4F80C010368E4219B689847D4F8E8
:104AF8000C01036839219B689847D4F80C010368B6
:104B0800F1219B689847D4F80C01036846219B68FB
:104B18009847D4F80C0103685B689847284670BD2D
:104B28002DE9F0470446D0F80C0103681B68984744
:104B3800D4F80C010368C0219B689847D4F80C018D
:104B4800036802219B689847D4F80C010368002188
:104B58009B689847D4F80C01036801219B68984723
:104B6800D4F80C01036840219B689847D4F80C01DD
:104B780003681B689847D4F80C010368C1219B6837
:104B8800984748F6D023A4F80031002547F230535F
:104B9800A4F80231A4F80451274604F1200AA146DA
:104BA8004FF00008D4F80C0103680121DB6898472E
:104BB8000646D4F80C0103680121DB68984709EB25
:104BC800080346EA002080B2A3F86000B4F9002187
:104BD80003B29A42B4F90221B8BFA4F80001A8F1BF
:104BE80020089A42C8BFA4F8020118F1800F1D449A
:104BF800D8D109F10209D145D2D1D4F80C01036802
:104C0800AD095B68A4F804519847B4F90001B4F9F8
:104C1800023198424BDD274AC01A04F1800592FB05
:104C2800F0F0214603FB00F28E460026BEF9003064
:104C380001364343102EA3EB02034FF47A7C93FB17
:104C4800FCF32EF8023BF1D12031A942ECD104F15A
:104C580020022346DFED186AB3F98010B3F900305B
:104C680007EE903A07EE101AF8EEE77AB8EEC77A30
:104C780067EEA67ADFED116AE7EE267A02349442EF
:104C8800FDEEE77A17EE903AA4F87E30E1D1AC4217
:104C9800DDD13B4600221988B3F880000132091A99
:104CA800102A23F8021BF6D12037AF42F1D1BDE814
:104CB800F08700BF18E403009A99993E3333333FD5
:104CC8007047704770B5A4B00024254B00941A6B48
:104CD800244842F001021A631A6B02F001020092A2
:104CE800009A01941A6B42F002021A631A6B02F0DE
:104CF80002020192019A02945A6C42F010025A641C
:104D08005B6C03F010030293029B4FF400730225BF
:104D180003930726012303A905930495069507968F
:104D2800FDF7EAFA802303A90F4803930495079631
:104D3800FDF7E2FA0D4B08934FF4E13309930C2386
:104D48000D9308A84FF400430A940B940C940E9406
:104D58000F9310941194FCF739FA24B070BD00BF7A
:104D680000380240000002400004024000100140E8
:104D7800034BDA69120601D400BFF9E7996270475C
:104D88000010014010B5044B044640F8083BFFF7FB
:104D98008FFC204610BD00BF005E000810B5044619
:104DA800FFF7F0FF2046FEF78CF8204610BD000004
:104DB8004268536970B543F0020300F10805536176
:104DC80004462846FFF712FD0948FEF757F906463C
:104DD8002846FFF76EFC3246034606490648FEF7AA
:104DE800DDFA6268536923F00203536170BD00BFA6
:104DF800F4080020A45D0008F80800208CB0454B9A
:104E080000220192196B41F001011963196B01F03D
:104E18000101019101990292196B41F00201196394
:104E2800196B01F00201029102990392196B41F08A
:104E380004011963196B01F00401039103990492A9
:104E4800196B41F008011963196B01F0080104910D
:104E580004990592196B41F010011963196B01F05F
:104E68001001059105990692196B41F0200119630B
:104E7800196B01F02001069106990792196B41F010
:104E880040011963196B01F04001079107990892D5
:104E9800196B41F080011963196B01F080010891C9
:104EA80008990992196B41F480711963196B01F41F
:104EB8008071099109990A92196B41F4007119637B
:104EC800196B01F400710A910A990B921A6B42F45A
:104ED80080621A631B6B03F480630B930B9B0E4B6E
:104EE80003609A6822F00C029A609A6842F00C02F9
:104EF8009A605A6822F002025A605A685A601A6820
:104F080022F00C021A601A6842F004021A600CB00F
:104F1800704700BF003802400020024070B50F4BB8
:104F28000F4E044604F1080540F8043BFFF766FFFE
:104F38002846FFF7BCFB30460A49FEF72FFA3046F1
:104F48000949FEF72BFA2846FFF77EFC6268536989
:104F580043F002035361204670BD00BF005E0008A5
:104F6800F8080020CC5D0008D05D000810B5DEB060
:104F7800FBF70FFB1B48FFF7A5FE1B48FEF71EF9C2
:104F880001211A48FFF748FB1948FFF719F80446AA
:104F98001748FFF718F800FB04F121F040411348C7
:104FA800FFF729FA01461248FFF7F0F911490D48B1
:104FB800FEF7F4F901A8FFF7B1FF01A94FF4FA725F
:104FC80001230948FDF7FEFF08A800F02BFC06485E
:104FD80008A932220123FDF7F5FF0348FEF728F858
:104FE800FBE700BFF8080020F4080020F00A0020C2
:104FF8002C0A0020E05D00082DE9F0411D460368F9
:1050080004461B6816460F469847236839469B682E
:1050180020469847236831469B682046984723686E
:1050280020469A6829469047236820465B68BDE871
:10503800F04118472DE9F0411D46036804461B68F6
:1050480016460F469847236839469B682046984776
:10505800236831469B68204698472368C5F3072193
:105068009B6820469847236820469B68E9B2984782
:10507800236820465B68BDE8F04118472DE9F041F8
:105088001D460368069E1B680446174688469847CF
:10509800236841469B6820469847236820469B68BA
:1050A800394698472E44B542236805D09B6815F8C1
:1050B800011B20469847F6E720465B68BDE8F041AB
:1050C8001847036870B504461B6816460D4698478E
:1050D800236829469B6820469847236831469B6881
:1050E80020469847236820461B689847236845F060
:1050F80001019B682046984723680021DB68204609
:105108009847236805465B6820469847284670BD3F
:10511800036870B504461B6816460D469847236811
:1051280029469B6820469847236831469B68204655
:105138009847236820461B689847236845F0010173
:105148009B682046984723682046DB6801219847DA
:10515800236800210502DB68204698472368054339
:105168005B6820469847284670BD2DE9F0411D46EA
:105178000368069E1B68044690460F4698472368B6
:1051880039469B6820469847236841469B682046D5
:105198009847236820461B689847236820469B68E1
:1051A80047F0010198472E44B542236806D0DB68D2
:1051B80020460121984705F8010BF5E720465B6872
:1051C800BDE8F0411847000010B5064B044640F80A
:1051D800483BFFF756FC04F11800FEF757FA204643
:1051E80010BD00BF485E000810B50446FFF7ECFF8D
:1051F8002046FDF766FE204610BD142300BF013B84
:1052080013F0FF03FAD170472DE9F74306460F461E
:105218009046002406F118052846FEF71FFB844235
:1052280024D24FF000092846FEF716FB81451BD211
:105238002846FEF711FB04FB0090336B400853F837
:1052480020200C48130AD108D20001F0FC01D2B288
:105258000091019209EB0801E21903F0F803FEF747
:1052680064FF09F10109DEE70134D3E703B0BDE8C3
:10527800F08300BF2C0A0020F0B5059C069FC4F1FE
:10528800FF06C7F1FF0505FB06FE7E4371430EFBD3
:105298000010654305FB0202634307FB03234FF439
:1052A800803093FBF0F0F0BD2DE9F04F89B04FF05E
:1052B80003090692B3FBF9F39DF84C200293129F61
:1052C80007920F23B7FBF3F700F5947300F1C808B2
:1052D80005938946DDF818B044464FF00F0A0025BB
:1052E800029B9D423FD0C5EB0523039305EB0903C1
:1052F80004930026BE4234D0079B43B1B4F90000A2
:10530800B4F90210B4F92020B4F922C007E034F946
:10531800800C34F97E1C34F9602C34F95ECC039B84
:105328009E46029BBEFBF3FE6346CDF800E0C6EB4B
:10533800062EBEFBF7FECDF804E0FFF79DFF002820
:1053480003DBFF28A8BFFF2000E00020C3B206EB64
:105358000B01009301930B48049AFEF7E6FE013611
:10536800C8E70135BCE7BAF1010ABB4404F10204FD
:10537800B5D1059B08F120089845A944AAD109B0E0
:10538800BDE8F08F2C0A00202DE9F743264F04468C
:105398003846FDF773FE064604F14800FFF7C0FBE8
:1053A8002248FEF7D9FE002104F118050A462046D6
:1053B800FFF72AFF2846FEF74FFA81462846FEF7F0
:1053C8004DFA80462846FEF747FA01234A4600214F
:1053D8000090019320464346FFF766FF2846FEF7F4
:1053E8003BFA81462846FEF739FA80462846FEF7FA
:1053F80033FA0021434601914FEA490200902046C2
:10540800FFF752FF3846FDF739FE0949861B4FF46E
:105418007A720848B2FBF6F2FDF7C0FF2369013340
:10542800236103B0BDE8F083F40800202C0A0020B3
:10543800545E0008F80800208CB0414B002201920D
:10544800196B41F001011963196B01F00101019118
:1054580001990292196B41F002011963196B01F06D
:105468000201029102990392196B41F00401196338
:10547800196B01F00401039103990492196B41F02F
:1054880008011963196B01F0080104910499059248
:10549800196B41F010011963196B01F010010591A6
:1054A80005990692196B41F020011963196B01F0F7
:1054B8002001069106990792196B41F04001196382
:1054C800196B01F04001079107990892196B41F097
:1054D80080011963196B01F08001089108990992FC
:1054E800196B41F480711963196B01F4807109918A
:1054F80009990A92196B41F400711963196B01F447
:1055080000710A910A990B921A6B42F480621A632D
:105518001B6B03F480630B930B9B0A4B03609A6825
:1055280022F440029A609A6842F440029A601A682B
:1055380022F440021A601A681A600CB0704700BF63
:1055480000380240002002408CB0454B00220192F6
:10555800196B41F001011963196B01F00101019107
:1055680001990292196B41F002011963196B01F05C
:105578000201029102990392196B41F00401196327
:10558800196B01F00401039103990492196B41F01E
:1055980008011963196B01F0080104910499059237
:1055A800196B41F010011963196B01F01001059195
:1055B80005990692196B41F020011963196B01F0E6
:1055C8002001069106990792196B41F04001196371
:1055D800196B01F04001079107990892196B41F086
:1055E80080011963196B01F08001089108990992EB
:1055F800196B41F480711963196B01F48071099179
:1056080009990A92196B41F400711963196B01F435
:1056180000710A910A990B921A6B42F480621A631C
:105628001B6B03F480630B930B9B0E4B03609A6810
:1056380022F0C0029A609A6842F0C0029A605A68E2
:1056480022F008025A605A685A601A6822F0C002AA
:105658001A601A6842F040021A600CB0704700BF26
:105668000038024000280240B1B903689A6822F461
:1056780040129A609A6842F440129A605A6822F47A
:1056880080625A605A685A601A6822F440121A6096
:105698001A6842F4801243E001290ED103689A681F
:1056A80022F440129A609A6842F440129A601A688A
:1056B80022F440121A601A6832E0022913D10368F2
:1056C8009A6822F440129A609A6842F440129A60EA
:1056D8001A6822F440121A601A681A60DA6842F4EA
:1056E8008012DA607047032910D103689A6822F49F
:1056F80040129A609A6842F440129A601A6822F43A
:1057080040121A601A6842F4001209E0042908D10C
:1057180003681A6822F440121A601A6842F44012A8
:105728001A60704710B58CB03C4B00220192196B7F
:1057380041F001011963196B01F00101019101990F
:105748000292196B41F002011963196B01F0020111
:10575800029102990392196B41F004011963196BC4
:1057680001F00401039103990492196B41F00801B7
:105778001963196B01F00801049104990592196BDA
:1057880041F010011963196B01F010010591059999
:105798000692196B41F020011963196B01F0200181
:1057A800069106990792196B41F040011963196B2C
:1057B80001F04001079107990892196B41F08001A7
:1057C8001963196B01F08001089108990992196B06
:1057D80041F480711963196B01F480710991099979
:1057E8000A92196B41F400711963196B01F4007185
:1057F8000A910A990B921A6B42F480621A631B6B26
:1058080003F480630B930B9B054B03600121044653
:10581800FFF72AFF20460CB010BD00BF0038024039
:10582800001402402DE9F8430546314B45F8183B72
:1058380004462846FEF7D0FA04F13400FFF7FCFDD1
:10584800274604F13800FFF77FFE2A4B47F83C3F14
:1058580004F14000FFF766FF04F14400FDF7BEF9CC
:10586800226CDFF8A490536923F480635361626C5F
:10587800536904F1480823F0400353614046FFF799
:10588800FFF8A26B0023E3605369002643F0080386
:105898006660A660284653612661FDF7FFFF16493A
:1058A80002464846FDF77AFD31461448FEF7E7FB05
:1058B8002846FDF7D3FF06462846FDF7CDFF00FB37
:1058C80006F1C1F35D010E48FEF795FD0D49206311
:1058D80002464846FDF762FD2846216BFDF7AEFFFC
:1058E80040463946FFF7CEF82046BDE8F88300BFAA
:1058F800485E0008185E00085C5E00082C0A00205C
:10590800F00A0020715E0008F808002038B500F1A0
:1059180008050446043428460021FDF701F920460D
:105928000021FFF7A1FE28460121FDF7F9F82046DE
:105938000021FFF799FE28460121FDF7F1F82046DE
:105948000121FFF791FEBDE83840FFF756BC38B596
:1059580000F108050446043428460121FDF7E0F863
:1059680020460121FFF780FE28460121FDF7D8F8DF
:1059780020460021FFF778FE28460021FDF7D0F8E1
:1059880020460121FFF770FEBDE83840FFF735BC1F
:105998002DE9F8438046071D3846894608F1080670
:1059A8000121FFF761FE30460021FDF7B9F8FFF746
:1059B80024FC0825002430460121FDF7B1F8FFF743
:1059C8001CFCD8F804301B6964005B0530464FF0B6
:1059D8000001E4B205F1FF3548BF44F00104FDF7CA
:1059E8009FF8FFF70AFC15F0FF05E4D13846B9F136
:1059F800000F01D0294600E00121FFF735FEFFF72F
:105A0800FCFB30460121FDF78BF8FFF7F6FB30462B
:105A18000021FDF785F8FFF7F0FB38460121FFF775
:105A280023FEFFF7EAFB2046BDE8F8832DE9F041A5
:105A380007460E46082407F1080500212846FDF709
:105A48006FF807F10408FFF7D8FB16F0800F14BFB2
:105A5800012100214046FFF707FE013CFFF7CDFB7F
:105A680028460121FDF75CF87600FFF7C6FB14F025
:105A7800FF04F6B2DFD128462146FDF751F8FFF7BB
:105A8800BCFB40460121FFF7EFFDFFF7B6FB2846B8
:105A98000121FDF745F8FFF7B0FB7B681E69284632
:105AA8002146FDF73DF8FFF7A8FB86F48060C0F3B8
:105AB8008020BDE8F081000003460846194600F042
:105AC80007B800BF014600200246034600F020B890
