:020000040800F2
:10000000FFFF0420290300080D0300081F03000858
:100010000D0300080D0300080D0300080000000098
:100020000000000000000000000000000D030008B8
:100030000D030008000000000D0300080D03000878
:100040000D0300080D0300080D0300080D03000850
:100050000D0300080D0300080D0300080D03000840
:100060000D0300080D0300080D0300080D03000830
:100070000D0300080D0300080D0300080D03000820
:100080000D0300080D0300080D0300080D03000810
:100090000D0300080D0300080D0300080D03000800
:1000A0000D0300080D0300080D0300080D030008F0
:1000B000994500080D0300080D0300080D03000812
:1000C0000D0300080D0300080D0300080D030008D0
:1000D0000D0300080D0300080D0300080D030008C0
:1000E0000D0300080D0300080D0300080D030008B0
:1000F0000D0300080D0300080D0300080D030008A0
:100100000D0300080D0300080D0300080D0300088F
:100110000D0300080D0300080D0300080D0300087F
:100120000D0300084D3200080D0300080D03000800
:100130000D0300080D0300080D0300080D0300085F
:100140000D0300080D0300080D0300080D0300084F
:100150000D0300080D0300080D0300080D0300083F
:100160000D0300080D0300080D0300080D0300082F
:100170000D0300080D0300085932000800000000BC
:100180000D0300080D0300080D0300080D0300080F
:100190000D0300080D0300080D0300080D030008FF
:1001A0000D0300080D0300080D0300080D030008EF
:1001B0000D0300080D0300080D0300080D030008DF
:0801C0000D0300080D03000807
:1001C800044B05481B1A062B02D9044B03B11847E8
:1001D800704700BF13050020100500200000000034
:1001E80005490648091A891001EBD171491002D056
:1001F800034B03B118477047100500201005002075
:100208000000000010B5064C237843B9FFF7D8FF6B
:10021800044B13B10448AFF300800123237010BDD1
:100228001005002000000000CC50000808B5084B5D
:100238001BB108480849AFF300800848036813B9A0
:10024800BDE80840CCE7064B002BF9D09847F7E704
:1002580000000000CC500008140500201005002004
:10026800000000004FEA4102B2F1E04324BFB3F5B9
:10027800001CDCF1FE5C0DD901F0004C4FEAC00215
:100288004CEA5070B2F1004F40EB830008BF20F0F9
:100298000100704711F0804F21D113F13872BCBFB3
:1002A80001F00040704741F480114FEA5252C2F108
:1002B8001802C2F1200C10FA0CF320FA02F018BF51
:1002C80040F001004FEAC1234FEAD32303FA0CFCA4
:1002D80040EA0C0023FA02F34FEA4303CCE77FEA33
:1002E800625307D150EA01331EBF4FF0FE4040F47D
:1002F8004000704701F0004040F0FE4040F400002C
:10030800704700BF684620F007018D4601B5BDE87B
:10031800014085467047684620F007018D46FEE794
:1003280019491A4B5B1A9B0800229A4206D01848B2
:1003380050F8220041F822000132F6E7154B164A20
:10034800934203D0002243F8042BF8E7134A144CD5
:10035800D2F8883043F47003C2F88830D2F83432C7
:1003680023F04043C2F834320E4BE41AA41000259F
:100378001E46A54204D056F8253098470135F8E7BF
:1003880000F012F804F044BD000000201005002021
:1003980024530008100500200020002000ED00E094
:1003A80020530008FC5200080F49D1F8883043F464
:1003B8007003C1F888300D4B1A68002042F0010222
:1003C8001A6098601A6822F0847222F480321A60E7
:1003D800074A5A601A6822F480221A60D8604FF0DF
:1003E80000638B60704700BF00ED00E000380240FA
:1003F8001030002430B5184C184D636A23F480334C
:1004080063626B6885B023F001036B60144B019342
:1004180011238DF80830032301228DF80B3068462C
:1004280000238DF80F308DF80D308DF801308DF8E0
:100438000A308DF809308DF80C308DF800208DF8D1
:100448000E2000F041FF05236B60636A43F480339C
:10045800636205B030BD00BF00ED00E090ED00E044
:100468000000012030B5BFF34F8FBFF36F8F304BC3
:100478000022C3F85022BFF34F8FBFF36F8F596923
:1004880041F480215961BFF34F8FBFF34F8FBFF302
:100498006F8FC3F85022596941F400315961BFF395
:1004A8004F8FBFF36F8FC3F88420BFF34F8FD3F8FC
:1004B8008020C2F34E33C2F3C902590143F6E074F7
:1004C8000C4011461A4844EA817511F1FF31C0F811
:1004D8006052F7D213F1FF33EFD2BFF34F8FBFF360
:1004E8006F8F0023C0F88430BFF34F8FD0F880207F
:1004F800C2F34E33C2F3C902590143F6E0740C400B
:1005080011460B4844EA817511F1FF31C0F8605279
:10051800F7D213F1FF33EFD2BFF34F8F436943F4A0
:1005280080334361BFF34F8FBFF36F8F30BD00BF80
:1005380000ED00E010B592B0012306934FF480332C
:1005480007934FF480030D9319230E934FF4D87338
:1005580002240F9306A809230C941094119301F018
:1005680065FB00B1FEE700F09DF900B1FEE70F233F
:1005780001934FF4A0530390049301A84FF48053C0
:1005880007210294059301F029FD00B1FEE712B09E
:1005980010BD08B5FFF72EFFFFF764FF00F016F84F
:1005A800BDE80840FFF7C6BF10B5044601F040FE9D
:1005B8004FF47A73B0FBF3F000F070FE4FF0FF30A9
:1005C8002146002200F02EFE002010BD074A08B583
:1005D800136843F400731360032000F011FE0F202A
:1005E800FFF7E2FF02F0D0F8002008BD003C02400F
:1005F800014B1868704700BF2C0500200368DAB269
:1006080023F47F7323F003031821103AB2FBF1F2AD
:100618000449032A88BF0433895C03654165006D7A
:10062800704700BFE850000838B50446002831D0AC
:100638000168194A022380F835300B6880681A402F
:1006480063681843E36818432369184363691843C8
:10065800A3691843E3691843236A03431343626A8F
:10066800042A01BFE06A256B284303430B604B69EA
:10067800042A23F0070343EA020304BFA26A1343D0
:100688004B612046FFF7BAFF00200123E06484F89D
:10069800353038BD012038BD3F8010F030B590F8B6
:1006A8003440012C4FF0020423D080F83540046810
:1006B800012580F83450256825F001052560256856
:1006C80025F48025256063608368402B0BBFA260FA
:1006D800A160E160E260236843F01E032360636960
:1006E80043F080036361236843F001032360002023
:1006F80030BD204630BD026838B5136823F00103C9
:1007080013600446FFF774FF05462368186810F065
:10071800010010D0FFF76CFF401BB0F57A7FF4D9C9
:10072800E36C43F02003E3640320002384F83430AF
:1007380084F8350038BD012384F8340084F8353056
:1007480038BD000070B5056D416D2A6808238B40DF
:100758001342044615D0026811684E0711D5116876
:1007680021F004011160AB60C36C43F00103C36462
:10077800042380F83530002380F83430836C03B1CB
:100788009847616D454B2A688B40134216D0226802
:100798005169090612D5516921F080015161AB6098
:1007A800E36C43F00203E364042384F83530002348
:1007B80084F83430A36C0BB120469847616D384BF0
:1007C8002A688B40134216D0226811688E0712D50A
:1007D800116821F002011160AB60E36C43F004037F
:1007E800E364042384F83530002384F83430A36CA0
:1007F8000BB120469847616D2B6810228A401A4237
:100808001ED02368196808071AD51968490308D53E
:10081800AA601A6812030CD51B681E030CD5412365
:1008280008E01968C8055EBF196821F00801196059
:10083800AA60312384F83530236C0BB120469847E1
:10084800616D2B6820228A401A4226D023681968D5
:10085800C90622D519684E0309D5AA601A68150376
:1008680001D4636C14E01B68180316D50FE01968EF
:10087800C9055EBF196821F010011960AA60E36C10
:10088800E364112384F83530002384F83430E36BB3
:100898001BB12046BDE87040184770BD01008000BC
:1008A8000400800013B500230193194B1A6C42F021
:1008B80080521A641B6C174A03F080530193019B02
:1008C800136843F480331360FFF792FE0446114B1C
:1008D8005A68D20307D4FFF78BFE001BB0F57A7F66
:1008E800F5D9032012E01A6842F400321A60FFF7C3
:1008F8007FFE0446074B5B689B0306D4FFF778FE30
:10090800001BB0F57A7FF5D9EBE7002002B010BDE7
:10091800003802400070004030B590F83440012C97
:100928003AD0012480F83440046825682D0301D4A6
:10093800122503E025682D0302D5222580F83550BD
:10094800256825F001052560256845F48025256082
:100958002361039B63608368402B0BBFA260A16087
:10096800E160E260236843F010032360236843F0EA
:1009780008032360236843F004032360636943F09A
:1009880080036361236843F002032360236843F014
:1009980001032360002030BD022030BD03680AB97E
:1009A800D96000E01961002070470B680A6A012BC2
:1009B8002DE9F0474B68D1F808E0CF680E694D691A
:1009C8008C69D1F81CA0D1F82490016813D04EEAA4
:1009D800030E4EEA07073E4335432C4321F4FF48F4
:1009E80044EA0A010A4328F07F0842EA090343EA75
:1009F8000803036019E042EA0A024EEA030E21F4F2
:100A0800FF4C42EA09094EEA070742682CF07F0CBE
:100A18003E4349EA0C01354322F4FF4C2CF07F0C8D
:100A28002C4344EA0C04016044600020BDE8F087D0
:100A3800012A2DE9F043CA680E684D688C68D1F820
:100A480010904B69D1F818C01AD08768013E07F09A
:100A58007047013D3743013C47EA0516013A46EA2B
:100A6800042545EA023409F1FF32013B44EA024118
:100A780041EA03520CF1FF3342EA036383601FE04B
:100A8800C16806F1FF3E01F070486F1E4EEA080883
:100A9800661E48EA071E09F1FF354EEA062747EAAF
:100AA80005460CF1FF3546EA0565013B8668C560D9
:100AB800013A1B0506F0704643EA0232324382606F
:100AC8000020BDE8F08373B500230193044691E844
:100AD80009000343C86843EA40208B68013B40EAA9
:100AE80043130193019B23611546FFF781FD0646D9
:100AF800A06910F020000AD06B1CF9D00DB90320B2
:100B080005E0FFF775FD801BA842F1D9F7E702B0B1
:100B180070BD436943EA4101416100207047704755
:100B28002DE9F04104460E4690461D46FFF760FD4C
:100B38000746B8F1000F36D12268D3693340B34273
:100B48000ED0691CF9D07DB1FFF752FDC01BA84239
:100B5800F2D309E06B1C06D1D3693340B342F9D014
:100B68000020BDE8F081CDB923681A6822F0800220
:100B78001A601A6822F020021A601A6822F4807239
:100B88001A609A6822F001029A60012384F8693099
:100B9800002384F868300320BDE8F081FFF728FDC2
:100BA800C01BA842E0D22268D6E7000038B5044648
:100BB8000568A2682169C3692868114362690A4304
:100BC80042EA0301814A02400A432A606A68206AAD
:100BD80022F44051E2680A436A60AA68A16922F4D3
:100BE800306201430A43AA60794A954207D102F567
:100BF80094327849D2F8902002F0030209E0764A4C
:100C080095420CD102F5FA327449D2F8902002F0DC
:100C18000C02B3F5004F8A5C40F0B18072E0704A74
:100C280095420DD102F5F832D2F8902002F0300248
:100C3800102A00F082805DD9202A78D0302A0EE070
:100C4800684A95420DD102F5F632D2F8902002F0AA
:100C5800C002402A71D04DD9802A68D0C02A76D0E7
:100C680080E0614A95420FD102F5F432D2F8902023
:100C780002F44072B2F5807F5FD03BD9B2F5007FB5
:100C880055D0B2F5407FEAE7584A954212D102F5AD
:100C98009232D2F8902002F44062B2F5806F4CD0C4
:100CA80002D8002A3DD05DE0B2F5006F3FD0B2F522
:100CB800406FD4E74E4A95420FD102F5E032D2F8A0
:100CC800902002F44052B2F5805F36D012D9B2F5C6
:100CD800005F2CD0B2F5405FC1E7464A954241D14A
:100CE80002F5DE32D2F8902002F44042B2F5804F8D
:100CF80023D001D87AB135E0B2F5004F17D0B2F55C
:100D0800404FACE7082A30D8DFE802F0080E142F6D
:100D18001A2F2F2F2400B3F5004F39D101F0A2FA72
:100D280010E0B3F5004F36D101F0B2FA0AE0B3F59E
:100D3800004F33D16068304B0FE0B3F5004F33D12B
:100D480001F036FA40006368B0FBF3F307E0B3F54F
:100D5800004F31D160684FF48033B3FBF0F39BB29E
:100D6800002004E0B3F5004F2ED10120002323F02A
:100D78000F012268C3F342030B43D36038BD082A2E
:100D880022D8DFE802F005080B21112121211900E2
:100D980001F068FA0AE001F07BFA07E06268174B95
:100DA800B3FBF2F39BB20CE001F002FA6368B0FB0C
:100DB800F3F080B2E86005E062684FF40043B3FBEB
:100DC800F2F3EB60002038BD012038BDF369FFEF76
:100DD80000100140FD50000800440040F050000899
:100DE80000480040004C0040005000400014014002
:100DF80000780040007C00400048E8010024F4002E
:100E0800436ADA0710B541BF0468626822F400310A
:100E1800826A44BF0A4362609C0741BF04686268F3
:100E280022F48031C26A44BF0A436260590741BF55
:100E38000468626822F48021026B44BF0A4362603E
:100E48001A0741BF0468626822F40041426B44BF3C
:100E58000A436260DC0641BF0468A26822F480513C
:100E6800826B44BF0A43A260990641BF0468A26826
:100E780022F40051C26B44BF0A43A2605A0610D53F
:100E88000168046C4A6822F480122243B4F5801F7A
:100E98004A6001BF4A6822F4C004426C224308BF7A
:100EA8004A601B0641BF01684B6823F40022836C2B
:100EB80044BF13434B6010BD0022036810B5C266DF
:100EC8001B681907044604D423681B685B0714D5FC
:100ED80009E04FF400116FF07E43FFF721FE002870
:100EE800F2D0032010BD20464FF4800100226FF09D
:100EF8007E43FFF715FE0028F3D10123002084F874
:100F0800693084F8680010BD10B5044660B390F8E5
:100F1800693003F0FF021BB980F86820FFF7FFFD76
:100F28002268022384F86930136823F001031360F0
:100F38002046FFF73BFE012816D0636A13B120460E
:100F4800FFF75EFF23685A6822F490425A609A6855
:100F580022F02A029A601A6842F0010220461A60BA
:100F6800BDE81040FFF7A8BF012010BD2DE9F043F0
:100F780007684C68FD68D1F8189007F1840ED20113
:100F88000EEB0203C5F30B45586800F47040586037
:100F9800FE68086805EB040CC6F30B46451C35448F
:100FA80045EA0C455D60FD68CE68C5F30A0505EBAA
:100FB800060C9D6805F470459D60FE688F68C6F351
:100FC8000A067D1C354445EA0C459D601D690F697C
:100FD80025F007051D614FF0000C1F619E6991F80F
:100FE800315091F83280C3F818C091F8306046EA61
:100FF800096646EA052545EA08459D615D6925F0CB
:10100800FF055D614D695D61DD6925F4E06525F0E9
:101018000705DD610E6ACD693543DD619D6A4D6A5C
:10102800C3F828C09D624FB1012F09D0BD1E022D03
:1010380008D9072F0CBF0225012504E0042502E08A
:10104800032500E00225241A6C43E01C8C6ADE6A42
:10105800C96A6C4340EA044406F0E026DE62DC62BA
:10106800186B20F4FF6020F00700186319635EF81E
:10107800023043F001034EF80230BDE8F0837047B8
:1010880038B5044600286AD090F8A13003F0FF0272
:101098001BB980F8A020FFF7F2FF022384F8A130E3
:1010A80023689A6922F070429A61996962681143CB
:1010B800A2681143E268114322690A439A61996858
:1010C800284A0A409A609968A2690A43616942EA13
:1010D80001429A60D968234A0A40DA60D968226ACC
:1010E8000A43E16942EA0142DA6019691D4A0A4085
:1010F8001A611969A26A0A43616A42EA01421A61DD
:101108005969184A0A405A615969226B0A43E16AC7
:1011180042EA01425A61D96A94F8360094F83520B7
:1011280001F07F41D962D96A94F83450294341EAE1
:10113800022242EA0042DA625A6B42F004025A631F
:101148005A6B42F002025A639A6942F001029A61AC
:1011580000200123C4F8A40084F8A13038BD012080
:1011680038BD00BF00F800F0F8B590F8A030012BAA
:1011780006468C4696464FF002001DD0012786F899
:10118800A07086F8A10034240D4604FB02640FCD3C
:1011980038340FC40FCD0FC40FCD0FC42B68236094
:1011A800304661467246FFF7E1FE336800205F6211
:1011B80086F8A17086F8A000F8BD90F8A030012B41
:1011C80070B54FF00203044615D080F8A1303423DF
:1011D8005343C618012580F8A050F16403F1380183
:1011E8000144FFF7C3FE236800205D6284F8A15024
:1011F80084F8A00070BD184670BD90F8A100704733
:10120800074AD36823F4E0631B041B0C43F0BF6355
:1012180043F4003300F0070043EA0023D36070472B
:1012280000ED00E0154BDB68C3F3022370B5C3F192
:1012380007051C1D042D28BF0425062C8CBF033B65
:101248000023012404FA03F6AC40013C013E21408E
:1012580099403240002842EA01024FEA0212AFBF29
:1012680000F1604000F00F00054BD2B2A5BF00F5B9
:101278006140D2B21A5480F8002370BD00ED00E03E
:1012880014ED00E04109012300F01F00024A8340E9
:1012980042F82130704700BF00E100E00138B0F1AA
:1012A800807F3FBF064B074A5860F0213FBF82F856
:1012B800231000200722986034BF1A60012070476D
:1012C80010E000E000ED00E0114943788B600378FE
:1012D800DBB14368CB60C37A027B1B0643EA027327
:1012E80002781343827A43EAC243427B43EA824349
:1012F800827B43EA4243C27B43EA0243427A43EA9F
:101308000223027A43EA420300E0CB600B61704794
:1013180090ED00E003682DE9F34713F00106044659
:101328000BD0464A916821F400019160466B9168A0
:1013380031439160B6FA86F6760913F4002510D089
:101348003E49E56BD1F88C2022F440122A43B5F5CA
:10135800801FC1F88C2015BFB5FA85F500256D09E9
:101368000126D90210D53548216CD0F88C2022F4FA
:1013780040020A43B1F5800FC0F88C2003D0002941
:1013880008BF012500E0012613F0807F18BF012661
:101398009A0660D500230193284B1A6C42F08052BC
:1013A8001A641B6C264A03F080530193019B13684F
:1013B80043F480731360FFF71BF90746204B1B6843
:1013C800DB0506D4FFF714F9C01B6428F6D90320FF
:1013D80044E31A4B226B196F4A4012F4407F3AD00B
:1013E800196F1A6F42F480321A671A6F21F440702D
:1013F80022F480328F071A6718670FD4226B02F421
:101408004073B3F5407F0D4B1CD1996822F07040B2
:1014180020F4407021F4F811014316E0FFF7E8F8D2
:101428000746064B1B6F9807E8D4FFF7E1F841F22F
:101438008833C01B9842F4D9C9E700BF003802407E
:1014480000700040996821F4F8119960196FC2F38F
:101458000B020A431A672368D9060CD5774AD2F8D3
:101468008C1021F08071C2F88C10D2F88C00A16B1E
:101478000143C2F88C105A0441BF7048D0F890203C
:1014880022F44031626E44BF0A43C0F890201F0422
:1014980041BF6A48D0F8902022F44021A26E44BF90
:1014A8000A43C0F89020D80341BF6448D0F8902080
:1014B80022F44011E26E44BF0A43C0F89020990319
:1014C80041BF5E48D0F8902022F44001226F44BF0B
:1014D8000A43C0F890205A0641BF5848D0F89020D7
:1014E80022F00301626C44BF0A43C0F890201F0633
:1014F80041BF5248D0F8902022F00C01A26C44BFA2
:101508000A43C0F89020D80541BF4C48D0F8902035
:1015180022F03001E26C44BF0A43C0F890209905DC
:1015280041BF4648D0F8902022F0C001226D44BF48
:101538000A43C0F890205A0541BF4048D0F890208F
:1015480022F44071626D44BF0A43C0F890201F0521
:1015580041BF3A48D0F8902022F44061A26D44BFC0
:101568000A43C0F89020D80441BF3448D0F89020EE
:1015780022F44051E26D44BF0A43C0F89020990418
:1015880041BF2E48D0F8902022F44041226E44BF3B
:101598000A43C0F890205A0241BF2848D0F890204A
:1015A80022F08061A26F44BF0A43C0F890209F02D6
:1015B8000CD52248E16FD0F8902022F000620A434F
:1015C800B1F1006FC0F8902008BF012513F0080F93
:1015D80018BF0125580341BF1848D0F8902022F0C1
:1015E8004071626F44BF0A43C0F89020190241BF9E
:1015F8001248D0F8902022F08051D4F8802044BFBF
:101608000A43C0F89020012E06D0B3F1007F03D022
:10161800012D40F085811EE1084A136823F080639C
:101628001360FEF7E5FF0746044E33681A0107D535
:10163800FEF7DEFFC01B6428F6D9C8E60038024072
:101648002068C3073CD5636BD3BBD6F884204FF41E
:10165800403C9CFAACF84FF07061B8FA88F8D6F8BC
:10166800843091FAA1FE47F6C079BEFA8EFE99FA47
:10167800A9F9B9FA89F99CFAACFCBCFA8CFC91FA84
:10168800A1F14FF0E04AB1FA81F19AFAAAFAA768F3
:10169800BAFA8AFA07FA0AFA676802F4403207FACD
:1016A80009F922FA08F203F070634AEA090702FA14
:1016B8000CF223FA0EF33A438B401343C6F88430F6
:1016C800070303D5E36BB3F5801F05D0C60248D5E1
:1016D800236CB3F5800F44D1BB4E4FF4403CD6F891
:1016E80084209CFAACF84FF0E041B8FA88F8D6F8B4
:1016F800843091FAA1FE47F6C079BEFA8EFE99FAB7
:10170800A9F9B9FA89F99CFAACFC4FF0706ABCFAED
:101718008CFC9AFAAAFABAFA8AFA91FAA1F1E7685D
:10172800B1FA81F107FA0AFA676802F4403207FA57
:1017380009F922FA08F203F0E0434AEA090702FA33
:101748000CF223FA0EF33A438B401343C6F8843065
:10175800D6F88C30626A23F01F03013A1343C6F8A7
:101768008C30C1013BD5984E4FF0706CD6F8842070
:101778009CFAACF84FF0E041B8FA88F8D6F8843013
:1017880091FAA1FE47F6C079BEFA8EFE99FAA9F938
:101798004FF4403AB9FA89F99AFAAAFABAFA8AFADF
:1017A8009CFAACFCBCFA8CFC91FAA1F12769B1FA5D
:1017B80081F107FA0AFA676802F0706207FA09F914
:1017C80022FA08F203F0E0434AEA090702FA0CF2A7
:1017D80023FA0EF33A438B401343C6F88430820150
:1017E80026D547F6C07696FAA6F64FF44037B6FAED
:1017F80086F697FAA7F74FF07060B7FA87F790FA6E
:10180800A0F04FF0E041B0FA80F091FAA1F122691E
:10181800B1FA81F102FA07F36268B2401A43E36849
:1018280083401A43A3688B401343674AC2F8843045
:10183800654A136843F080631360FEF7D9FE0646D5
:10184800614B1B681B013FF5E3AEFEF7D1FE801B21
:101858006428F5D9BBE55C4A136823F0805313600C
:10186800FEF7C6FE0546584B1B689F005AD42168F0
:101878000E035DD4CD025ED4880200F1A7800A076A
:1018880041D5514D4FF07061D5F8883091FAA1F7E4
:101898004FF44030B7FA87F7D5F8882090FAA0FCC3
:1018A80047F6C07EBCFA8CFC9EFAAEFEBEFA8EFEEF
:1018B80090FAA0F0B0FA80F091FAA1F14FF0E04868
:1018C800B1FA81F198FAA8F8E669B8FA88F806FA40
:1018D80008F8666902F4403206FA0EF622FA0CF2AB
:1018E80003F0706348EA06068240FB4032438B40AF
:1018F8001343C5F88830D5F88C3023F44032E36AB6
:101908001343C5F88C30304A136843F08053136092
:10191800FEF76EFE04462C4B1B689B0040F1978037
:1019280000209BE0FEF764FE401B64289BD94EE52F
:10193800E36B1BB19EE7236C002B9DD1224D4FF426
:10194800403ED5F888209EFAAEF84FF0E040B8FA4D
:1019580088F8D5F8883090FAA0F747F6C07CB7FA2F
:1019680087F79CFAACFCBCFA8CFC9EFAAEFE4FF0F2
:101978007069BEFA8EFE99FAA9F9B9FA89F990FA4E
:10198800A0F0A669B0FA80F006FA09F9666902F4CF
:10199800403206FA0CFC22FA08F203F0E04349EA66
:1019A8000C0602FA0EF2FB40324383401343C5F89B
:1019B8008830D5F88C30A26A23F4F853013A43EA08
:1019C8000223C5F88C3057E700380240E36FB3F1C3
:1019D800006F7FF454AF234D4FF0706ED5F8882018
:1019E8009EFAAEF84FF0E040B8FA88F8D5F888309B
:1019F80090FAA0F747F6C07CB7FA87F79CFAACFCD8
:101A08004FF44039BCFA8CFC99FAA9F9B9FA89F96A
:101A18009EFAAEFEBEFA8EFE90FAA0F0266AB0FAE2
:101A280080F006FA09F9666902F0706206FA0CFCA1
:101A380022FA08F203F0E04349EA0C0602FA0EF231
:101A4800FB40324383401343C5F8883017E7FEF75D
:101A5800CFFD001B64287FF65EAFB8E402B0BDE896
:101A6800F08700BF0038024070470368DA6842F028
:101A78000102DA601A6842F001021A600020704719
:101A88002E4A0368904212D0B0F1804F0FD0A2F5D1
:101A98007C4290420BD002F58062904207D002F55A
:101AA8008062904203D002F57842904218D14A6889
:101AB80023F070031343214A904237D0B0F1804F8E
:101AC80034D01F4A904231D002F5806290422DD026
:101AD80002F58062904229D002F57842904225D0E2
:101AE800184A904222D002F5806290421ED002F538
:101AF800806290421AD0A2F59832904216D002F530
:101B08008062904212D002F5806290420ED003604B
:101B18008B68C3620B688362084B98420BD003F54D
:101B28008063984207D0012343617047CA6823F451
:101B380040731343EBE70B690363F4E700000140CC
:101B4800000400400040014010B5044680B190F800
:101B580039300BB9FFF788FF022384F83930206841
:101B6800211DFFF78DFF012384F83930002010BDB7
:101B7800012010BD10B50446002851D090F835302A
:101B88000BB900F0D9FC022384F835302368254AC4
:101B9800196860680A401A6019686269014311434C
:101BA800E268114322691143A2681143A2691143F3
:101BB800226A1143626A1143A26A1143E26A11431D
:101BC800226B102842EA01021A600BD1A27F617FC2
:101BD800120442EA0122217F0A43E17F42EA0162BC
:101BE80011498A61DA6842F01002DA60DA6842F074
:101BF8000802DA60DA6842F00102DA60DA6842F074
:101C08000402DA60DA6842F00202DA601A6842F422
:101C180080421A6000200123E06484F8353010BD4A
:101C2800012010BD07F0E0FF00000550036873B500
:101C3800DE07044603D423689D0770D4C2E0A44B92
:101C48009A6802F00C02042A07D09A6802F00C0283
:101C5800082A0BD15B68580208D59D4B1B6899036D
:101C6800E9D56368002BE6D10120B3E1984B1A68E7
:101C780022F480321A601A6822F480221A601A68E4
:101C880022F480321A60FEF7B3FC0546904B1A68BE
:101C9800920307D5FEF7ACFC401BB0F5FA7FF5D9E7
:101CA800032097E11A6822F480321A606268B2F55C
:101CB800803F03D11A6822F4802205E0B2F5A02FF4
:101CC80008D11A6842F480221A601A6842F48032F5
:101CD8001A6008E0196821F480211960196821F454
:101CE800803119606AB1FEF783FC0546784B1B68A2
:101CF8009E03A0D4FEF77CFC401BB0F5FA7FF5D913
:101D0800CEE7FEF775FC0546714B1B68980392D524
:101D1800FEF76EFC401BB0F5FA7FF5D9C0E76C4BB7
:101D28009A6812F00C0F07D09A6802F00C02082A81
:101D380016D15B68590213D4654B1A68920702D50D
:101D4800E268012A90D11968F82090FAA0F0226977
:101D5800B0FA80F021F0F80182400A431A6031E0BD
:101D6800E2685B4BEAB11A6842F001021A60FEF7BA
:101D78003FFC0546564803689E0705D4FEF738FC25
:101D8800401B6428F6D98BE70268F82191FAA1F183
:101D98002369B1FA81F122F0F8028B401343036002
:101DA80010E01A6822F001021A60FEF721FC0546CD
:101DB800474B1B68990705D5FEF71AFC401B64289A
:101DC800F6D96DE723681A0703D423685B0767D53C
:101DD80024E062693E4B82B15A6F42F001025A67B1
:101DE800FEF706FC05463A4B5B6F9E07EDD4FEF7FF
:101DF800FFFB401B6428F6D952E75A6F22F0010214
:101E08005A67FEF7F5FB0546314B5B6F9807DCD543
:101E1800FEF7EEFB401B6428F6D941E70023019347
:101E28002B4B1A6C42F080521A641B6C294A03F03F
:101E380080530193019B136843F480731360FEF78A
:101E4800D7FB0546234B1B68D9052DD5204B1A6FA8
:101E580022F001021A671A6F22F004021A671A6F39
:101E680022F001021A67FEF7C3FB0546184B1A6FEA
:101E780092071FD41A6F22F001021A67A268012A7A
:101E880020D11A6F22F004021A671A6F42F0010279
:101E98001A67FEF7ADFB05460D4B1B6F9E0725D550
:101EA800A169002939D17AE0FEF7A2FB401B64281A
:101EB800C8D9F5E6FEF79CFB41F28833401B9842EF
:101EC800D4D9EDE6052A07D11A6F42F00402DBE700
:101ED8000038024000700040196F21F004011967B2
:101EE800196F21F00101196742B1D2E7FEF780FBB3
:101EF80041F28833401B9842CED9D1E6FEF778FBF1
:101F08000546354B1B6F9807CAD5FEF771FB41F2A2
:101F18008833401B9842F4D9C2E62F4B9A6802F0E6
:101F28000C02082A3FF4A0AE1A68022922F0807237
:101F38001A6042D1FEF75CFB054627480368990101
:101F48002FD447F6C07696FAA6F64FF44035B6FA7F
:101F580086F695FAA5F54FF07061B5FA85F591FA10
:101F6800A1F1E369226AB1FA81F11A43636A42F086
:101F78000052B3401A43A36A5B08013BAB401343CA
:101F8800E26A8A4013434360036843F08073036046
:101F9800FEF72EFB0446104B1B689A0107D500205C
:101FA80018E0FEF725FB401B6428C6D978E6FEF743
:101FB8001FFB001B6428EED972E6FEF719FB0446E6
:101FC800054B1B689B01EAD5FEF712FB001B642832
:101FD800F6D965E602B070BD00380240724A13684F
:101FE80003F00F03994270B504460D466BD9136888
:101FF80023F00F030B431360136803F00F038B42A6
:1020080001D0012070BD01688B0741BF6748836814
:1020180023F0F002A36844BF13438360CE070BD4B8
:1020280021684D0740F1AF806048836823F4E0528F
:10203800E36813438360A6E062685C4B012A196871
:1020480002D111F4003F06E0022A02D111F0007F0C
:1020580001E011F0020FD4D0996821F003010A437E
:102068009A60FEF7C5FA6368012B05460ED14F4BFF
:102078009B6803F00C03042BD2D0FEF7B9FA41F2A7
:102088008833401B9842F2D9032070BD022B14D12B
:10209800464B9B6803F00C03082BC1D0FEF7A8FA47
:1020A80041F28833401B9842F2D9EDE7FEF7A0FAD7
:1020B80041F28833401B9842E6D83C4B9B6813F0AA
:1020C8000C0FF3D1ACE70168880741BF3748836834
:1020D80023F0F002A36844BF13438360CA070BD4FC
:1020E800314A136823F00F032B431360136803F07E
:1020F8000F03AB4285D193E762682C4B012A19681C
:1021080002D111F4003F06E0022A02D111F0007F4B
:1021180001E011F0020F3FF474AF996821F0030158
:102128000A439A60FEF764FA6368012B06460DD1EC
:102138001E4B9B6803F00C03042BD1D0FEF758FA12
:1021480041F28833801B9842F2D99DE7022B14D1C3
:10215800164B9B6803F00C03082BC1D0FEF748FA16
:1021680041F28833801B9842F2D98DE7FEF740FA96
:1021780041F28833801B984286D80C4B9B6813F039
:102188000C0FF3D1ACE70B0741BF084A21699368EC
:1021980023F4604344BF43EAC10393600F20FEF772
:1021A80003FA002070BD00BF003C02400038024026
:1021B80010B51C4CA36803F00C03042B2ED0082B7D
:1021C8002ED1626802F03F03626847F6C07112F4CC
:1021D800800F626891FAA1F147F6C07000EA020028
:1021E80008BF114AB1FA81F120FA01F00EBFB2FB23
:1021F800F3F20E49B1FBF3F202FB00F3094A50680F
:102208004FF4403292FAA2F200F44030B2FA82F26D
:10221800D04001304000B3FBF0F010BD034810BDC2
:10222800014810BD003802400024F40040787D01C8
:1022380008B5FFF7BDFF084BF0229B6892FAA2F29F
:1022480003F0F003B2FA82F2D340044AD35CD840D8
:10225800034B186008BD00BF003802400151000858
:102268000400002008B5FFF7E3FF074B4FF4E052E6
:102278009B6892FAA2F203F4E053B2FA82F2D340D6
:10228800024AD35CD84008BD00380240015100081A
:1022980008B5FFF7CDFF074B4FF460429B6892FAF1
:1022A800A2F203F46043B2FA82F2D340024AD35C4A
:1022B800D84008BD0038024001510008704738B5C1
:1022C8000D460446C8B190F82C3003F0FF021BB944
:1022D80080F82D20FFF7F2FF022384F82C30211D0F
:1022E8002068FEF762FB206862682946FEF7A0FBBB
:1022F800012384F82C30002038BD012038BD38B5C2
:10230800044690F82C00C0B202280D460DD00223D6
:1023180084F82C302068FEF7D6FB2B68022B0CBF04
:102328000523012384F82C30002038BD10B504465D
:1023380090F82C00C0B2022809D0022384F82C306F
:102348002068FEF7E6FB012384F82C30002010BD3E
:102358002DE9F3410F6800220123934003EA0705A2
:102368009D4240F0D8804C6824F0100CBCF1020F5C
:1023780014D14FEAD20E00EB8E0E02F00706DEF8FB
:102388002030B6004FF00F0808FA06F823EA0808CC
:102398000B69B34048EA0303CEF820304FEA420EF7
:1023A8000323066803FA0EF3DB4303EA060804F086
:1023B800030606FA0EF60CF1FF3C48EA0606BCF1E5
:1023C800010F066011D8866803EA060CCE6806FA83
:1023D8000EF64CEA06068660466826EA050CC4F343
:1023E800001696404CEA06064660C66803EA060CE4
:1023F8008B6803FA0EF64CEA0603C360E30040F16B
:102408008A80484E00230193D6F844E04EF4804E6B
:10241800C6F844E0766C06F480460196019E22F0E8
:10242800030606F1804606F59C3602F0030CD6F842
:1024380008804FEA8C0C4FF00F0E0EFA0CFE28EABB
:102448000E0EDFF8E880404537D003F1804303F5EE
:102458000133984222D003F58063984220D003F5D7
:10246800806398421ED003F5806398421CD003F520
:10247800806398421AD003F58063984218D003F518
:102488008063984216D003F58063984214D003F510
:10249800806398420CBF09230A230EE001230CE055
:1024A80002230AE0032308E0042306E0052304E0EE
:1024B800062302E0072300E0082303FA0CF343EAAB
:1024C8000E03DFF864E0B360DEF80030EE4314F486
:1024D800803F14BF2B433340CEF80030DEF8043081
:1024E800DFF844E014F4003F14BF2B433340CEF828
:1024F8000430DEF8083014F4801F14BF2B43334037
:10250800CEF80830DEF80C30A40254BF06EA030502
:102518001D43054BDD600132102A7FF41DAF02B068
:10252800BDE8F08100380240003C01400000024054
:1025380002B909048161704770470000F7B5044685
:1025480090F83400012816464FF0020041D0256863
:1025580084F835002868DFF888C020F002004FF0C2
:10256800010E84F834E0286028680143A06C2960D3
:10257800B3F5803F1849C163C0F848C004D205F1DB
:102588002801FEF78BF81EE04164C4F838E0626465
:10259800E363E36BB3F5803F06D3E36B5B08E36368
:1025A800A36B5B00A363F4E7A36B023BA363A36B7A
:1025B8002364E36BE26B009205F12801324606EBD7
:1025C8008303FEF7A9F9054A136843F00103136072
:1025D800002003B0F0BD00BF03260008000005502E
:1025E800EF250008704708B5806B012380F8353067
:1025F800FFF7F8FF08BD7047704710B5846B0123DB
:1026080084F83530A36BA06CCBB103681968A26B52
:1026180012F0010206D1090304D5DB68E16B03EB74
:10262800C10107E01A6812031AD41B69E16B012281
:1026380003EBC101FEF7B2F9A36B013B0FE003689E
:102648001A68110302D5626CDA6009E01A6812038D
:1026580006D4E16B626C02EB81021A61236CA363FE
:1026680023689B68DB0705D5002384F834302046AF
:1026780000F0F4FD10BD03689A68520710B50446CF
:1026880017D51A69500714D5DA68A06C22F004022D
:10269800DA6004225A61E36C43F00203E364002326
:1026A80084F8352084F83430FEF725F82046FFF703
:1026B80099FF23689A68910718D51A69920715D562
:1026C800DA68A06C22F00202DA6002225A61E36C36
:1026D80043F00103E364042384F83530002384F8CD
:1026E8003430FEF708F82046FFF77CFF23689A6825
:1026F800D0060AD51A69D10607D510225A610023D7
:1027080084F834302046FFF776FF23689A6812076A
:102718000ED51A6910070BD5DA6822F00802DA60BC
:1027280008225A61002384F834302046FFF764FFFA
:1027380023689A68D1070ED51A69D2070BD5DA68CB
:1027480022F00102DA6001225A61002384F8343051
:10275800204600F083FD10BD90F83430012B4FF077
:1027680002030CD0074A80F83530136823F00403BD
:102778001360012380F83530002380F83430184680
:10278800704700BF00000550704770477047C3622C
:10279800009B0363019B4363029B416282628363E4
:1027A8007047CA12CB08D200002062F3070003F07A
:1027B800FC03C90063F30F20C9B261F3174082B06C
:1027C80002B07047C36A1A44836A13B51944436B4D
:1027D80003FB01214908436A33F82110FFF7E1FFA1
:1027E800C0F3072353FA80F3C0F3074018440323C8
:1027F80090FBF3F002B010BD836B0A46B1FBF3F116
:1028080003FB1122FFF7DEBF2DE9F0410025064644
:102818000F462C46B36B5B439D4209D2294630468E
:1028280057F82580FFF7E8FF013500FB0844F1E77A
:10283800FF2CD4BF24EAE474FF242046BDE8F081CD
:1028480070474FF4F07070474FF4887070472DE967
:10285800F04F91B00024D0F8C0200C9200F1180875
:102868004FF4F0764FF48875022307464FF0FF0BBC
:102878004FF4C06A4FF0070903A922464046079360
:1028880001930394049605940695CDF820B0099415
:102898008DF83C408DF83D408DF83E40CDF828A09D
:1028A800CDF82C900D960E95FEF75EFC019B0793D4
:1028B800D7F8C030039403F57F33404603A90122BB
:1028C8000496059406950C93CDF820B009948DF8DC
:1028D8003C408DF83D408DF83E40CDF828A0CDF81D
:1028E8002C900D960E95FEF73FFC11B0BDE8F08FC9
:1028F800D0F8C03003F57F3303600123436070478D
:102908000268002399520233B3F57F3FFAD170472A
:102918004268183002B10122FEF74FBC40F2DF13C3
:10292800994228BF194640F20F139A4228BF1A4607
:102938004FF4F073C181028203FB0212016801EBBC
:1029480042024261704743691980037B012B0FD112
:10295800C38901339BB2B3F5F07F19D3038A0133DE
:102968009BB20022B3F5887FC28107D3028212E0AE
:10297800038A01339BB2B3F5887F01D203820AE050
:10298800C38901339BB20022B3F5F07F028201D2E2
:10299800C38100E0C281C389018A4FF4F07202FB4F
:1029A8000132036803EB42034361704770B59DF839
:1029B80010409DF81460A410640144EAD604DB08B2
:1029C800054644EAC32489B292B2FFF7A7FF284616
:1029D8002146BDE87040FFF7B6BF38B545680446E4
:1029E8003DB9FFF785FF20462946BDE83840FFF787
:1029F8008FBFFF21FFF78CFFD4F8C030236000237E
:102A0800636038BD054808230360C023436105237C
:102A1800C3614FF48033C362FEF77CBC30050020ED
:102A2800F0B58FB04E4B4F4E4F4800220092596C74
:102A380041F080615964596C01F0806100910099FE
:102A48000192196B41F400011963196B01F400013B
:102A5800019101990292196B41F010011963196BE8
:102A680001F01001029102990392196B41F04001A3
:102A78001963196B01F04001039103990492196BD2
:102A880041F480711963196B01F480710491049900
:102A98000592196B41F400711963196B01F4007107
:102AA800059105990692196B41F480611963196BB8
:102AB80001F48061069106990792196B41F48071BF
:102AC8001963196B01F48071079107990892196BC2
:102AD80041F4806119631B6B0B9203F480630893C4
:102AE80002240E25089B0A94102309A909930C9423
:102AF8000D954FF48057FFF72BFC092309A91B48B4
:102B08000A940D930997FFF723FC4FF46743304667
:102B180009A909930A940D95FFF71AFC4EF6FF735D
:102B280009A9134809930A940D95FFF711FC0A9413
:102B3800104C0D95F723204609A909930125FFF7A5
:102B480007FC304609A909970A95FFF701FC0823F5
:102B5800204609A909930A95FFF7FAFB0FB0F0BDC3
:102B680000380240002002400010024000180240D5
:102B7800002402400028024038B52823C3620923F4
:102B88000363352343630B23836340F21B130364FE
:102B980040F21523C36340F21D13836440F23523CA
:102BA80004464364FFF72EFF4FF4F073A3674FF416
:102BB8008873E3672546002384F84C3084F84D3049
:102BC80084F84E30E36123626362A3620C4B45F8DC
:102BD800183F2846FEF711FB10B92046FFF720FFE3
:102BE8002846FEF74DFA07484FF480510122FFF7B7
:102BF8009FFC054808210122BDE83840FFF798BC32
:102C080000680140002002400028024038B5044610
:102C18000123C0F8C0100373FFF7AEFFD4F8C0302B
:102C2800002584E828002046E58125826561A560A5
:102C3800FFF70DFED4F8C030294684E82800204666
:102C4800FFF75EFE2046FFF753FE20462946FFF7B2
:102C580057FED4F8C03084E8280038BD024803493C
:102C6800034A02F0A7B900BFB405002049280008AC
:102C7800000000207047036E03EB810101661846CF
:102C8800704700002DE9F7430023012200F15006A8
:102C980089461021026541658265C36531464FF654
:102CA800FF7204460193FFF72AFB1B4D013D01D03B
:102CB80000BFFBE7102702234FF0010823653146C8
:102CC8006765C4F85880E56520464FF6FF72FFF740
:102CD80016FB032323650823A36531466765E5656D
:102CE80020464FF6FF72FFF70AFB4FF40873019373
:102CF80004232365019BE36531464FF6FF72676540
:102D0800C4F858802046FFF7FAFA20464946FFF7EC
:102D18000DFB03B0BDE8F083C14B030010B58CB0C8
:102D28003D4B3E4800220092996B41F001019963A6
:102D3800996B01F00101009100990192196B41F022
:102D480004011963196B01F00401019101990292C0
:102D5800196B41F008011963196B01F00801029120
:102D680002990392196B41F010011963196B01F074
:102D78001001039103990492196B41F02001196322
:102D8800196B01F02001049104990592196B41F027
:102D980040011963196B01F04001059105990692EC
:102DA8001A6B42F080021A631B6B03F080030693D0
:102DB800069B02230CAC08930A930C230B9308235D
:102DC80044F8143D012221460992FFF7C1FA4CF25A
:102DD8000B73214612480793FFF7BAFA4FF683732D
:102DE800214610480793FFF7B3FA4FF63F032146F1
:102DF8000D480793FFF7ACFA48F2331321460B4806
:102E08000793FFF7A5FA2823094807932146FFF7F8
:102E18009FFA0CB010BD00BF003802400008024005
:102E2800000C02400010024000140240001802404A
:102E3800001C0240042210B5C263C2601022026165
:102E480040224261134B03604FF480720223826177
:102E58004FF400620721436343648364C3640262DE
:102E680000234FF480520446816301644360836009
:102E7800C36142628362FFF751FF04F134012046C7
:102E8800FFF71DFA204640F20361BDE81040FFF746
:102E9800F9BE00BF400100A038B50D460446FFF753
:102EA800C9FF1648C5B1164B1B225043373043F8AB
:102EB800040F144A9342F7D1104B4FF040420120BF
:102EC8001B214B4352F8041B37338B4218BF002099
:102ED80012F17E5FF4D106E04FF0404318601B68A2
:102EE8001B1A58425841064B002243F8042F054A42
:102EF8009342F9D14FF04043236638BD3412FECADD
:102F0800FCFFFFBFFCFF7FC002480349034A02F0F1
:102F180051B800BF780600207D2C00080000002072
:102F2800142300BF013B13F0FF03FAD17047B1B976
:102F380003689A6822F440529A609A6842F44052B0
:102F48009A605A6822F040025A605A685A601A68B1
:102F580022F440521A601A6842F4805243E0012970
:102F68000ED103689A6822F440529A609A6842F433
:102F780040529A601A6822F440521A601A6832E085
:102F8800022913D103689A6822F440529A609A6819
:102F980042F440529A601A6822F440521A601A6841
:102FA8001A60DA6842F48052DA607047032910D157
:102FB80003689A6822F440529A609A6842F4405230
:102FC8009A601A6822F440521A601A6842F4005251
:102FD80009E0042908D103681A6822F440521A60EB
:102FE8001A6842F440521A607047B1B903689A6887
:102FF80022F440429A609A6842F440429A605A68C1
:1030080022F080025A605A685A601A6822F44042D4
:103018001A601A6842F4804243E001290ED103681D
:103028009A6822F440429A609A6842F440429A6050
:103038001A6822F440421A601A6832E0022913D151
:1030480003689A6822F440429A609A6842F44042BF
:103058009A601A6822F440421A601A681A60DA689C
:1030680042F48042DA607047032910D103689A68F5
:1030780022F440429A609A6842F440429A601A6880
:1030880022F440421A601A6842F4004209E0042916
:1030980008D103681A6822F440421A601A6842F498
:1030A80040421A60704738B5051D0446012128467C
:1030B800FFF73DFF20460121FFF797FF2846012132
:1030C800FFF735FF20460021FFF78FFF2846002134
:1030D800FFF72DFF20460121FFF787FFBDE83840A5
:1030E800FFF71EBF38B5051D044600212846FFF727
:1030F8001EFF20460021FFF778FF28460121FFF731
:1031080016FF20460021FFF770FF28460121FFF730
:103118000EFF20460121FFF768FFBDE83840FFF7A2
:10312800FFBEF8B506460F460824351D002128467F
:10313800FFF7FDFEFFF7F4FE3B064CBF012100211F
:103148003046FFF752FF013CFFF7EAFE284601210F
:10315800FFF7EDFE7F00FFF7E3FE14F0FF04FFB278
:10316800E3D128462146FFF7E2FEFFF7D9FE3046B5
:103178000121FFF73AFFFFF7D3FE28460121FFF7A9
:10318800D6FEFFF7CDFE33681E6928462146FFF7B5
:10319800CEFEFFF7C5FE86F08000C0F3C010F8BD74
:1031A8002DE9F04106468846371D0121FFF71DFF2E
:1031B80038460021FFF7BBFEFFF7B2FE08250024C2
:1031C80038460121FFF7B3FEFFF7AAFE33681B69F3
:1031D80064001B0638464FF00001E4B205F1FF35E4
:1031E80048BF44F00104FFF7A2FEFFF799FE15F06F
:1031F800FF05E5D13046B8F1000F01D0294600E0BF
:103208000121FFF7F2FEFFF78BFE38460121FFF799
:103218008EFEFFF785FE38460021FFF788FEFFF790
:103228007FFE30460121FFF7E0FEFFF779FE2046DA
:10323800BDE8F081642300BF013B13F0FF03FAD11E
:10324800704700000148FDF77DBA00BFE006002086
:103258000148FFF710BA00BF38070020014B0122D0
:103268001A607047DC060020704711F1FF3101D366
:1032780000BFFAE7704700002DE9F0418CB05D4BC4
:103288005D48002400945A6B42F001025A635A6B5D
:1032980002F001020092009A01941A6B42F4800233
:1032A8001A631A6B02F480020192019A02941A6B53
:1032B80042F001021A631A6B02F001020292029AAA
:1032C80003941A6B42F008021A631A6B02F00802A0
:1032D8000392039A04941A6B42F010021A631A6B51
:1032E80002F010020492049A05941A6B42F040020C
:1032F8001A631A6B02F040020592059A06941A6B3B
:1033080042F080021A631B6B03F0800306930325C7
:103318004FF0020801270D26069B0A95502307A99E
:103328000793CDF8208009970B96FFF711F808232B
:1033380007A9324807930A95CDF8208009970B967C
:10334800FFF706F8602307A92D4807930A95CDF8DB
:10335800208009970B96FEF7FBFF4FF4007307A92F
:10336800284807930A95CDF8208009970B96FEF711
:10337800EFFF4FF4BC4307A9234807930A95CDF8FC
:10338800208009970B96FEF7E3FF204B4FF0007261
:103398005A604FF480621A614FF480525A614FF4B8
:1033A80080429A614FF48072DA614FF400321A62F7
:1033B8009D62174A174D1A60052122464E209C60CF
:1033C800DC605C62DC621C63AB649D63FDF72AFF12
:1033D8004E20FDF757FF052122463920FDF722FF31
:1033E8003920FDF74FFFA86CFDF71EF90CB0BDE8BA
:1033F800F08100BF0038024000000240000C02408B
:103408000010024000180240001C0240E0060020A4
:10341800286402403807002010B50369C4680448CE
:103428000A4663430021BDE81040FFF787B800BF94
:1034380038070020C0687047006970478CB0454B5A
:1034480000220192196B41F001011963196B01F017
:103458000101019101990292196B41F0020119636E
:10346800196B01F00201029102990392196B41F064
:1034780004011963196B01F0040103910399049283
:10348800196B41F008011963196B01F008010491E7
:1034980004990592196B41F010011963196B01F039
:1034A8001001059105990692196B41F020011963E5
:1034B800196B01F02001069106990792196B41F0EA
:1034C80040011963196B01F04001079107990892AF
:1034D800196B41F080011963196B01F080010891A3
:1034E80008990992196B41F480711963196B01F4F9
:1034F8008071099109990A92196B41F40071196355
:10350800196B01F400710A910A990B921A6B42F433
:1035180080621A631B6B03F480630B930B9B0E4B47
:1035280003609A6822F040629A609A6842F04062AA
:103538009A605A6822F400525A605A685A601A68A7
:1035480022F040621A601A6842F080621A600CB079
:10355800704700BF00380240001C0240B1B9036840
:103568009A6822F440229A609A6842F440229A604B
:103578005A6822F400725A605A685A601A6822F42B
:1035880040221A601A6842F4802243E001290ED1D1
:1035980003689A6822F440229A609A6842F44022AA
:1035A8009A601A6822F440221A601A6832E00229E6
:1035B80013D103689A6822F440229A609A6842F408
:1035C80040229A601A6822F440221A601A681A6027
:1035D800DA6842F48022DA607047032910D1036860
:1035E8009A6822F440229A609A6842F440229A60CB
:1035F8001A6822F440221A601A6842F4002209E08C
:10360800042908D103681A6822F440221A601A684B
:1036180042F440221A60704710B58CB03C4B00222F
:103628000192196B41F001011963196B01F0010155
:10363800019101990292196B41F002011963196B0A
:1036480001F00201029102990392196B41F0040101
:103658001963196B01F00401039103990492196B22
:1036680041F008011963196B01F0080104910499EC
:103678000592196B41F010011963196B01F01001E3
:10368800059105990692196B41F020011963196B90
:1036980001F02001069106990792196B41F040014B
:1036A8001963196B01F04001079107990892196B8A
:1036B80041F080011963196B01F0800108910899A4
:1036C8000992196B41F480711963196B01F48071C7
:1036D800099109990A92196B41F400711963196BE0
:1036E80001F400710A910A990B921A6B42F48062F4
:1036F8001A631B6B03F480630B930B9B054B0360EE
:1037080001210446FFF72AFF20460CB010BD00BF78
:103718000038024000040240B1B903689A6822F4F4
:1037280040329A609A6842F440329A605A6822F4A9
:1037380080725A605A685A601A6822F440321A60D5
:103748001A6842F4803243E001290ED103689A686E
:1037580022F440329A609A6842F440329A601A68B9
:1037680022F440321A601A6832E0022913D1036841
:103778009A6822F440329A609A6842F440329A6019
:103788001A6822F440321A601A681A60DA6842F439
:103798008032DA607047032910D103689A6822F4EE
:1037A80040329A609A6842F440329A601A6822F469
:1037B80040321A601A6842F4003209E0042908D13C
:1037C80003681A6822F440321A601A6842F44032D8
:1037D8001A60704710B58CB03C4B00220192196BEF
:1037E80041F001011963196B01F00101019101997F
:1037F8000292196B41F002011963196B01F0020181
:10380800029102990392196B41F004011963196B33
:1038180001F00401039103990492196B41F0080126
:103828001963196B01F00801049104990592196B49
:1038380041F010011963196B01F010010591059908
:103848000692196B41F020011963196B01F02001F0
:10385800069106990792196B41F040011963196B9B
:1038680001F04001079107990892196B41F0800116
:103878001963196B01F08001089108990992196B75
:1038880041F480711963196B01F4807109910999E8
:103898000A92196B41F400711963196B01F40071F4
:1038A8000A910A990B921A6B42F480621A631B6B95
:1038B80003F480630B930B9B054B036001210446C3
:1038C800FFF72AFF20460CB010BD00BF00380240A9
:1038D8000004024038B50446251DFFF7AFFD284611
:1038E800FFF79AFE04F10800FFF774FF6268536956
:1038F80023F400735361A268536923F480735361FE
:10390800204638BD38B5051D044601212846FFF775
:1039180003FF20460121FFF721FE28460121FFF77A
:10392800FBFE20460021FFF719FE28460021FFF77D
:10393800F3FE20460121FFF711FEBDE83840FFF7EE
:1039480079BC38B5051D044600212846FFF7E4FE7A
:1039580020460021FFF702FE28460121FFF7DCFE82
:1039680020460021FFF7FAFD28460121FFF7D4FE83
:1039780020460121FFF7F2FDBDE83840FFF75ABCA9
:10398800F8B506460F460824351D00212846FFF7DE
:10399800C3FEFFF74FFC3B064CBF01210021304618
:1039A800FFF7DCFD013CFFF745FC28460121FFF746
:1039B800B3FE7F00FFF73EFC14F0FF04FFB2E3D133
:1039C80028462146FFF7A8FEFFF734FC30460121C0
:1039D800FFF7C4FDFFF72EFC28460121FFF79CFEE8
:1039E800FFF728FC33681E6928462146FFF794FE36
:1039F800FFF720FC86F40070C0F34020F8BDF8B54E
:103A080004460F4616461D46FFF77CFF39462046FA
:103A1800FFF7B6FF31462046FFF7B2FF204629469A
:103A2800FFF7AEFF2046FFF78CFFF8BD70B5051D08
:103A380004466021284612228023FFF7E0FF204633
:103A480044F62061FFF711FC0024064B1E191A5D8D
:103A58007378284660210234FFF7D1FFB4F5967FCA
:103A6800F3D170BD115100084E4B02682DE9F341A6
:103A780000251D605369C560064643F4005305617F
:103A880049495361FFF7F1FB32684749536923F409
:103A980000535361371D3046FFF7E7FB3846FFF701
:103AA80031FF60213846FFF76BFF0A213846FFF7E0
:103AB80067FF3846FFF726FF61213846FFF760FFAA
:103AC80007F1040838460121FFF748FD404629461A
:103AD800FFF722FEFFF7AEFB082440460121FFF75F
:103AE8001BFEFFF7A7FB73681B696D009B0540462B
:103AF8004FF00001EDB204F1FF3448BF45F0010575
:103B0800FFF70AFEFFF796FB14F0FF04E5D13846ED
:103B18000121FFF723FDFFF78DFB40460121FFF749
:103B2800FBFDFFF787FB40462146FFF7F5FDFFF752
:103B380081FB38460121FFF711FDFFF77BFB384673
:103B4800FFF7FFFE962D27D1184D01948023EB60D7
:103B58002023AB60164B2B60164B6C612C616C609C
:103B6800AC615A6B42F001025A635B6B03F00103CC
:103B780001933046019BFFF77FFB2846FDF7FAFFCC
:103B8800A023F360782333613046FFF74FFF2846C0
:103B9800FEF7E2FD204601E04FF0FF3002B0BDE83D
:103BA800F08100BFDC0600208096980038070020CE
:103BB80000000550003802407047704700687047A1
:103BC800F8B504460F4616461D46FFF76CFA394607
:103BD8002046FFF7A6FA31462046FFF7A2FA20460C
:103BE8002946FFF79EFA2046FFF77CFAF8BDF8B59C
:103BF80004460E461D461746FFF755FA314620463D
:103C0800FFF78FFA39462046FFF78BFA2046FFF771
:103C18004AFA46F001012046FFF783FA069BEE18A0
:103C2800B542204605D00121FFF7BAFA05F8010B85
:103C3800F6E7FFF757FAF8BD13B50B2204465221F1
:103C480013480123FFF7BCFF0E23009352211422CF
:103C5800231D0F48FFF7CBFFE37BA27B43EA022239
:103C6800A2F1150141F6EA7399420ED823686A2138
:103C78004A4303EB4303A2F56262642192FBF1F22B
:103C88001344042293FBF2F32360206802B010BDB2
:103C9800F01F002070B504460D461646FFF703FADC
:103CA80029462046FFF73DFA31462046FFF739FA04
:103CB8002046FFF7F8F945F001012046FFF731FAF1
:103CC80000212046FFF76CFA05462046FFF70AFA5E
:103CD800284670BD70B500240C70494801230D4674
:103CE800164652218022FFF76BFF45485221FF22DA
:103CF8000123FFF765FF2246234641485221FFF77B
:103D08005FFF06233E485221FF22FFF759FF522149
:103D180083223B48FFF7BEFF40F004035221384896
:103D28008322DBB2FFF74CFF35485221FF220723DD
:103D3800FFF746FF3248522181220123FFF740FF57
:103D48002F48522180220123FFF73AFF2C485221A5
:103D580094226B23FFF734FF23462948294C52212C
:103D68008322FFF72DFF264852218322FFF792FF77
:103D780018B9013CF7D1204670BD012320485221D3
:103D88008322FFF71DFF522192221D48FFF782FF71
:103D980000F07F03C0F3C0102B70522130708122D5
:103DA80017480023FFF70CFF062315485221FF226E
:103DB800FFF706FF522183221148FFF76BFF5221BC
:103DC800034683220E48FFF7FBFE0D485221FF22CF
:103DD8000123FFF7F5FE0A48522100220123FFF7CD
:103DE800EFFE07485221FF220023FFF7E9FE0448AF
:103DF800522180220023FFF7E3FE012070BD00BF9F
:103E0800F01F002041420F00F0B5522187B08922EF
:103E180005466F48FFF73EFF40F0010352216C480A
:103E28008922DBB2FFF7CCFE69485221C022FFF796
:103E380031FFEE2840F0C7806548664C5221BF220A
:103E48000123FFF7BDFE013C01D000BFFBE760483E
:103E5800522188222346FFF7B3FE5D485221802273
:103E68000123FFF7ADFE5A485221FF220123FFF735
:103E7800A7FE2346564852212246FFF7A1FE5221AB
:103E880091225348FFF706FF514852212246012349
:103E9800FFF796FE4E485221FF222346FFF790FE79
:103EA80023464B4852218022FFF78AFE06A928465E
:103EB80001F80A4D0DF10F02FFF70CFF04AD0623C0
:103EC800009343485221B0222B46FFF790FE40480A
:103ED8005221FF220123FFF773FE3D4852214F2252
:103EE8002346FFF76DFE3A4852214E222C23FFF756
:103EF80067FE37485221FF222346FFF761FE344808
:103F08005221B423B622FFF75BFE9DF80F309DF8CF
:103F18000E60002B14BF0C2000202146E2B2D3080B
:103F2800824206AF02F007023B4401D3B14209D1F5
:103F3800012707FA02F213F8087C27EA020203F8BD
:103F4800082C06E013F8083C1341DB0744BF013195
:103F5800C9B20134302CE1D11D48FFF7A4F8522131
:103F68001B48FFF7DEF81A48B021FFF7DAF80024FB
:103F7800295D17480134FFF7D4F8062CF8D1144806
:103F8800FFF7B0F8522184221148FFF783FE52212F
:103F980004460A220E480423FFF712FE0C48522159
:103FA800842204F0EF03FFF70BFE094852210B228D
:103FB8000123FFF705FE0648522100220223FFF7DE
:103FC800FFFD002001E06FF0010007B0F0BD00BF69
:103FD800F01F0020A186010010B5064B044640F8EA
:103FE8002C3BFEF7D3FB04F11800FFF73DF9204600
:103FF80010BD00BF4852000810B50446FFF7ECFF9B
:10400800204600F0B0FC204610BD0000034A1068AE
:104018001B23584337301060704700BFE000002072
:104028002DE9F04F804687B0894692469B4600248A
:1040380008F118063046FFF7FFF9033884422FD2FB
:1040480000253046FFF7F6F90338854226D2D8F81E
:10405800681005913046FFF7EFF904903046FFF7F6
:10406800E9F9049B009308F12C07032322460190E9
:10407800029338462B460599FEF789FB4946384690
:10408800FEF7C2FBC3B205EB0B0100930193064890
:1040980004EB0A02FEF78AFC0135D2E70134C7E7D0
:1040A80007B0BDE8F08F00BFB40500202DE9F84344
:1040B800DFF8B8800446404600F05EFA04F11807BD
:1040C80005462148FEF789FC3846FFF7B5F906464C
:1040D8003846FFF7AFF900220746134620461B492A
:1040E800FFF79EFF4FEA47092046194900223B4641
:1040F800FFF796FF2046174900224B46FFF790FF2F
:104108002046154932460023FFF78AFF2046134907
:1041180032463B46FFF784FF4B461149324620465C
:10412800FFF77EFF404600F027FA0E49451B4FF483
:104138007A720D48B2FBF5F200F0FFFC23690133F7
:104148002361BDE8F88300BFB40500200800002003
:10415800BC0000202C00002074000020500000202B
:104168009800002054520008FD1F0020EC1F00207A
:104178008CB0414B00220192196B41F00101196387
:10418800196B01F00101019101990292196B41F03B
:1041980002011963196B01F002010291029903925D
:1041A800196B41F004011963196B01F004010391C3
:1041B80003990492196B41F008011963196B01F016
:1041C8000801049104990592196B41F010011963D3
:1041D800196B01F01001059105990692196B41F0D0
:1041E80020011963196B01F02001069106990792C5
:1041F800196B41F040011963196B01F040010791F7
:1042080007990892196B41F080011963196B01F045
:104218008001089108990992196B41F4807119631A
:10422800196B01F48071099109990A92196B41F48B
:1042380000711963196B01F400710A910A990B92C4
:104248001A6B42F480621A631B6B03F480630B934E
:104258000B9B0A4B03609A6822F440029A609A68A2
:1042680042F440029A601A6822F440021A601A68FE
:104278001A600CB0704700BF0038024000200240AE
:104288008CB0454B00220192196B41F00101196372
:10429800196B01F00101019101990292196B41F02A
:1042A80002011963196B01F002010291029903924C
:1042B800196B41F004011963196B01F004010391B2
:1042C80003990492196B41F008011963196B01F005
:1042D8000801049104990592196B41F010011963C2
:1042E800196B01F01001059105990692196B41F0BF
:1042F80020011963196B01F02001069106990792B4
:10430800196B41F040011963196B01F040010791E5
:1043180007990892196B41F080011963196B01F034
:104328008001089108990992196B41F48071196309
:10433800196B01F48071099109990A92196B41F47A
:1043480000711963196B01F400710A910A990B92B3
:104358001A6B42F480621A631B6B03F480630B933D
:104368000B9B0E4B03609A6822F0C0029A609A6811
:1043780042F0C0029A605A6822F008025A605A68ED
:104388005A601A6822F0C0021A601A6842F04002A5
:104398001A600CB0704700BF003802400028024085
:1043A8002DE9F04106463F4B46F8183B0446304697
:1043B800FFF790FA04F12C00FEF7E7F904F16C001E
:1043C800FFF7D6FE04F17000FFF75AFF216F364D54
:1043D8000022E2604A69002342F008026360A36099
:1043E8004A6123614FF47A73636105F5AF57FFF7AC
:1043F8000DFE80462D48FEF724FAB8FBF0F303FBC8
:10440800108045F8040CFFF701FE80462748FEF7A8
:104418001BFAB8FBF0F303FB10802860FFF7F6FDEA
:10442800C2074CBF02236FF001036B60FFF7EEFD7C
:10443800C3074CBF02236FF00103AB60FFF7E6FD33
:10444800C0B2E860FFF7E2FDC0B22861FFF7DEFD09
:10445800C0B268611C35BD42C9D13046FFF704FBC4
:10446800014608B100BFFDE71048FEF749FA30469B
:10447800FEF7E2FF05463046FEF7DCFF00FB05F1DC
:10448800C1F35D010A48FEF7F6FB0A49A066024639
:10449800094800F052FB3046A16EFEF7BDFF2046EA
:1044A800BDE8F081485200088C070020B4050020C0
:1044B800780600205C520008FD1F002070470000AD
:1044C800F0B572B600254FF0FF3014260D4C6E4340
:1044D800A719A6591EB97E68002E08BF28460135BF
:1044E800202DF2D1451C0AD01425C6B26E43A51959
:1044F8000027A7516960AA60EA602F746B7462B6DE
:10450800F0BD00BF6C1D002072B6074B142202FBE1
:1045180001310B7C03F0FF001BB1087C0023C0B203
:104528000B7462B6704700BF6C1D00202DE9F04186
:10453800074600240F4E1425654373191033B046FF
:104548005B788BB138462146FFF7DEFF60B17359BF
:104558000BB173599847142303FB04835A681AB1A3
:10456800586803689B6898470134E4B2202C28BF38
:104578000024DFE76C1D002082B072B6034B1B6875
:10458800019362B6019802B0704700BF681D002011
:1045980038B54FF080431A69D20733D54FF6FE720B
:1045A8001A6100241849142303FB041303F10802B9
:1045B80050680D4618B15368013B53601BE098687A
:1045C80050601A7CFF2A1FBF1A7C0132D2B21A74BB
:1045D80014236343CA181032527862B9CA580AB110
:1045E800CB589847142303FB04535A681AB15868E8
:1045F80003689B6898470134202CD3D1034A136879
:104608000133136038BD00BF6C1D0020681D0020F9
:1046180010B592B00C46FDF725FE002C4FEA40037A
:1046280008BF0124A04207EE903A28BF2046B8EE02
:10463800677A07EE900AF8EE677A0024C7EE277AC1
:104648001C4B0294196C41F0010119641B6C07940E
:1046580003F001030293029B05944FF080430393F8
:10466800BCEEE77A03A817EE102A120C531C07EECB
:10467800103AB8EEC77A0492C7EE877A0894B7EE74
:10468800007A77EEC77AFCEEE77ACDED017ABDF8CD
:1046980004300693FDF758FA032122461C20FCF744
:1046A800C1FD1C20FCF7EEFD03A8FDF7DEF912B0F2
:1046B80010BD00BF0038024038B500240D4D14214C
:1046C80061436A18002301346B50202C4FF47A712F
:1046D80053609160D36013745374EFD1064A13602A
:1046E800064A0360136C43F001031364FFF790FF5D
:1046F80062B638BD6C1D0020681D002000380240DD
:1047080002480349034A00F055BC00BFEC1F0020D3
:10471800C5440008000000208CB0414B00220192E3
:10472800196B41F001011963196B01F00101019145
:1047380001990292196B41F002011963196B01F09A
:104748000201029102990392196B41F00401196365
:10475800196B01F00401039103990492196B41F05C
:1047680008011963196B01F0080104910499059275
:10477800196B41F010011963196B01F010010591D3
:1047880005990692196B41F020011963196B01F024
:104798002001069106990792196B41F040011963AF
:1047A800196B01F04001079107990892196B41F0C4
:1047B80080011963196B01F0800108910899099229
:1047C800196B41F480711963196B01F480710991B7
:1047D80009990A92196B41F400711963196B01F474
:1047E80000710A910A990B921A6B42F480621A635B
:1047F8001B6B03F480630B930B9B0A4B03609A6853
:1048080022F440429A609A6842F440429A601A68D8
:1048180022F440421A601A681A600CB0704700BF50
:1048280000380240001402408CB0414B0022019233
:10483800196B41F001011963196B01F00101019134
:1048480001990292196B41F002011963196B01F089
:104858000201029102990392196B41F00401196354
:10486800196B01F00401039103990492196B41F04B
:1048780008011963196B01F0080104910499059264
:10488800196B41F010011963196B01F010010591C2
:1048980005990692196B41F020011963196B01F013
:1048A8002001069106990792196B41F0400119639E
:1048B800196B01F04001079107990892196B41F0B3
:1048C80080011963196B01F0800108910899099218
:1048D800196B41F480711963196B01F480710991A6
:1048E80009990A92196B41F400711963196B01F463
:1048F80000710A910A990B921A6B42F480621A634A
:104908001B6B03F480630B930B9B0A4B03609A6841
:1049180022F440529A609A6842F440529A601A68A7
:1049280022F440521A601A681A600CB0704700BF2F
:10493800003802400014024010B5094C2046FFF729
:10494800EBFE201DFFF770FF2268536923F08003F8
:1049580053616268536923F04003536110BD00BF7F
:10496800F01F0020704770470348044B0449054A6C
:10497800036000F01FBB00BFF81F002000200020CC
:104988006D490008000000207047000002480349F4
:10499800034A00F00FBB00BFFC1F0020914900082C
:1049A8000000002010B5044600F0A3FA204610BD10
:1049B80038B505464C1E14F8011F19B1284600F0F9
:1049C800EFFAF8E738BD38B505464C1E14F8011F54
:1049D80019B1284600F0E4FAF8E738BD30B585B0DB
:1049E8000B1E4FF00002BABF5B42012414468DF83B
:1049F8000F200A210A2293FBF2F502FB153304AAC1
:104A08000A44303302F80C3C4A1ED2B22B460DB190
:104A18001146EFE72CB104AB13442D2103F80C1C0D
:104A2800114601AB1944FFF7CEFF05B030BD1FB5E5
:104A380000238DF80F300A220A23B1FBF3F403FB9D
:104A4800141304A91144303301F80C3C531EDBB293
:104A580021460CB11A46EFE701AB9918FFF7B3FFEF
:104A680004B010BD1FB500238DF80F300A2201F0E5
:104A78000F0304AC092B144494BF3033573304F8A4
:104A88000C3C090902F1FF33DBB201D01A46EEE70C
:104A980001AB9918FFF797FF04B010BDF8B5B5EE54
:104AA800C00A2DED028BF1EE10FA0D46064646BF00
:104AB800B1EE400A2D21202101230022AA4203D26F
:104AC8000A2043430132F9E7BDEEC08A3046F8EECA
:104AD800C87A30EE670A07EE903AF8EE677A20EE69
:104AE800270ABDEEC00A10EE104A002CB8BF644277
:104AF80000F056FA304618EE101AFFF76FFF3046EE
:104B08002E2100F04DFA002301220A214A430133E5
:104B1800A242DBB2F9DBED1AEDB20027AF42304614
:104B280004D2302100F03CFA0137F7E7BDEC028BE4
:104B38002146BDE8F840FFF751BF0EB477B507AB83
:104B4800044653F8046B01930025715D002954D085
:104B5800252904D0204600F023FA0135F5E773191A
:104B68005978692916D007D863292BD0662931D0FE
:104B7800252940D120462AE0752913D0782919D053
:104B8800732938D1019B20461A1D19680192FFF735
:104B98001AFF30E0019B20461A1D19680192FFF7A1
:104BA8001DFF28E0019B20461A1D19680192FFF796
:104BB8003EFF20E0019B20461A1D19680192FFF76D
:104BC80051FF18E0019B1A1D19780192204600F048
:104BD800E7F910E0019B073323F0070303F108020C
:104BE800D3E900010192FBF73DFB032100EE100A17
:104BF8002046FFF753FF0235A7E703B0BDE8704032
:104C080003B0704710B5054C204600F071F92046F6
:104C18000349044ABDE8104000F0CCB9FD1F00204C
:104C2800AD4900080000002010B5044B044640F8C8
:104C3800083BFEF7C2FF204610BD00BFE052000847
:104C480010B50446FFF7F0FF2046FFF78CFE20461C
:104C580010BD00004268536970B543F0020300F1CB
:104C68000805536104462846FEF7E6FF0948FFF7A2
:104C780083FC06462846FEF7A1FF3246034606494E
:104C88000648FFF75AFF6268536923F0020353612D
:104C980070BD00BFEC1F002075520008FD1F0020EA
:104CA8008CB0454B00220192196B41F00101196348
:104CB800196B01F00101019101990292196B41F000
:104CC80002011963196B01F0020102910299039222
:104CD800196B41F004011963196B01F00401039188
:104CE80003990492196B41F008011963196B01F0DB
:104CF8000801049104990592196B41F01001196398
:104D0800196B01F01001059105990692196B41F094
:104D180020011963196B01F0200106910699079289
:104D2800196B41F040011963196B01F040010791BB
:104D380007990892196B41F080011963196B01F00A
:104D48008001089108990992196B41F480711963DF
:104D5800196B01F48071099109990A92196B41F450
:104D680000711963196B01F400710A910A990B9289
:104D78001A6B42F480621A631B6B03F480630B9313
:104D88000B9B0E4B03609A6822F00C029A609A689B
:104D980042F00C029A605A6822F002025A605A687D
:104DA8005A601A6822F00C021A601A6842F004026B
:104DB8001A600CB0704700BF003802400020024063
:104DC80070B50F4B0F4E044604F1080540F8043B3C
:104DD800FFF766FF2846FEF7EFFE30460A49FFF761
:104DE800ACFE30460949FFF7A8FE2846FFF70CF845
:104DF8006268536943F002035361204670BD00BFE7
:104E0800E0520008FD1F00209D520008A152000832
:104E180010B5A4B0FBF7BDFB2B4800F06BF82A488F
:104E28002A49FFF7C5FD28482949FFF7D7FD264835
:104E38002849FFF7BDFD9FED280A23480321FFF706
:104E48002DFE2148202100F0ABF81F4840F2153113
:104E5800FFF7C4FD21491C48FFF7AAFD2048FFF7CA
:104E68002BFC01211F48FEF717F81F48FDF7E9FC46
:104E780004461D48FDF7E8FC00FB04F121F0404121
:104E88001848FDF7F8FE044621461748FDF7BEFE10
:104E980016490D482246FFF750FE6846FFF790FF77
:104EA80069464FF4FA7201230D48FFF709FB07A87A
:104EB800FFF776FA0A4807A932220123FFF700FB19
:104EC8000748FFF733FBFBE7FD1F0020B15200083E
:104ED8007929EDFFBC520008DB0F49409F520008BA
:104EE800EC1F002078060020B4050020BE52000800
:104EF8007047704770B5A4B00024254B00941A6B16
:104F0800244842F001021A631A6B02F0010200926F
:104F1800009A01941A6B42F002021A631A6B02F0AB
:104F280002020192019A02945A6C42F010025A64E9
:104F38005B6C03F010030293029B4FF4007302258D
:104F480003930726012303A905930495069507965D
:104F5800FDF7FEF9802303A90F48039304950796EC
:104F6800FDF7F6F90D4B08934FF4E13309930C2341
:104F78000D9308A84FF400430A940B940C940E94D4
:104F88000F9310941194FBF7BFFF24B070BD00BFBE
:104F980000380240000002400004024000100140B6
:104FA800034BDA69120601D400BFF9E7996270472A
:104FB8000010014003460846194600F007B800BF34
:104FC800014600200246034600F020B810B40C4603
:104FD80013460146224602205DF8044B00F016B83D
:104FE80038B5084B084DED1AAC1018BFED1805D0B0
:104FF800013C55F8043D9847002CF9D1BDE83840EC
:1050080000F066B820530008245300082DE9F04743
:10501800254C2568D5F84841064688469246994663
:10502800CCB360681F2818DC431C7EB104EB8005F4
:105038000121C5F888A0D4F8887101FA00F2174355
:10504800022EC4F88871C5F808911ED0023063603A
:1050580044F820800020BDE8F087144B03B34FF4D8
:10506800C870AFF300800446D0B1D5F848310027A6
:1050780080E88800C5F8484138460123C4F888719B
:10508800C4F88C71002EE1D0D0E7D4F88C110A4313
:10509800C4F88C21DAE705F5A674C5F84841C0E7DD
:1050A8004FF0FF30BDE8F087F05200080000000024
:1050B800024B13B10248FFF783BF7047000000009E
:1050C800E94F0008F8B500BFF8BC08BC9E46704719
:0C50D800F8B500BFF8BC08BC9E4670474D
:1050E80000061016000610160010101004101010FC
:1050F8000210101008010402080000000001020359
:105108000401020304060708090000018002800365
:1051180002040309010B570E610F401101126213BB
:10512800C7143A16241718180419011A811E0024E6
:105138003C253626722708280829152A002B002C1A
:105148000832A43300343F3500363A387239573ABA
:10515800CC3B043D993E0E3FC140C0414142C04353
:105168000A44F045464662472A483C4AFC4BFC4CF8
:105178007F4D7F4E7F4F985098510052285370545E
:1051880098581A59855AA95B645C845D535E0E5F12
:10519800F060F061F06200630064026520660069F7
:1051A8000A6B5A6C046D556E006F9D702171787290
:1051B80022730274107510760177027A127B087CCC
:1051C800167D307E5E7F728082818E829A83A4846F
:1051D800AC85B886C387D688E689F28A248C809005
:1051E8007D917B9D029E029F7AA079A140A450A543
:1051F80068A64AA8C1A9EFAA92AB04AC80AD80AE5C
:1052080080AF80B2F2B320B420B500B6AFB6AFBB62
:10521800AEBC7FBD7FBE7FBF7FBF7FC0AAC1C0C2FB
:1052280001C34EC605C782C9E0CAE8CBF0CCD8CDC9
:10523800931263401000000000000000000000000E
:10524800E13F000801400008B540000846505320DF
:1052580025750A0063616D65726120627566666511
:1052680072207374617274202575200A0075707439
:10527800696D65202575205B6D735D2C206C6173ED
:1052880065722064697374616E6365202569205BAB
:105298006D6D5D0A000A0A0A00696E666F20746106
:1052A800736B20696E69740A00736F6D652073747F
:1052B80072696E6720006672616D65206275666648
:1052C80065722073746172742025750A00000000ED
:1052D8000000000000000000314C0008494C0008A4
:0C52E8005D4C000843000000E8000020BE
:0852F400C8FCFF7F010000006F
:1052FC00B950000835020008652C0008112F000871
:10530C0009470008414900087149000895490008FF
:04531C000D4C00082C
:045320000D02000872
:10532400000000000024F400000000000000000061
:105334000000000000000000010000000000000068
:105344000000000000000000000000000100000058
:105354000200000001000000000000000000000046
:1053640000000000FFFFFFFFFEFFFFFFFFFFFFFF46
:1053740000000000FFFFFFFF00000000FFFFFFFF31
:1053840005000000FFFFFFFF00000000FFFFFFFF1C
:1053940000000000FFFFFFFFFFFFFFFFFFFFFFFF15
:1053A400FFFFFFFF08000000FFFFFFFFFFFFFFFFFD
:1053B400FFFFFFFFFFFFFFFFFFFFFFFF01000000F4
:1053C400FFFFFFFF010000000000000001000000DB
:1053D400FFFFFFFF01000000FFFFFFFF01000000CF
:1053E40000000000FFFFFFFF0200000000000000BB
:1053F400FEFFFFFF0100000000000000FFFFFFFFB1
:10540400010000000000000000000000D4030020A0
:105414003C040020A4040020000000000000000060
:105424000000000000000000000000000000000078
:10543400000000000000000000000000EC52000822
:105444000000000000000000000000000000000058
:105454000000000000000000000000000000000048
:105464000000000000000000000000000000000038
:105474000000000000000000000000000000000028
:105484000000000000000000000000000000000018
:105494000000000000000000000000000000000008
:1054A40000000000000000000000000000000000F8
:1054B40001000000000000000E33CDAB34126DE695
:1054C400ECDE05000B0000000000000000000000FE
:1054D40000000000000000000000000000000000C8
:1054E40000000000000000000000000000000000B8
:1054F40000000000000000000000000000000000A8
:105504000000000000000000000000000000000097
:0400000508000329C3
:00000001FF
