:020000040800F2
:10000000FFFF0420290300080D0300081F03000858
:100010000D0300080D0300080D0300080000000098
:100020000000000000000000000000000D030008B8
:100030000D030008000000000D0300080D03000878
:100040000D0300080D0300080D0300080D03000850
:100050000D0300080D0300080D0300080D03000840
:100060000D0300080D0300080D0300080D03000830
:100070000D0300080D0300080D0300080D03000820
:100080000D0300080D0300080D0300080D03000810
:100090000D0300080D0300080D0300080D03000800
:1000A0000D0300080D0300080D0300080D030008F0
:1000B000BD3600080D0300080D0300080D030008FD
:1000C0000D0300080D0300080D0300080D030008D0
:1000D0000D0300080D0300080D0300080D030008C0
:1000E0000D0300080D0300080D0300080D030008B0
:1000F0000D0300080D0300080D0300080D030008A0
:100100000D0300080D0300080D0300080D0300088F
:100110000D0300080D0300080D0300080D0300087F
:100120000D0300080D0300080D0300080D0300086F
:100130000D0300080D0300080D0300080D0300085F
:100140000D0300080D0300080D0300080D0300084F
:100150000D0300080D0300080D0300080D0300083F
:100160000D0300080D0300080D0300080D0300082F
:100170000D0300080D0300080D0300080000000037
:100180000D0300080D0300080D0300080D0300080F
:100190000D0300080D0300080D0300080D030008FF
:1001A0000D0300080D0300080D0300080D030008EF
:1001B0000D0300080D0300080D0300080D030008DF
:0801C0000D0300080D03000807
:1001C800044B05481B1A062B02D9044B03B11847E8
:1001D800704700BF4F0800204C08002000000000B6
:1001E80005490648091A891001EBD171491002D056
:1001F800034B03B1184770474C0800204C080020F7
:100208000000000010B5064C237843B9FFF7D8FF6B
:10021800044B13B10448AFF300800123237010BDD1
:100228004C08002000000000A048000808B5084B52
:100238001BB108480849AFF300800848036813B9A0
:10024800BDE80840CCE7064B002BF9D09847F7E704
:1002580000000000A0480008500800204C080020BA
:10026800000000004FEA4102B2F1E04324BFB3F5B9
:10027800001CDCF1FE5C0DD901F0004C4FEAC00215
:100288004CEA5070B2F1004F40EB830008BF20F0F9
:100298000100704711F0804F21D113F13872BCBFB3
:1002A80001F00040704741F480114FEA5252C2F108
:1002B8001802C2F1200C10FA0CF320FA02F018BF51
:1002C80040F001004FEAC1234FEAD32303FA0CFCA4
:1002D80040EA0C0023FA02F34FEA4303CCE77FEA33
:1002E800625307D150EA01331EBF4FF0FE4040F47D
:1002F8004000704701F0004040F0FE4040F400002C
:10030800704700BF684620F007018D4601B5BDE87B
:10031800014085467047684620F007018D46FEE794
:1003280019491A4B5B1A9B0800229A4206D01848B2
:1003380050F8220041F822000132F6E7154B164A20
:10034800934203D0002243F8042BF8E7134A144CD5
:10035800D2F8883043F47003C2F88830D2F83432C7
:1003680023F04043C2F834320E4BE41AA41000259F
:100378001E46A54204D056F8253098470135F8E7BF
:1003880000F012F803F080BD000000204C080020A7
:100398007C4900084C080020C82A002000ED00E035
:1003A80078490008544900080F49D1F8883043F4C7
:1003B8007003C1F888300D4B1A68002042F0010222
:1003C8001A6098601A6822F0847222F480321A60E7
:1003D800074A5A601A6822F480221A60D8604FF0DF
:1003E80000638B60704700BF00ED00E000380240FA
:1003F8001030002430B5184C184D636A23F480334C
:1004080063626B6885B023F001036B60144B019342
:1004180011238DF80830032301228DF80B3068462C
:1004280000238DF80F308DF80D308DF801308DF8E0
:100438000A308DF809308DF80C308DF800208DF8D1
:100448000E2000F0A3FD05236B60636A43F480333C
:10045800636205B030BD00BF00ED00E090ED00E044
:100468000000012030B5BFF34F8FBFF36F8F304BC3
:100478000022C3F85022BFF34F8FBFF36F8F596923
:1004880041F480215961BFF34F8FBFF34F8FBFF302
:100498006F8FC3F85022596941F400315961BFF395
:1004A8004F8FBFF36F8FC3F88420BFF34F8FD3F8FC
:1004B8008020C2F34E33C2F3C902590143F6E074F7
:1004C8000C4011461A4844EA817511F1FF31C0F811
:1004D8006052F7D213F1FF33EFD2BFF34F8FBFF360
:1004E8006F8F0023C0F88430BFF34F8FD0F880207F
:1004F800C2F34E33C2F3C902590143F6E0740C400B
:1005080011460B4844EA817511F1FF31C0F8605279
:10051800F7D213F1FF33EFD2BFF34F8F436943F4A0
:1005280080334361BFF34F8FBFF36F8F30BD00BF80
:1005380000ED00E010B592B0012306934FF480332C
:1005480007934FF480030D9319230E934FF4D87338
:1005580002240F9306A809230C941094119301F018
:100568006BF900B1FEE700F049F800B1FEE70F2390
:1005780001934FF4A0530390049301A84FF48053C0
:1005880007210294059301F02FFB00B1FEE712B09A
:1005980010BD08B5FFF72EFFFFF764FF00F016F84F
:1005A800BDE80840FFF7C6BF10B5044601F046FC99
:1005B8004FF47A73B0FBF3F000F0D2FC4FF0FF3049
:1005C8002146002200F090FC002010BD074A08B523
:1005D800136843F400731360032000F073FC0F20CA
:1005E800FFF7E2FF01F0AEFD002008BD003C02402D
:1005F800014B1868704700BF6808002013B5002336
:100608000193194B1A6C42F080521A641B6C174AFA
:1006180003F080530193019B136843F48033136004
:10062800FFF7E6FF0446114B5A68D20307D4FFF7D9
:10063800DFFF001BB0F57A7FF5D9032012E01A68B6
:1006480042F400321A60FFF7D3FF0446074B5B6899
:100658009B0306D4FFF7CCFF001BB0F57A7FF5D9D2
:10066800EBE7002002B010BD0038024000700040E7
:100678000B680A6A012B2DE9F0474B68D1F808E0AE
:10068800CF680E694D698C69D1F81CA0D1F8249007
:10069800016813D04EEA030E4EEA07073E4335437E
:1006A8002C4321F4FF4844EA0A010A4328F07F0852
:1006B80042EA090343EA0803036019E042EA0A022E
:1006C8004EEA030E21F4FF4C42EA09094EEA0707F5
:1006D80042682CF07F0C3E4349EA0C01354322F472
:1006E800FF4C2CF07F0C2C4344EA0C04016044605E
:1006F8000020BDE8F087012A2DE9F043CA680E689A
:100708004D688C68D1F810904B69D1F818C01AD090
:100718008768013E07F07047013D3743013C47EACF
:100728000516013A46EA042545EA023409F1FF3282
:10073800013B44EA024141EA03520CF1FF3342EA29
:10074800036383601FE0C16806F1FF3E01F0704853
:100758006F1E4EEA0808661E48EA071E09F1FF35B3
:100768004EEA062747EA05460CF1FF3546EA0565D5
:10077800013B8668C560013A1B0506F0704643EAEE
:100788000232324382600020BDE8F08373B5002353
:100798000193044691E809000343C86843EA4020EE
:1007A8008B68013B40EA43130193019B2361154683
:1007B800FFF71EFF0646A06910F020000AD06B1C48
:1007C800F9D00DB9032005E0FFF712FF801BA842FE
:1007D800F1D9F7E702B070BD436943EA41014161CD
:1007E8000020704770472DE9F04104460E469046B8
:1007F8001D46FFF7FDFE0746B8F1000F36D1226807
:10080800D3693340B3420ED0691CF9D07DB1FFF7EC
:10081800EFFEC01BA842F2D309E06B1C06D1D369D6
:100828003340B342F9D00020BDE8F081CDB9236848
:100838001A6822F080021A601A6822F020021A60F0
:100848001A6822F480721A609A6822F001029A608B
:10085800012384F86930002384F868300320BDE858
:10086800F081FFF7C5FEC01BA842E0D22268D6E798
:1008780038B504460568A2682169C3692868114328
:1008880062690A4342EA0301814A02400A432A6034
:100898006A68206A22F44051E2680A436A60AA68DA
:1008A800A16922F4306201430A43AA60794A954259
:1008B80007D102F594327849D2F8902002F0030269
:1008C80009E0764A95420CD102F5FA327449D2F819
:1008D800902002F00C02B3F5004F8A5C40F0B18022
:1008E80072E0704A95420DD102F5F832D2F89020A4
:1008F80002F03002102A00F082805DD9202A78D0D8
:10090800302A0EE0684A95420DD102F5F632D2F847
:10091800902002F0C002402A71D04DD9802A68D0B8
:10092800C02A76D080E0614A95420FD102F5F432B0
:10093800D2F8902002F44072B2F5807F5FD03BD9A4
:10094800B2F5007F55D0B2F5407FEAE7584A9542A4
:1009580012D102F59232D2F8902002F44062B2F538
:10096800806F4CD002D8002A3DD05DE0B2F5006F10
:100978003FD0B2F5406FD4E74E4A95420FD102F509
:10098800E032D2F8902002F44052B2F5805F36D0BF
:1009980012D9B2F5005F2CD0B2F5405FC1E7464AE4
:1009A800954241D102F5DE32D2F8902002F440425D
:1009B800B2F5804F23D001D87AB135E0B2F5004FB7
:1009C80017D0B2F5404FACE7082A30D8DFE802F07C
:1009D800080E142F1A2F2F2F2400B3F5004F39D1EA
:1009E80001F046FA10E0B3F5004F36D101F056FA9F
:1009F8000AE0B3F5004F33D16068304B0FE0B3F530
:100A0800004F33D101F0DAF940006368B0FBF3F32B
:100A180007E0B3F5004F31D160684FF48033B3FB82
:100A2800F0F39BB2002004E0B3F5004F2ED1012073
:100A3800002323F00F012268C3F342030B43D36062
:100A480038BD082A22D8DFE802F005080B21112159
:100A58002121190001F00CFA0AE001F01FFA07E061
:100A68006268174BB3FBF2F39BB20CE001F0A6F9F6
:100A78006368B0FBF3F080B2E86005E062684FF4A9
:100A88000043B3FBF2F3EB60002038BD012038BD12
:100A9800F369FFEF00100140C5480008004400401A
:100AA800B848000800480040004C00400050004092
:100AB8000014014000780040007C00400048E80134
:100AC8000024F400436ADA0710B541BF046862687D
:100AD80022F40031826A44BF0A4362609C0741BF26
:100AE8000468626822F48031C26A44BF0A436260C3
:100AF800590741BF0468626822F48021026B44BF31
:100B08000A4362601A0741BF0468626822F4004120
:100B1800426B44BF0A436260DC0641BF0468A268B6
:100B280022F48051826B44BF0A43A260990641BFF8
:100B38000468A26822F40051C26B44BF0A43A26051
:100B48005A0610D50168046C4A6822F480122243C0
:100B5800B4F5801F4A6001BF4A6822F4C004426CA1
:100B6800224308BF4A601B0641BF01684B6823F453
:100B78000022836C44BF13434B6010BD00220368FE
:100B880010B5C2661B681907044604D423681B689D
:100B98005B0714D509E04FF400116FF07E43FFF7AF
:100BA80022FE0028F2D0032010BD20464FF4800119
:100BB80000226FF07E43FFF716FE0028F3D10123D1
:100BC800002084F8693084F8680010BD10B5044628
:100BD80060B390F8693003F0FF021BB980F8682011
:100BE800FFF700FE2268022384F86930136823F0B7
:100BF800010313602046FFF73BFE012816D0636A05
:100C080013B12046FFF75EFF23685A6822F490422A
:100C18005A609A6822F02A029A601A6842F0010221
:100C280020461A60BDE81040FFF7A8BF012010BD9C
:100C38002DE9F04307684C68FD68D1F8189007F172
:100C4800840ED2010EEB0203C5F30B45586800F47D
:100C580070405860FE68086805EB040CC6F30B4644
:100C6800451C354445EA0C455D60FD68CE68C5F312
:100C78000A0505EB060C9D6805F470459D60FE6845
:100C88008F68C6F30A067D1C354445EA0C459D600D
:100C98001D690F6925F007051D614FF0000C1F61E4
:100CA8009E6991F8315091F83280C3F818C091F8D4
:100CB800306046EA096646EA052545EA08459D6129
:100CC8005D6925F0FF055D614D695D61DD6925F4AC
:100CD800E06525F00705DD610E6ACD693543DD6104
:100CE8009D6A4D6AC3F828C09D624FB1012F09D093
:100CF800BD1E022D08D9072F0CBF0225012504E0CF
:100D0800042502E0032500E00225241A6C43E01CB8
:100D18008C6ADE6AC96A6C4340EA044406F0E0263D
:100D2800DE62DC62186B20F4FF6020F007001863B5
:100D380019635EF8023043F001034EF80230BDE853
:100D4800F083704738B5044600286AD090F8A1307F
:100D580003F0FF021BB980F8A020FFF7F2FF02237F
:100D680084F8A13023689A6922F070429A619969DF
:100D780062681143A2681143E268114322690A4379
:100D88009A619968284A0A409A609968A2690A4350
:100D9800616942EA01429A60D968234A0A40DA60E6
:100DA800D968226A0A43E16942EA0142DA601969AC
:100DB8001D4A0A401A611969A26A0A43616A42EA2D
:100DC80001421A615969184A0A405A615969226BE5
:100DD8000A43E16A42EA01425A61D96A94F8360044
:100DE80094F8352001F07F41D962D96A94F83450DB
:100DF800294341EA022242EA0042DA625A6B42F08F
:100E080004025A635A6B42F002025A639A6942F02A
:100E180001029A6100200123C4F8A40084F8A130DB
:100E280038BD012038BD00BF00F800F0F8B590F8D3
:100E3800A030012B06468C4696464FF002001DD086
:100E4800012786F8A07086F8A10034240D4604FB1B
:100E580002640FCD38340FC40FCD0FC40FCD0FC4AB
:100E68002B682360304661467246FFF7E1FE33681F
:100E780000205F6286F8A17086F8A000F8BD90F89F
:100E8800A030012B70B54FF00203044615D080F84E
:100E9800A13034235343C618012580F8A050F164CB
:100EA80003F138010144FFF7C3FE236800205D62A7
:100EB80084F8A15084F8A00070BD184670BD90F861
:100EC800A1007047074AD36823F4E0631B041B0C96
:100ED80043F0BF6343F4003300F0070043EA002304
:100EE800D360704700ED00E0154BDB68C3F30223C5
:100EF80070B5C3F107051C1D042D28BF0425062C59
:100F08008CBF033B0023012404FA03F6AC40013CE8
:100F1800013E214099403240002842EA01024FEA4E
:100F28000212AFBF00F1604000F00F00054BD2B2D3
:100F3800A5BF00F56140D2B21A5480F8002370BDF5
:100F480000ED00E014ED00E04109012300F01F006E
:100F5800024A834042F82130704700BF00E100E0B8
:100F68000138B0F1807F3FBF064B074A5860F02137
:100F78003FBF82F8231000200722986034BF1A6010
:100F88000120704710E000E000ED00E011494378CF
:100F98008B600378DBB14368CB60C37A027B1B06A6
:100FA80043EA027302781343827A43EAC243427BDC
:100FB80043EA8243827B43EA4243C27B43EA0243D9
:100FC800427A43EA0223027A43EA420300E0CB6012
:100FD8000B61704790ED00E003682DE9F34713F0CB
:100FE800010604460BD0464A916821F4000191603D
:100FF800466B916831439160B6FA86F6760913F428
:10100800002510D03E49E56BD1F88C2022F440121F
:101018002A43B5F5801FC1F88C2015BFB5FA85F5B0
:1010280000256D090126D90210D53548216CD0F864
:101038008C2022F440020A43B1F5800FC0F88C20BE
:1010480003D0002908BF012500E0012613F0807FA6
:1010580018BF01269A0660D500230193284B1A6C05
:1010680042F080521A641B6C264A03F080530193A5
:10107800019B136843F480731360FFF7B9FA0746BE
:10108800204B1B68DB0506D4FFF7B2FAC01B6428A7
:10109800F6D9032044E31A4B226B196F4A4012F425
:1010A800407F3AD0196F1A6F42F480321A671A6F6C
:1010B80021F4407022F480328F071A6718670FD422
:1010C800226B02F44073B3F5407F0D4B1CD1996835
:1010D80022F0704020F4407021F4F811014316E02A
:1010E800FFF786FA0746064B1B6F9807E8D4FFF709
:1010F8007FFA41F28833C01B9842F4D9C9E700BF90
:101108000038024000700040996821F4F811996095
:10111800196FC2F30B020A431A672368D9060CD564
:10112800774AD2F88C1021F08071C2F88C10D2F86E
:101138008C00A16B0143C2F88C105A0441BF70485F
:10114800D0F8902022F44031626E44BF0A43C0F8C0
:1011580090201F0441BF6A48D0F8902022F4402113
:10116800A26E44BF0A43C0F89020D80341BF644828
:10117800D0F8902022F44011E26E44BF0A43C0F830
:101188009020990341BF5E48D0F8902022F4400196
:10119800226F44BF0A43C0F890205A0641BF5848FE
:1011A800D0F8902022F00301626C44BF0A43C0F8D3
:1011B80090201F0641BF5248D0F8902022F00C0121
:1011C800A26C44BF0A43C0F89020D80541BF4C48E0
:1011D800D0F8902022F03001E26C44BF0A43C0F8F6
:1011E8009020990541BF4648D0F8902022F0C001D0
:1011F800226D44BF0A43C0F890205A0541BF4048B9
:10120800D0F8902022F44071626D44BF0A43C0F8C0
:1012180090201F0541BF3A48D0F8902022F4406141
:10122800A26D44BF0A43C0F89020D80441BF344897
:10123800D0F8902022F44051E26D44BF0A43C0F830
:101248009020990441BF2E48D0F8902022F44041C4
:10125800226E44BF0A43C0F890205A0241BF284872
:10126800D0F8902022F08061A26F44BF0A43C0F8F2
:1012780090209F020CD52248E16FD0F8902022F0F0
:1012880000620A43B1F1006FC0F8902008BF012541
:1012980013F0080F18BF0125580341BF1848D0F8AC
:1012A800902022F04071626F44BF0A43C0F890203A
:1012B800190241BF1248D0F8902022F08051D4F88A
:1012C800802044BF0A43C0F89020012E06D0B3F115
:1012D800007F03D0012D40F085811EE1084A136884
:1012E80023F080631360FFF783F90746044E3368E1
:1012F8001A0107D5FFF77CF9C01B6428F6D9C8E6A0
:10130800003802402068C3073CD5636BD3BBD6F8CE
:1013180084204FF4403C9CFAACF84FF07061B8FA66
:1013280088F8D6F8843091FAA1FE47F6C079BEFA5B
:101338008EFE99FAA9F9B9FA89F99CFAACFCBCFABB
:101348008CFC91FAA1F14FF0E04AB1FA81F19AFAD6
:10135800AAFAA768BAFA8AFA07FA0AFA676802F4D0
:10136800403207FA09F922FA08F203F070634AEAF0
:10137800090702FA0CF223FA0EF33A438B4013439F
:10138800C6F88430070303D5E36BB3F5801F05D097
:10139800C60248D5236CB3F5800F44D1BB4E4FF439
:1013A800403CD6F884209CFAACF84FF0E041B8FAFB
:1013B80088F8D6F8843091FAA1FE47F6C079BEFACB
:1013C8008EFE99FAA9F9B9FA89F99CFAACFC4FF0A2
:1013D800706ABCFA8CFC9AFAAAFABAFA8AFA91FAF2
:1013E800A1F1E768B1FA81F107FA0AFA676802F42D
:1013F800403207FA09F922FA08F203F0E0434AEA10
:10140800090702FA0CF223FA0EF33A438B4013430E
:10141800C6F88430D6F88C30626A23F01F03013A8C
:101428001343C6F88C30C1013BD5984E4FF0706C11
:10143800D6F884209CFAACF84FF0E041B8FA88F866
:10144800D6F8843091FAA1FE47F6C079BEFA8EFE2E
:1014580099FAA9F94FF4403AB9FA89F99AFAAAFA25
:10146800BAFA8AFA9CFAACFCBCFA8CFC91FAA1F1A3
:101478002769B1FA81F107FA0AFA676802F070621F
:1014880007FA09F922FA08F203F0E0434AEA0907E1
:1014980002FA0CF223FA0EF33A438B401343C6F8D0
:1014A8008430820126D547F6C07696FAA6F64FF420
:1014B8004037B6FA86F697FAA7F74FF07060B7FA92
:1014C80087F790FAA0F04FF0E041B0FA80F091FA77
:1014D800A1F12269B1FA81F102FA07F36268B24018
:1014E8001A43E36883401A43A3688B401343674A4F
:1014F800C2F88430654A136843F080631360FFF7CD
:1015080077F80646614B1B681B013FF5E3AEFFF712
:101518006FF8801B6428F5D9BBE55C4A136823F093
:1015280080531360FFF764F80546584B1B689F000B
:101538005AD421680E035DD4CD025ED4880200F12E
:10154800A7800A0741D5514D4FF07061D5F8883012
:1015580091FAA1F74FF44030B7FA87F7D5F8882009
:1015680090FAA0FC47F6C07EBCFA8CFC9EFAAEFE50
:10157800BEFA8EFE90FAA0F0B0FA80F091FAA1F1CE
:101588004FF0E048B1FA81F198FAA8F8E669B8FA9C
:1015980088F806FA08F8666902F4403206FA0EF688
:1015A80022FA0CF203F0706348EA06068240FB4018
:1015B80032438B401343C5F88830D5F88C3023F478
:1015C8004032E36A1343C5F88C30304A136843F05D
:1015D80080531360FFF70CF804462C4B1B689B00E4
:1015E80040F1978000209BE0FFF702F8401B642839
:1015F8009BD94EE5E36B1BB19EE7236C002B9DD175
:10160800224D4FF4403ED5F888209EFAAEF84FF0B0
:10161800E040B8FA88F8D5F8883090FAA0F747F68D
:10162800C07CB7FA87F79CFAACFCBCFA8CFC9EFA33
:10163800AEFE4FF07069BEFA8EFE99FAA9F9B9FAB2
:1016480089F990FAA0F0A669B0FA80F006FA09F9CB
:10165800666902F4403206FA0CFC22FA08F203F03A
:10166800E04349EA0C0602FA0EF2FB40324383409B
:101678001343C5F88830D5F88C30A26A23F4F853A0
:10168800013A43EA0223C5F88C3057E70038024094
:10169800E36FB3F1006F7FF454AF234D4FF0706EDA
:1016A800D5F888209EFAAEF84FF0E040B8FA88F8EE
:1016B800D5F8883090FAA0F747F6C07CB7FA87F7D4
:1016C8009CFAACFC4FF44039BCFA8CFC99FAA9F9A5
:1016D800B9FA89F99EFAAEFEBEFA8EFE90FAA0F02B
:1016E800266AB0FA80F006FA09F9666902F07062B3
:1016F80006FA0CFC22FA08F203F0E04349EA0C0669
:1017080002FA0EF2FB40324383401343C5F8883097
:1017180017E7FEF76DFF001B64287FF65EAFB8E49D
:1017280002B0BDE8F08700BF003802407047036888
:10173800DA6842F00102DA601A6842F001021A60BF
:10174800002070472E4A0368904212D0B0F1804FB3
:101758000FD0A2F57C4290420BD002F580629042F5
:1017680007D002F58062904203D002F57842904299
:1017780018D14A6823F070031343214A904237D0A6
:10178800B0F1804F34D01F4A904231D002F58062C8
:1017980090422DD002F58062904229D002F578421D
:1017A800904225D0184A904222D002F58062904299
:1017B8001ED002F5806290421AD0A2F5983290426B
:1017C80016D002F58062904212D002F580629042F3
:1017D8000ED003608B68C3620B688362084B984223
:1017E8000BD003F58063984207D00123436170470B
:1017F800CA6823F440731343EBE70B690363F4E708
:1018080000000140000400400040014010B50446BB
:1018180080B190F839300BB9FFF788FF022384F8BC
:1018280039302068211DFFF78DFF012384F83930F6
:10183800002010BD012010BD036873B5DE07044603
:1018480003D423689D0770D4C2E0A44B9A6802F0C1
:101858000C02042A07D09A6802F00C02082A0BD15D
:101868005B68580208D59D4B1B689903E9D56368E6
:10187800002BE6D10120B3E1984B1A6822F480329C
:101888001A601A6822F480221A601A6822F48032D8
:101898001A60FEF7ADFE0546904B1A68920307D50D
:1018A800FEF7A6FE401BB0F5FA7FF5D9032097E1B5
:1018B8001A6822F480321A606268B2F5803F03D158
:1018C8001A6822F4802205E0B2F5A02F08D11A6820
:1018D80042F480221A601A6842F480321A6008E0E2
:1018E800196821F480211960196821F48031196080
:1018F8006AB1FEF77DFE0546784B1B689E03A0D4AF
:10190800FEF776FE401BB0F5FA7FF5D9CEE7FEF775
:101918006FFE0546714B1B68980392D5FEF768FE6B
:10192800401BB0F5FA7FF5D9C0E76C4B9A6812F006
:101938000C0F07D09A6802F00C02082A16D15B68CF
:10194800590213D4654B1A68920702D5E268012A36
:1019580090D11968F82090FAA0F02269B0FA80F0C6
:1019680021F0F80182400A431A6031E0E2685B4BDB
:10197800EAB11A6842F001021A60FEF739FE05461C
:10198800564803689E0705D4FEF732FE401B6428BC
:10199800F6D98BE70268F82191FAA1F12369B1FA27
:1019A80081F122F0F8028B401343036010E01A68BB
:1019B80022F001021A60FEF71BFE0546474B1B6822
:1019C800990705D5FEF714FE401B6428F6D96DE784
:1019D80023681A0703D423685B0767D524E0626984
:1019E8003E4B82B15A6F42F001025A67FEF700FE81
:1019F80005463A4B5B6F9E07EDD4FEF7F9FD401B99
:101A08006428F6D952E75A6F22F001025A67FEF7A6
:101A1800EFFD0546314B5B6F9807DCD5FEF7E8FD17
:101A2800401B6428F6D941E7002301932B4B1A6C1D
:101A380042F080521A641B6C294A03F080530193C8
:101A4800019B136843F480731360FEF7D1FD0546CC
:101A5800234B1B68D9052DD5204B1A6F22F00102A4
:101A68001A671A6F22F004021A671A6F22F001022D
:101A78001A67FEF7BDFD0546184B1A6F92071FD46B
:101A88001A6F22F001021A67A268012A20D11A6F80
:101A980022F004021A671A6F42F001021A67FEF771
:101AA800A7FD05460D4B1B6F9E0725D5A16900298B
:101AB80039D17AE0FEF79CFD401B6428C8D9F5E6C9
:101AC800FEF796FD41F28833401B9842D4D9EDE6E3
:101AD800052A07D11A6F42F00402DBE700380240FA
:101AE80000700040196F21F004011967196F21F087
:101AF8000101196742B1D2E7FEF77AFD41F2883356
:101B0800401B9842CED9D1E6FEF772FD0546354B0B
:101B18001B6F9807CAD5FEF76BFD41F28833401B4F
:101B28009842F4D9C2E62F4B9A6802F00C02082AB0
:101B38003FF4A0AE1A68022922F080721A6042D1DE
:101B4800FEF756FD05462748036899012FD447F646
:101B5800C07696FAA6F64FF44035B6FA86F695FAA8
:101B6800A5F54FF07061B5FA85F591FAA1F1E36931
:101B7800226AB1FA81F11A43636A42F00052B34013
:101B88001A43A36A5B08013BAB401343E26A8A40ED
:101B980013434360036843F080730360FEF728FD36
:101BA8000446104B1B689A0107D5002018E0FEF781
:101BB8001FFD401B6428C6D978E6FEF719FD001BF7
:101BC8006428EED972E6FEF713FD0446054B1B6840
:101BD8009B01EAD5FEF70CFD001B6428F6D965E6E3
:101BE80002B070BD00380240724A136803F00F0358
:101BF800994270B504460D466BD9136823F00F035C
:101C08000B431360136803F00F038B4201D00120CC
:101C180070BD01688B0741BF6748836823F0F002F5
:101C2800A36844BF13438360CE070BD421684D07D4
:101C380040F1AF806048836823F4E052E3681343BF
:101C48008360A6E062685C4B012A196802D111F42E
:101C5800003F06E0022A02D111F0007F01E011F0F6
:101C6800020FD4D0996821F003010A439A60FEF765
:101C7800BFFC6368012B05460ED14F4B9B6803F0F0
:101C88000C03042BD2D0FEF7B3FC41F28833401B7F
:101C98009842F2D9032070BD022B14D1464B9B68A1
:101CA80003F00C03082BC1D0FEF7A2FC41F28833E5
:101CB800401B9842F2D9EDE7FEF79AFC41F28833CF
:101CC800401B9842E6D83C4B9B6813F00C0FF3D1AD
:101CD800ACE70168880741BF3748836823F0F00202
:101CE800A36844BF13438360CA070BD4314A1368FF
:101CF80023F00F032B431360136803F00F03AB4269
:101D080085D193E762682C4B012A196802D111F436
:101D1800003F06E0022A02D111F0007F01E011F035
:101D2800020F3FF474AF996821F003010A439A60E7
:101D3800FEF75EFC6368012B06460DD11E4B9B68BF
:101D480003F00C03042BD1D0FEF752FC41F2883388
:101D5800801B9842F2D99DE7022B14D1164B9B6841
:101D680003F00C03082BC1D0FEF742FC41F2883384
:101D7800801B9842F2D98DE7FEF73AFC41F288338E
:101D8800801B984286D80C4B9B6813F00C0FF3D13C
:101D9800ACE70B0741BF084A2169936823F4604305
:101DA80044BF43EAC10393600F20FEF7FDFB002008
:101DB80070BD00BF003C02400038024010B51C4C0A
:101DC800A36803F00C03042B2ED0082B2ED16268D5
:101DD80002F03F03626847F6C07112F4800F626830
:101DE80091FAA1F147F6C07000EA020008BF114A53
:101DF800B1FA81F120FA01F00EBFB2FBF3F20E49FD
:101E0800B1FBF3F202FB00F3094A50684FF4403289
:101E180092FAA2F200F44030B2FA82F2D0400130D5
:101E28004000B3FBF0F010BD034810BD014810BDE1
:101E3800003802400024F40040787D0108B5FFF71F
:101E4800BDFF084BF0229B6892FAA2F203F0F00360
:101E5800B2FA82F2D340044AD35CD840034B1860EC
:101E680008BD00BF00380240C9480008040000202F
:101E780008B5FFF7E3FF074B4FF4E0529B6892FA6F
:101E8800A2F203F4E053B2FA82F2D340024AD35CDE
:101E9800D84008BD00380240C948000808B5FFF717
:101EA800CDFF074B4FF460429B6892FAA2F203F40D
:101EB8006043B2FA82F2D340024AD35CD84008BDEC
:101EC80000380240C9480008704738B50D46044636
:101ED800C8B190F82C3003F0FF021BB980F82D2010
:101EE800FFF7F2FF022384F82C30211D2068FEF74B
:101EF800BFFB206862682946FEF7FDFB012384F8D2
:101F08002C30002038BD012038BD38B5044690F883
:101F18002C00C0B202280D460DD0022384F82C30C4
:101F28002068FEF733FC2B68022B0CBF0523012326
:101F380084F82C30002038BD10B5044690F82C00E9
:101F4800C0B2022809D0022384F82C302068FEF79A
:101F580043FC012384F82C30002010BD2DE9F34107
:101F68000F6800220123934003EA07059D4240F0D1
:101F7800D8804C6824F0100CBCF1020F14D14FEA41
:101F8800D20E00EB8E0E02F00706DEF82030B60007
:101F98004FF00F0808FA06F823EA08080B69B3405F
:101FA80048EA0303CEF820304FEA420E03230668BE
:101FB80003FA0EF3DB4303EA060804F0030606FA05
:101FC8000EF60CF1FF3C48EA0606BCF1010F06606C
:101FD80011D8866803EA060CCE6806FA0EF64CEAB3
:101FE80006068660466826EA050CC4F30016964085
:101FF8004CEA06064660C66803EA060C8B6803FAD4
:102008000EF64CEA0603C360E30040F18A80484EAE
:1020180000230193D6F844E04EF4804EC6F844E01D
:10202800766C06F480460196019E22F0030606F1BE
:10203800804606F59C3602F0030CD6F808804FEA75
:102048008C0C4FF00F0E0EFA0CFE28EA0E0EDFF87D
:10205800E880404537D003F1804303F501339842C7
:1020680022D003F58063984220D003F5806398421C
:102078001ED003F5806398421CD003F58063984214
:102088001AD003F58063984218D003F5806398420C
:1020980016D003F58063984214D003F58063984204
:1020A8000CBF09230A230EE001230CE002230AE0F7
:1020B800032308E0042306E0052304E0062302E0E6
:1020C800072300E0082303FA0CF343EA0E03DFF8C2
:1020D80064E0B360DEF80030EE4314F4803F14BFD0
:1020E8002B433340CEF80030DEF80430DFF844E00C
:1020F80014F4003F14BF2B433340CEF80430DEF80D
:10210800083014F4801F14BF2B433340CEF8083036
:10211800DEF80C30A40254BF06EA03051D43054B44
:10212800DD600132102A7FF41DAF02B0BDE8F081F6
:1021380000380240003C01400000024002B9090496
:1021480081617047704770474FF4F07070474FF4E3
:10215800887070472DE9F04F00248FB000F1180700
:102168004FF4F0764FF488754FF0020B4FF0404370
:102178004FF0FF0A4FF4C0694FF0070801A9224643
:1021880038460A930194029603940495CDF814B046
:10219800CDF818A007948DF834408DF835408DF8A7
:1021A8003640CDF82090CDF824800B960C95FEF79C
:1021B8003DFE0F4B0194384601A901220296039473
:1021C8000495CDF814B00A93CDF818A007948DF8AB
:1021D80034408DF835408DF83640CDF82090CDF854
:1021E80024800B960C95FEF721FE0FB0BDE8F08F0A
:1021F80000FC03C00268002399520233B3F57F3F05
:10220800FAD170474268183002B10122FEF737BE92
:1022180040F2DF13994228BF194640F20F139A4241
:1022280028BF1A464FF4F073C181028203FB0212E1
:10223800016801EB42024261704743691980037BE0
:10224800012B0FD1C38901339BB2B3F5F07F19D3AA
:10225800038A01339BB20022B3F5887FC28107D37A
:10226800028212E0038A01339BB2B3F5887F01D260
:1022780003820AE0C38901339BB20022B3F5F07FE1
:10228800028201D2C38100E0C281C389018A4FF46E
:10229800F07202FB0132036803EB420343617047AB
:1022A8009208520142EAD303C908024843EAC1210D
:1022B800FFF7C3BFF00800202DE9F04F85B01F4697
:1022C8009DF83C30019316469DF840300E9A0293D3
:1022D800CC1B9DF844300393002CA6EB0203B8BF37
:1022E8006442002BB8BF5B42A3420D46C1BF2146E2
:1022F8001C460B463946C1BF17460A46294635468D
:10230800C6BF4FF001090E464FF00009BD42C8BFD5
:1023180031464FEA430AC2BF16460A462946C4EB6D
:102328000A0BC8BF3D46A3EB0404C8BF0F4696423C
:10233800CCBF4FF0FF320122804600926400BD42BC
:102348001BDABBF1000FC8BF009B05F10105CABF2E
:10235800F618D344A344B3B2AAB24046B9F1000F69
:1023680001D0194601E011461A46FFF751FF01A9AD
:1023780040460EC9FFF794FFE1E705B0BDE8F08FCE
:10238800416810B5044641B9084B4FF0010E80E88A
:102398000840BDE81040FFF735BFFF21FFF732FFC7
:1023A8004FF04042002384E80C0010BD00FC03C03D
:1023B80030B58A4203981FBF049CC31A5C43534339
:1023C8001FBF551A891A93FBF1F31B181ABF94FB08
:1023D800F5F4E018002030BD84B02DE9F04F8BB043
:1023E800054615A880E80E00DDF85CA0DDF860B0B1
:1023F800DAF80020DBF80040169B07932646A14632
:1024080090461746002307998B4211D05AF823109B
:102418008F42B8BF0F468845A8BF88465BF823108F
:102428008945B8BF89468E42A8BF0E460133EAE700
:102438004FF4F0730093019241463A460023284630
:10244800FFF7B6FF4FF488738DE818000590314602
:1024580028464A460023FFF7ABFF01248446079B22
:102468009C4233D24FF4F07300935AF8243001930E
:1024780041463A4600232846CDF824C0FFF798FF86
:102488004FF4887300935BF824300690019331462B
:102498004A4600232846FFF78BFF9DF85430DDF8A5
:1024A80024C001939DF8553002939DF8563008904A
:1024B800009003936246069B05992846FFF7FCFEA9
:1024C800069BDDF820C005930134C8E70BB0BDE8D2
:1024D800F04F04B070470000054808230360C0238C
:1024E80043610523C3614FF48033C362FEF774BDB3
:1024F8006C080020F0B58FB04E4B4F4E4F4800226D
:102508000092596C41F080615964596C01F0806106
:10251800009100990192196B41F400011963196B3C
:1025280001F40001019101990292196B41F0100127
:102538001963196B01F01001029102990392196B4A
:1025480041F040011963196B01F0400103910399AF
:102558000492196B41F480711963196B01F480714D
:10256800049104990592196B41F400711963196B70
:1025780001F40071059105990692196B41F4806187
:102588001963196B01F48061069106990792196B1A
:1025980041F480711963196B01F4807107910799EF
:1025A8000892196B41F4806119631B6B0B9203F459
:1025B8008063089302240E25089B0A94102309A916
:1025C80009930C940D954FF48057FFF7C7FC092326
:1025D80009A91B480A940D930997FFF7BFFC4FF40C
:1025E8006743304609A909930A940D95FFF7B6FC8D
:1025F8004EF6FF7309A9134809930A940D95FFF73E
:10260800ADFC0A94104C0D95F723204609A90993AF
:102618000125FFF7A3FC304609A909970A95FFF79A
:102628009DFC0823204609A909930A95FFF796FC03
:102638000FB0F0BD003802400020024000100240F8
:1026480000180240002402400028024038B5282320
:10265800C36209230363352343630B23836340F277
:102668001B13036440F21523C36340F21D138364F4
:1026780040F2352304464364FFF72EFF4FF4F0730E
:10268800A3674FF48873E3672546002384F84C302A
:1026980084F84D3084F84E30E36123626362A362AC
:1026A8000C4B45F8183F2846FEF709FC10B92046A0
:1026B800FFF720FF2846FEF745FB07484FF48051F7
:1026C8000122FFF73BFD054808210122BDE83840FB
:1026D800FFF734BD00680140002002400028024096
:1026E800F8B50446012700254FF040460773FFF769
:1026F800ADFF2046E5812582656126606560A5609D
:10270800FFF728FD20464FF6FF7126606560FFF74A
:1027180071FD054B204684E888004FF6FF71FFF7EE
:1027280069FD26606560F8BD00FC03C002480349E6
:10273800034A01F03DBC00BFF00800204F2100080B
:1027480000000020704700002DE9F7430023012214
:1027580000F1500689461021026541658265C3650E
:1027680031464FF6FF7204460193FFF7CEFB1B4D2F
:10277800013D01D000BFFBE7102702234FF00108FD
:10278800236531466765C4F85880E56520464FF6ED
:10279800FF72FFF7BAFB032323650823A3653146BD
:1027A8006765E56520464FF6FF72FFF7AEFB4FF40D
:1027B8000873019304232365019BE36531464FF6B3
:1027C800FF726765C4F858802046FFF79EFB2046D5
:1027D8004946FFF7B1FB03B0BDE8F083C14B0300E6
:1027E80010B58CB03D4B3E4800220092996B41F0E9
:1027F80001019963996B01F001010091009901921F
:10280800196B41F004011963196B01F0040101917E
:1028180001990292196B41F008011963196B01F0D3
:102828000801029102990392196B41F01001196392
:10283800196B01F01001039103990492196B41F08F
:1028480020011963196B01F0200104910499059284
:10285800196B41F040011963196B01F040010591B2
:10286800059906921A6B42F080021A631B6B03F0FB
:1028780080030693069B02230CAC08930A930C234F
:102888000B93082344F8143D012221460992FFF7CF
:1028980065FB4CF20B73214612480793FFF75EFB6A
:1028A8004FF68373214610480793FFF757FB4FF6FF
:1028B8003F0321460D480793FFF750FB48F23313B7
:1028C80021460B480793FFF749FB2823094807933C
:1028D8002146FFF743FB0CB010BD00BF0038024093
:1028E80000080240000C02400010024000140240A0
:1028F80000180240001C0240042210B5C263C260E6
:102908001022026140224261134B03604FF480722F
:10291800022382614FF400620721436343648364A6
:10292800C364026200234FF4805204468163016449
:1029380043608360C36142628362FFF751FF04F121
:1029480034012046FFF7C1FA204640F20361BDE892
:102958001040FFF7F9BE00BF400100A010B50C46BB
:10296800FFF7CAFF1148C4B1114B1B22504337303F
:1029780043F8040F0F4A9342F7D10C4B4FF04042F3
:1029880001201B214B4352F8041B37338B4218BFDD
:10299800002012F17E5FF4D110BD4FF04043186063
:1029A8001B681B1A5842584110BD00BF3412FECA9A
:1029B800FCFFFFBFFCFF7FC002480349034A01F048
:1029C800F7BA00BFB00900204D270008000000201A
:1029D800142300BF013B13F0FF03FAD17047B1B9CC
:1029E80003689A6822F440529A609A6842F4405206
:1029F8009A605A6822F040025A605A685A601A6807
:102A080022F440521A601A6842F4805243E00129C5
:102A18000ED103689A6822F440529A609A6842F488
:102A280040529A601A6822F440521A601A6832E0DA
:102A3800022913D103689A6822F440529A609A686E
:102A480042F440529A601A6822F440521A601A6896
:102A58001A60DA6842F48052DA607047032910D1AC
:102A680003689A6822F440529A609A6842F4405285
:102A78009A601A6822F440521A601A6842F40052A6
:102A880009E0042908D103681A6822F440521A6040
:102A98001A6842F440521A607047B1B903689A68DC
:102AA80022F440429A609A6842F440429A605A6816
:102AB80022F080025A605A685A601A6822F440422A
:102AC8001A601A6842F4804243E001290ED1036873
:102AD8009A6822F440429A609A6842F440429A60A6
:102AE8001A6822F440421A601A6832E0022913D1A7
:102AF80003689A6822F440429A609A6842F4404215
:102B08009A601A6822F440421A601A681A60DA68F1
:102B180042F48042DA607047032910D103689A684A
:102B280022F440429A609A6842F440429A601A68D5
:102B380022F440421A601A6842F4004209E004296B
:102B480008D103681A6822F440421A601A6842F4ED
:102B580040421A60704738B5051D044601212846D1
:102B6800FFF73DFF20460121FFF797FF2846012187
:102B7800FFF735FF20460021FFF78FFF2846002189
:102B8800FFF72DFF20460121FFF787FFBDE83840FA
:102B9800FFF71EBF38B5051D044600212846FFF77C
:102BA8001EFF20460021FFF778FF28460121FFF786
:102BB80016FF20460021FFF770FF28460121FFF786
:102BC8000EFF20460121FFF768FFBDE83840FFF7F8
:102BD800FFBEF8B506460F460824351D00212846D5
:102BE800FFF7FDFEFFF7F4FE3B064CBF0121002175
:102BF8003046FFF752FF013CFFF7EAFE2846012165
:102C0800FFF7EDFE7F00FFF7E3FE14F0FF04FFB2CD
:102C1800E3D128462146FFF7E2FEFFF7D9FE30460A
:102C28000121FFF73AFFFFF7D3FE28460121FFF7FE
:102C3800D6FEFFF7CDFE33681E6928462146FFF70A
:102C4800CEFEFFF7C5FE86F08000C0F3C010F8BDC9
:102C58002DE9F04106468846371D0121FFF71DFF83
:102C680038460021FFF7BBFEFFF7B2FE0825002417
:102C780038460121FFF7B3FEFFF7AAFE33681B6948
:102C880064001B0638464FF00001E4B205F1FF3539
:102C980048BF44F00104FFF7A2FEFFF799FE15F0C4
:102CA800FF05E5D13046B8F1000F01D0294600E014
:102CB8000121FFF7F2FEFFF78BFE38460121FFF7EF
:102CC8008EFEFFF785FE38460021FFF788FEFFF7E6
:102CD8007FFE30460121FFF7E0FEFFF779FE204630
:102CE800BDE8F081B1B903689A6822F440229A607D
:102CF8009A6842F440229A605A6822F400725A6034
:102D08005A685A601A6822F440221A601A6842F413
:102D1800802243E001290ED103689A6822F44022F8
:102D28009A609A6842F440229A601A6822F4402213
:102D38001A601A6832E0022913D103689A6822F4EB
:102D480040229A609A6842F440229A601A6822F4F3
:102D580040221A601A681A60DA6842F48022DA603F
:102D68007047032910D103689A6822F440229A60B8
:102D78009A6842F440229A601A6822F440221A6043
:102D88001A6842F4002209E0042908D103681A6885
:102D980022F440221A601A6842F440221A607047EE
:102DA80010B58AB0324B00220192196B41F0010133
:102DB8001963196B01F00101019101990292196BD4
:102DC80041F002011963196B01F0020102910299A5
:102DD8000392196B41F004011963196B01F00401A6
:102DE800039103990492196B41F008011963196B57
:102DF80001F00801049104990592196B41F0100142
:102E08001963196B01F01001059105990692196B68
:102E180041F020011963196B01F020010691069910
:102E28000792196B41F040011963196B01F04001D9
:102E3800079107990892196B41F080011963196B82
:102E480001F080010891089909921A6B42F4807286
:102E58001A631B6B03F480730993099B054B03608A
:102E680001210446FFF73EFF20460AB010BD00BF0F
:102E78000038024000040240B1B903689A6822F49D
:102E880040329A609A6842F440329A605A6822F452
:102E980080725A605A685A601A6822F440321A607E
:102EA8001A6842F4803243E001290ED103689A6817
:102EB80022F440329A609A6842F440329A601A6862
:102EC80022F440321A601A6832E0022913D10368EA
:102ED8009A6822F440329A609A6842F440329A60C2
:102EE8001A6822F440321A601A681A60DA6842F4E2
:102EF8008032DA607047032910D103689A6822F497
:102F080040329A609A6842F440329A601A6822F411
:102F180040321A601A6842F4003209E0042908D1E4
:102F280003681A6822F440321A601A6842F4403280
:102F38001A60704710B58AB0324B00220192196BA3
:102F480041F001011963196B01F001010191019927
:102F58000292196B41F002011963196B01F0020129
:102F6800029102990392196B41F004011963196BDC
:102F780001F00401039103990492196B41F00801CF
:102F88001963196B01F00801049104990592196BF2
:102F980041F010011963196B01F0100105910599B1
:102FA8000692196B41F020011963196B01F0200199
:102FB800069106990792196B41F040011963196B44
:102FC80001F04001079107990892196B41F08001BF
:102FD8001963196B01F080010891089909921A6B1D
:102FE80042F480721A631B6B03F480730993099B84
:102FF800054B036001210446FFF73EFF20460AB057
:1030080010BD00BF003802400004024010B5094C52
:103018002046FFF7C5FE201DFFF78CFF2268536985
:1030280023F4007353616268536923F48073536116
:1030380010BD00BF100A0020704770470068704735
:10304800F8B504460F4616461D46FFF784FD394677
:103058002046FFF7BEFD31462046FFF7BAFD204661
:103068002946FFF7B6FD2046FFF794FDF8BDF8B5F1
:1030780004460E461D461746FFF76DFD31462046AD
:10308800FFF7A7FD39462046FFF7A3FD2046FFF7C7
:1030980062FD46F001012046FFF79BFD069BEE18F6
:1030A800B542204605D00121FFF7D2FD05F8010BF6
:1030B800F6E7FFF76FFDF8BD13B50B220446522162
:1030C80013480123FFF7BCFF0E230093522114225B
:1030D800231D0F48FFF7CBFFE37BA27B43EA0222C5
:1030E800A2F1150141F6EA7399420ED823686A21C4
:1030F8004A4303EB4303A2F56262642192FBF1F2B7
:103108001344042293FBF2F32360206802B010BD3D
:10311800802A002070B504460D461646FFF71BFDB1
:1031280029462046FFF755FD31462046FFF751FD59
:103138002046FFF710FD45F001012046FFF749FD45
:1031480000212046FFF784FD05462046FFF722FDB3
:10315800284670BD70B500240C70494801230D46FF
:10316800164652218022FFF76BFF45485221FF2265
:103178000123FFF765FF2246234641485221FFF706
:103188005FFF06233E485221FF22FFF759FF5221D5
:1031980083223B48FFF7BEFF40F004035221384822
:1031A8008322DBB2FFF74CFF35485221FF22072369
:1031B800FFF746FF3248522181220123FFF740FFE3
:1031C8002F48522180220123FFF73AFF2C48522131
:1031D80094226B23FFF734FF23462948294C5221B8
:1031E8008322FFF72DFF264852218322FFF792FF03
:1031F80018B9013CF7D1204670BD0123204852215F
:103208008322FFF71DFF522192221D48FFF782FFFC
:1032180000F07F03C0F3C0102B7052213070812260
:1032280017480023FFF70CFF062315485221FF22F9
:10323800FFF706FF522183221148FFF76BFF522147
:10324800034683220E48FFF7FBFE0D485221FF225A
:103258000123FFF7F5FE0A48522100220123FFF758
:10326800EFFE07485221FF220023FFF7E9FE04483A
:10327800522180220023FFF7E3FE012070BD00BF2A
:10328800802A002041420F00F0B5522187B08922E0
:1032980005466F48FFF73EFF40F0010352216C4896
:1032A8008922DBB2FFF7CCFE69485221C022FFF722
:1032B80031FFEE2840F0C7806548664C5221BF2296
:1032C8000123FFF7BDFE013C01D000BFFBE76048CA
:1032D800522188222346FFF7B3FE5D4852218022FF
:1032E8000123FFF7ADFE5A485221FF220123FFF7C1
:1032F800A7FE2346564852212246FFF7A1FE522137
:1033080091225348FFF706FF5148522122460123D4
:10331800FFF796FE4E485221FF222346FFF790FE04
:1033280023464B4852218022FFF78AFE06A92846E9
:1033380001F80A4D0DF10F02FFF70CFF04AD06234B
:10334800009343485221B0222B46FFF790FE404895
:103358005221FF220123FFF773FE3D4852214F22DD
:103368002346FFF76DFE3A4852214E222C23FFF7E1
:1033780067FE37485221FF222346FFF761FE344893
:103388005221B423B622FFF75BFE9DF80F309DF85B
:103398000E60002B14BF0C2000202146E2B2D30897
:1033A800824206AF02F007023B4401D3B14209D181
:1033B800012707FA02F213F8087C27EA020203F849
:1033C800082C06E013F8083C1341DB0744BF013121
:1033D800C9B20134302CE1D11D48FFF7BCFB5221A2
:1033E8001B48FFF7F6FB1A48B021FFF7F2FB002451
:1033F800295D17480134FFF7ECFB062CF8D1144877
:10340800FFF7C8FB522184221148FFF783FE52219F
:1034180004460A220E480423FFF712FE0C485221E4
:10342800842204F0EF03FFF70BFE094852210B2218
:103438000123FFF705FE0648522100220223FFF769
:10344800FFFD002001E06FF0010007B0F0BD00BFF4
:10345800802A0020A1860100704710B5044600F0BC
:10346800A5FD204610BD00002DE9F043002187B0DE
:1034780007462B48FEF7BEFEFF238DF808308DF86F
:1034880009308DF80A30C82303930024A4F1640599
:1034980005FB05F3C3F51C53103307EE903A21489A
:1034A800214EB8EEE70A00F0C8FABDEEC00A46F8A9
:1034B800145010EE103A1D4D45F814300234CA2C41
:1034C800E4D106F5C67905F5C6786FF0630404FB08
:1034D80004F3C3F51C53103307EE903A1148B8EEC5
:1034E800E70A00F0AAFABDEEC00A49F8044F10EE48
:1034F800103A02345B42662C48F8043FE7D1049640
:10350800009502AB0ECB0648FEF766FF0448FEF7AF
:1035180037FF3B6901333B6107B0BDE8F08300BF6B
:10352800F0080020882A0020180A0020180E002021
:10353800034A10681B23584337301060704700BF98
:1035480008000020F8B5234B0360234C0023436098
:103558008360002203614FF47A730546C2604361B9
:1035680004F5AF57FFF7E4FF06461C48FEF7ECFDED
:10357800B6FBF0F303FB106044F8040CFFF7D8FF28
:1035880006461648FEF7E3FDB6FBF0F303FB1060B2
:103598002060FFF7CDFFC2074CBF02236FF0010385
:1035A8006360FFF7C5FFC3074CBF02236FF0010339
:1035B800A360FFF7BDFFC0B2E060FFF7B9FFC0B27C
:1035C8002061FFF7B5FFC0B260611C34BC42C9D1AD
:1035D8002846F8BDE84800081C120020F008002022
:1035E80070470000F0B572B600254FF0FF30142682
:1035F8000D4C6E43A719A6591EB97E68002E08BF48
:1036080028460135202DF2D1451C0AD01425C6B212
:103618006E43A5190027A7516960AA60EA602F7454
:103628006B7462B6F0BD00BFFC27002072B6074B72
:10363800142202FB01310B7C03F0FF001BB1087C54
:103648000023C0B20B7462B6704700BFFC2700208D
:103658002DE9F041074600240F4E142565437319E0
:103668001033B0465B788BB138462146FFF7DEFF52
:1036780060B173590BB173599847142303FB048342
:103688005A681AB1586803689B6898470134E4B2CD
:10369800202C28BF0024DFE7FC27002082B072B668
:1036A800034B1B68019362B6019802B0704700BFD4
:1036B800F827002038B54FF080431A69D20733D570
:1036C8004FF6FE721A6100241849142303FB0413F1
:1036D80003F1080250680D4618B15368013B536066
:1036E8001BE0986850601A7CFF2A1FBF1A7C0132C1
:1036F800D2B21A7414236343CA181032527862B9CA
:10370800CA580AB1CB589847142303FB04535A6884
:103718001AB1586803689B6898470134202CD3D1A4
:10372800034A13680133136038BD00BFFC2700202B
:10373800F827002010B592B00C46FEF799FB002C34
:103748004FEA400308BF0124A04207EE903A28BF81
:103758002046B8EE677A07EE900AF8EE677A0024FA
:10376800C7EE277A1C4B0294196C41F001011964C9
:103778001B6C079403F001030293029B05944FF01E
:1037880080430393BCEEE77A03A817EE102A120CC5
:10379800531C07EE103AB8EEC77A0492C7EE877A40
:1037A8000894B7EE007A77EEC77AFCEEE77ACDEDAB
:1037B800017ABDF804300693FEF728F80321224663
:1037C8001C20FDF791FB1C20FDF7BEFB03A8FDF7AD
:1037D800AEFF12B010BD00BF0038024038B500245B
:1037E8000D4D142161436A18002301346B50202CBD
:1037F8004FF47A7153609160D36013745374EFD1AE
:10380800064A1360064A0360136C43F0010313640D
:10381800FFF790FF62B638BDFC270020F82700208C
:103828000038024002480349034A00F0C1BB00BF08
:103838007C2A0020E9350008000000208AB0374BB8
:1038480000220192196B41F001011963196B01F013
:103858000101019101990292196B41F0020119636A
:10386800196B01F00201029102990392196B41F060
:1038780004011963196B01F004010391039904927F
:10388800196B41F008011963196B01F008010491E3
:1038980004990592196B41F010011963196B01F035
:1038A8001001059105990692196B41F020011963E1
:1038B800196B01F02001069106990792196B41F0E6
:1038C80040011963196B01F04001079107990892AB
:1038D800196B41F080011963196B01F0800108919F
:1038E800089909921A6B42F480721A631B6B03F4ED
:1038F80080730993099B0A4B03609A6822F440423B
:103908009A609A6842F440429A601A6822F44042E7
:103918001A601A681A600AB0704700BF003802407F
:10392800001402408AB0374B00220192196B41F013
:1039380001011963196B01F00101019101990292CA
:10394800196B41F002011963196B01F00201029130
:1039580002990392196B41F004011963196B01F084
:103968000401039103990492196B41F0080119634A
:10397800196B01F00801049104990592196B41F043
:1039880010011963196B01F0100105910599069250
:10399800196B41F020011963196B01F020010691A0
:1039A80006990792196B41F040011963196B01F0F0
:1039B8004001079107990892196B41F0800119633A
:1039C800196B01F080010891089909921A6B42F469
:1039D80080721A631B6B03F480730993099B0A4B6B
:1039E80003609A6822F440529A609A6842F44052FE
:1039F8009A601A6822F440521A601A681A600AB06B
:103A0800704700BF003802400014024010B5094C4E
:103A18002046FFF713FF201DFFF784FF2268536934
:103A280023F0800353616268536923F040035361B4
:103A380010BD00BF802A00207047B1EEC00A704751
:103A480002480349034A00F0B3BA00BF882A00209D
:103A5800413A00080000002010B5044600F045FA7D
:103A6800204610BD38B505464C1E14F8011F19B183
:103A7800284600F091FAF8E738BD30B585B00B1E3E
:103A88004FF00002BABF5B42012414468DF80F20A4
:103A98000A210A2293FBF2F502FB153304AA0A4411
:103AA800303302F80C3C4A1ED2B22B460DB11146F7
:103AB800EFE72CB104AB13442D2103F80C1C11467D
:103AC80001AB1944FFF7CEFF05B030BD1FB5002389
:103AD8008DF80F300A220A23B1FBF3F403FB141309
:103AE80004A91144303301F80C3C531EDBB22146C3
:103AF8000CB11A46EFE701AB9918FFF7B3FF04B012
:103B080010BD1FB500238DF80F300A2201F00F03F6
:103B180004AC092B144494BF3033573304F80C3CDD
:103B2800090902F1FF33DBB201D01A46EEE701AB17
:103B38009918FFF797FF04B010BDF8B5B5EEC00AA5
:103B48002DED028BF1EE10FA0D46064646BFB1EE9A
:103B5800400A2D21202101230022AA4203D20A2053
:103B680043430132F9E7BDEEC08A3046F8EEC87A21
:103B780030EE670A07EE903AF8EE677A20EE270AE9
:103B8800BDEEC00A10EE104A002CB8BF644200F027
:103B980003FA304618EE101AFFF76FFF30462E2151
:103BA80000F0FAF9002301220A214A430133A24214
:103BB800DBB2F9DBED1AEDB20027AF42304604D292
:103BC800302100F0E9F90137F7E7BDEC028B214617
:103BD800BDE8F840FFF751BF0EB477B507AB044610
:103BE80053F8046B01930025715D002954D02529F1
:103BF80004D0204600F0D0F90135F5E7731959785B
:103C0800692916D007D863292BD0662931D02529F0
:103C180040D120462AE0752913D0782919D0732974
:103C280038D1019B20461A1D19680192FFF71AFF27
:103C380030E0019B20461A1D19680192FFF71DFF0D
:103C480028E0019B20461A1D19680192FFF73EFFE4
:103C580020E0019B20461A1D19680192FFF751FFC9
:103C680018E0019B1A1D19780192204600F094F97A
:103C780010E0019B073323F0070303F10802D3E99F
:103C880000010192FCF7EEFA032100EE100A20462B
:103C9800FFF753FF0235A7E703B0BDE8704003B054
:103CA8007047000010B5054C204600F01DF920466D
:103CB8000349044ABDE8104000F07AB9892A002077
:103CC800613A00080000002010B5044B044640F893
:103CD800083BFFF7B2F9204610BD00BF384900087D
:103CE80010B50446FFF7F0FF204600F05FF92046C4
:103CF80010BD00004268536970B543F0020300F13B
:103D08000805536104462846FFF7D6F90948FFF726
:103D1800C5FC06462846FFF791F932460346064990
:103D28000648FFF759FF6268536923F0020353619D
:103D380070BD00BF7C2A0020F4480008892A0020B2
:103D48008AB03B4B00220192196B41F001011963C3
:103D5800196B01F00101019101990292196B41F06F
:103D680002011963196B01F0020102910299039291
:103D7800196B41F004011963196B01F004010391F7
:103D880003990492196B41F008011963196B01F04A
:103D98000801049104990592196B41F01001196307
:103DA800196B01F01001059105990692196B41F004
:103DB80020011963196B01F02001069106990792F9
:103DC800196B41F040011963196B01F0400107912B
:103DD80007990892196B41F080011963196B01F07A
:103DE80080010891089909921A6B42F480721A634B
:103DF8001B6B03F480730993099B0E4B03609A684D
:103E080022F00C029A609A6842F00C029A605A6892
:103E180022F002025A605A685A601A6822F00C02AC
:103E28001A601A6842F004021A600AB0704700BFAC
:103E3800003802400020024070B50F4B0F4E044678
:103E480004F1080540F8043BFFF77AFF2846FFF71E
:103E5800F3F830460A49FFF7BFFE30460949FFF735
:103E6800BBFE2846FFF710FA6268536943F0020365
:103E78005361204670BD00BF38490008892A0020D8
:103E88001C4900082049000800B58FB0FCF781FBE9
:103E9800114800F02BF81148FFF7A0FC0121104849
:103EA800FEF75CFD0F48FEF71BFC07A8FFF7C4FFF1
:103EB80007A94FF4FA7201230848FFF793FB01A8FA
:103EC800FFF740FB054801A932220123FFF78AFBCF
:103ED8000248FFF7BDFBFBE7892A00207C2A002067
:103EE800B0090020F00800207047704770B5A4B0F2
:103EF8000024254B00941A6B244842F001021A63EF
:103F08001A6B02F001020092009A01941A6B42F0B7
:103F180002021A631A6B02F002020192019A0294D9
:103F28005A6C42F010025A645B6C03F0100302935F
:103F3800029B4FF40073022503930726012303A96C
:103F48000593049506950796FEF708F8802303A9BC
:103F58000F48039304950796FEF700F80D4B089356
:103F68004FF4E13309930C230D9308A84FF4004351
:103F78000A940B940C940E940F9310941194FCF7DC
:103F880025FE24B070BD00BF00380240000002408A
:103F98000004024000100140034BDA69120601D404
:103FA80000BFF9E7996270470010014000F034B88B
:103FB80003460846194600F007B800BF014600202E
:103FC8000246034600F0D8BA10B40C461346014620
:103FD800224602205DF8044B00F0CEBA38B5084BF3
:103FE800084DED1AAC1018BFED1805D0013C55F876
:103FF800043D9847002CF9D1BDE8384000F052BC88
:10400800784900087C490008024B0146186800F00E
:104018000BB800BF38040020024B0146186800F0B6
:1040280055BB00BF380400202DE9F04F01F10B0506
:10403800162D83B0064627D935F0070500F1B6805E
:10404800A94200F2B38000F081FAB5F5FC7F22D2D4
:10405800C24FE80807EBC003DC689C4200F0C88147
:104068006368E168A56823F00303234430465A686F
:10407800E96042F001028D605A6000F069FA083484
:10408800204603B0BDE8F08F102900F28F8000F0C1
:104098005DFA1025DCE7680A00F08F80042800F23A
:1040A8005481A80938304100AC4F07EB8101CC6836
:1040B800A14206D10CE0002A80F28280E468A14285
:1040C80006D0636823F003035A1B0F2AF3DD013877
:1040D8000130A2493C6901F1080E744500F07D8168
:1040E800636823F003035A1B0F2A00F36381002A35
:1040F800C1F814E0C1F810E073DAB3F5007F80F07E
:104108003981DB0801EBC3084FEAA30C4A68D8F8E9
:104118000890C4F80890012303FA0CF31343C4F879
:104128000C804B60C8F80840C9F80C408210012484
:1041380094409C4262D8234206D120F003006400D8
:10414800234200F10400FAD007EBC008C4468146B8
:10415800DCF80C309C4507D141E1002980F25181FF
:10416800DB689C4500F03B815A6822F00302511B32
:104178000F29F2DD1C46D3F80CC054F8088F5A19E1
:1041880045F0010941F00105C3F804903046C8F82C
:104198000CC0CCF808807A613A61C2F80CE0C2F829
:1041A80008E05560515000F0D3F969E700240C236A
:1041B8002046336003B0BDE8F08F7E213F2073E7CF
:1041C8002344E1685A68A56842F00102E960304674
:1041D8008D605A6000F0BCF90834204603B0BDE891
:1041E800F08F234430465A6842F001025A6000F0CA
:1041F800AFF90834204603B0BDE8F08FBC686368A7
:1042080023F00308454504D8C5EB08030F2B00F33A
:104218008C80534BDFF858A11A68DAF80030013364
:104228002A4404EB080B00F0508102F580520F324B
:1042380022F47F6222F00F0211463046019200F00C
:1042480089F9B0F1FF3F8146019A00F04781834523
:1042580000F2EE80434B1968CB451144196000F019
:104268004281DAF80000DFF808E101301BBFCBEB30
:10427800090B5944CEF80090196019F0070100F0B5
:104288000781C1F10800C1F58051814408314A44D1
:10429800C2F30B02C2EB010A51463046019300F00B
:1042A80059F9431C019B00F02C81C9EB00025244D0
:1042B80042F001021968C7F808905144BC42C9F895
:1042C80004201960DFF89CA016D0B8F10F0F40F257
:1042D800EE806268A8F10C0323F00703E01802F0EF
:1042E80001024FF0050E1A430F2B6260C0F804E07C
:1042F800C0F808E000F209811B4BBC681A689142BB
:1043080088BF1960194B1A689142626888BF1960A2
:1043180022F003029542A2EB050301D80F2B04DC1F
:10432800304600F015F90024AAE6621943F00103AB
:1043380045F0010565603046BA60536000F008F941
:104348000834204603B0BDE8F08F142868D95428F3
:1043580000F29780280B6E304100A5E63C0400204F
:10436800942A0020982A0020902A00208C2A0020D5
:10437800480800205A0A042A55D9142A00F2A780AE
:104388005B324FEA420C07EB8C0CDFF8BC81DCF89F
:10439800081061457FD04A6822F00302934202D296
:1043A80089688C45F7D1CA687B68E260A16094602F
:1043B800CC60BBE6631942F0010745F00105656072
:1043C80030464B610B61C3F80CE0C3F808E05F604E
:1043D8009A50083400F0BCF852E64B68A6E609F19A
:1043E800010919F0030F0CF1080C7FF4B1AE2CE0B1
:1043F80004F108036469A34208BF02303FF469AEC0
:104408002EE61A441C465168DB6854F8085F41F0F0
:10441800010151603046EB609D6000F099F82FE68D
:104428005B30410040E69A0938324FEA420CAAE76D
:10443800BC42454B3FF40EAF9C68626822F0030211
:1044480068E7D8F8008098457CD110F0030FA8F1F0
:10445800080300F1FF30F4D17B6823EA04037B6092
:1044680064009C423FF6CAAE002C3FF4C7AE23421C
:1044780048467FF469AE6400234200F10400FAD094
:1044880062E6B0F5AA7F18D8E80B773041000BE652
:104498004FF48051FBE6D8F8043092104FF0010C2D
:1044A8000CFA02F21343C8F804300A467DE70123E8
:1044B800C9F804304C4600222CE740F25453984285
:1044C8001CD8A80C7C304100EEE51032B4E6542A22
:1044D80023D81A0B6E324FEA420C54E7BC68626864
:1044E80022F0030216E7CBF30B0000287FF4B9AEE5
:1044F8004244BB6842F001025A60FDE6FC217E207E
:10450800D2E501224FF0000AD4E604F10801304652
:1045180000F0DCF8DAF80010EEE6B2F5AA7F04D86D
:10452800DA0B77324FEA420C2DE740F254518A42B7
:1045380004D89A0C7C324FEA420C24E74FF0FC0C6A
:104548007E2220E77B688BE73C040020704700BF91
:10455800704700BF38B5074C00230546084623605E
:1045680000F08CF9431C00D038BD2368002BFBD029
:104578002B6038BDC42A00202DE9F047254C25685A
:10458800D5F848410646884692469946CCB36068B5
:104598001F2818DC431C7EB104EB80050121C5F8F7
:1045A80088A0D4F8887101FA00F21743022EC4F8E3
:1045B8008871C5F808911ED00230636044F82080E5
:1045C8000020BDE8F087144B03B34FF4C870FFF721
:1045D8001BFD0446D0B1D5F84831002780E8880093
:1045E800C5F8484138460123C4F88871C4F88C716D
:1045F800002EE1D0D0E7D4F88C110A43C4F88C21FE
:10460800DAE705F5A674C5F84841C0E74FF0FF3072
:10461800BDE8F0874849000811400008024B13B173
:104628000248FFF7CBBC704700000000E53F0008D8
:10463800F8B5234F0C460646FFF788FFBB685D6850
:1046480025F00305291B01F6EF7121F47F6121F0A4
:104658000F01A1F58054B4F5805F07DB30460021D7
:10466800FFF778FFBB682B44984204D03046FFF729
:104678006FFF0020F8BD30466142FFF76BFF013045
:104688000DD0104BBA6819682D1B45F0010530464E
:10469800091B55601960FFF75BFF0120F8BD304624
:1046A8000021FFF757FFBA68831A0F2BDEDD064C8F
:1046B8000449246843F00103001B53600860D5E7F0
:1046C8003C040020982A00204808002000294ED0E9
:1046D8002DE9F0410C468046FFF738FF54F8047C7A
:1046E800624927F00102A4F10805AB188E685868E2
:1046F8009E4220F003005AD0FE0758600BD454F8AD
:10470800087CED1B01F1080EAC6874453A4467D08B
:10471800EF68E760BC601C186468E4070CD4544F69
:104728009C68BC4202447CD0D868E06042F0010337
:1047380084606B60AA5003E042F001036B60AA50EA
:10474800B2F5007F14D2D20801EBC20348689F6813
:10475800AF609210012404FA02F21043EB60486043
:104768009D60FD604046BDE8F041FFF7F1BE70472F
:10477800530A042B47D8930903F13804600001EB6E
:1047880080003A498368834243D0596821F0030185
:10479800914202D99B689842F7D1DA68EA60AB6027
:1047A80040469560DD60BDE8F041FFF7D1BEFF07E8
:1047B800024407D454F8083CED1A1A44A868EB6878
:1047C800C36098602B4B1B6842F001009A426860F6
:1047D8008D60C7D3284B40461968FFF729FFC1E70A
:1047E80019184968C90709D4D9689B68024442F076
:1047F8000100D9608B606860AA50B3E742F00103FA
:104808006B60AA50AEE7142B14D803F15B04600068
:10481800B5E74A68A4100120A04002434A601A463E
:10482800BCE742F001034D610D61EC60AC606B6068
:10483800AA5097E7542B04D8130B03F16E046000B9
:104848009DE7B3F5AA7F04D8D30B03F17704600082
:1048580095E740F25450834204D8930C03F17C044A
:1048680060008CE7FC207E2489E700BF3C04002020
:104878004404002044080020942A0020044A0549E2
:104888001368002B08BF0B46184410601846704781
:10489800C02A0020C82A0020F8B500BFF8BC08BC10
:1048A8009E467047F8B500BFF8BC08BC9E467047E6
:1048B800001010100410101002101010080104024B
:1048C80008000000000102030401020304060708AF
:1048D80009000000000000000000000000000000C7
:1048E8006134000863340008713400087570746915
:1048F8006D65202575205B6D735D2C206C6173657B
:10490800722064697374616E6365202569205B6D2C
:104918006D5D0A000A0A0A00696E666F2074617389
:104928006B20696E69740A00000000000000000036
:10493800D13C0008E93C0008FD3C000843000000A9
:04494800100000203B
:08494C0068F6FF7F0100000086
:10495400254600083502000835270008C12900084B
:10496400153000082D380008153A0008493A0008A7
:04497400AD3C00084E
:044978000D02000824
:10497C00000000000024F400010000000000000012
:10498C0000000000FC02002064030020CC03002087
:10499C00000000000000000000000000000000000B
:1049AC0000000000000000000000000000000000FB
:1049BC000000000044490008000000000000000056
:1049CC0000000000000000000000000000000000DB
:1049DC0000000000000000000000000000000000CB
:1049EC0000000000000000000000000000000000BB
:1049FC0000000000000000000000000000000000AB
:104A0C00000000000000000000000000000000009A
:104A1C00000000000000000000000000000000008A
:104A2C000000000000000000010000000000000079
:104A3C000E33CDAB34126DE6ECDE05000B0000003E
:104A4C00000000000000000000000000000000005A
:104A5C00000000000000000000000000000000004A
:104A6C00000000000000000000000000000000003A
:104A7C00000000000000000000000000000000002A
:104DAC0000000000000000001000002000000000C7
:104DBC00000000003C0400203C04002044040020BF
:104DCC00440400204C0400204C0400205404002017
:104DDC00540400205C0400205C04002064040020C7
:104DEC00640400206C0400206C0400207404002077
:104DFC00740400207C0400207C0400208404002027
:104E0C00840400208C0400208C04002094040020D6
:104E1C00940400209C0400209C040020A404002086
:104E2C00A4040020AC040020AC040020B404002036
:104E3C00B4040020BC040020BC040020C4040020E6
:104E4C00C4040020CC040020CC040020D404002096
:104E5C00D4040020DC040020DC040020E404002046
:104E6C00E4040020EC040020EC040020F4040020F6
:104E7C00F4040020FC040020FC04002004050020A5
:104E8C00040500200C0500200C0500201405002052
:104E9C00140500201C0500201C0500202405002002
:104EAC00240500202C0500202C05002034050020B2
:104EBC00340500203C0500203C0500204405002062
:104ECC00440500204C0500204C0500205405002012
:104EDC00540500205C0500205C05002064050020C2
:104EEC00640500206C0500206C0500207405002072
:104EFC00740500207C0500207C0500208405002022
:104F0C00840500208C0500208C05002094050020D1
:104F1C00940500209C0500209C050020A405002081
:104F2C00A4050020AC050020AC050020B405002031
:104F3C00B4050020BC050020BC050020C4050020E1
:104F4C00C4050020CC050020CC050020D405002091
:104F5C00D4050020DC050020DC050020E405002041
:104F6C00E4050020EC050020EC050020F4050020F1
:104F7C00F4050020FC050020FC05002004060020A0
:104F8C00040600200C0600200C060020140600204D
:104F9C00140600201C0600201C06002024060020FD
:104FAC00240600202C0600202C06002034060020AD
:104FBC00340600203C0600203C060020440600205D
:104FCC00440600204C0600204C060020540600200D
:104FDC00540600205C0600205C06002064060020BD
:104FEC00640600206C0600206C060020740600206D
:104FFC00740600207C0600207C060020840600201D
:10500C00840600208C0600208C06002094060020CC
:10501C00940600209C0600209C060020A40600207C
:10502C00A4060020AC060020AC060020B40600202C
:10503C00B4060020BC060020BC060020C4060020DC
:10504C00C4060020CC060020CC060020D40600208C
:10505C00D4060020DC060020DC060020E40600203C
:10506C00E4060020EC060020EC060020F4060020EC
:10507C00F4060020FC060020FC060020040700209B
:10508C00040700200C0700200C0700201407002048
:10509C00140700201C0700201C07002024070020F8
:1050AC00240700202C0700202C07002034070020A8
:1050BC00340700203C0700203C0700204407002058
:1050CC00440700204C0700204C0700205407002008
:1050DC00540700205C0700205C07002064070020B8
:1050EC00640700206C0700206C0700207407002068
:1050FC00740700207C0700207C0700208407002018
:10510C00840700208C0700208C07002094070020C7
:10511C00940700209C0700209C070020A407002077
:10512C00A4070020AC070020AC070020B407002027
:10513C00B4070020BC070020BC070020C4070020D7
:10514C00C4070020CC070020CC070020D407002087
:10515C00D4070020DC070020DC070020E407002037
:10516C00E4070020EC070020EC070020F4070020E7
:10517C00F4070020FC070020FC0700200408002096
:10518C00040800200C0800200C0800201408002043
:10519C00140800201C0800201C08002024080020F3
:1051AC00240800202C0800202C08002034080020A3
:0C51BC003408002000000200FFFFFFFF8D
:0400000508000329C3
:00000001FF
