:020000040800F2
:10000000000005203D030008210300083303000819
:10001000210300082103000821030008000000005C
:1000200000000000000000000000000021030008A4
:10003000210300080000000021030008210300083C
:100040002103000821030008210300082103000800
:1000500021030008210300082103000821030008F0
:1000600021030008210300082103000821030008E0
:1000700021030008210300082103000821030008D0
:1000800021030008210300082103000821030008C0
:1000900021030008210300082103000821030008B0
:1000A00021030008210300082103000821030008A0
:1000B0002103000821030008210300082103000890
:1000C0002103000821030008210300082103000880
:1000D0002103000821030008210300082103000870
:1000E0002103000821030008210300082103000860
:1000F0002103000821030008210300082103000850
:10010000210300082103000821030008210300083F
:10011000210300082103000821030008210300082F
:10012000210300082103000821030008210300081F
:10013000210300082103000821030008210300080F
:1001400021030008210300082103000821030008FF
:1001500021030008210300082103000821030008EF
:1001600021030008210300082103000821030008DF
:1001700021030008210300082103000800000000FB
:1001800021030008210300082103000821030008BF
:1001900021030008210300082103000821030008AF
:1001A000210300082103000821030008210300089F
:1001B000210300082103000821030008210300088F
:0801C0002103000821030008DF
:1001C8008811000800000020300400208811000871
:1001D8000000FFFF0000FFFF300400205004002053
:1001E8000000FFFF0000FFFFF8B500BFF8BC08BC27
:1001F8009E467047F8B500BFF8BC08BC9E467047DD
:0C0208007910000881020008590200086B
:10021400044B05481B1A062B02D9044B03B118479B
:10022400704700BF330400203004002000000000A9
:1002340005490648091A891001EBD171491002D009
:10024400034B03B1184770473004002030040020EA
:100254000000000010B5064C237843B9FFF7D8FF1F
:10026400044B13B10448AFF300800123237010BD85
:1002740030040020000000007C11000808B5084B81
:100284001BB108480849AFF300800848036813B954
:10029400BDE80840CCE7064B002BF9D09847F7E7B8
:1002A400000000007C110008340400203004002009
:1002B40000000000134B002B08BF114B9D46A3F513
:1002C400803A00218B460F461148124A121A00F058
:1002D40031FE0D4B002B00D098470C4B002B00D067
:1002E40098470020002104000D000B4800F0CEFDCB
:1002F40000F0F8FD2000290000F0AAFD00F0CCFD7C
:1003040000000800000005200000000000000000BC
:100314003004002050040020BD0E0008684620F080
:1003240007018D4601B5BDE8014085467047684622
:1003340020F007018D46FEE70E490F4B5B1A9B1018
:1003440000229A4206D00D4850F8220041F82200BB
:100354000132F6E70A4AD2F8883043F47003C2F84F
:10036400883002F50C72536823F04043536000F068
:100374006FBD00BF00000020300400208811000879
:1003840000ED00E010B592B0012306934FF48033E2
:1003940007934FF480030D9319230E934FF4D873EE
:1003A40002240F9306A809230C941094119300F0CF
:1003B40017F900B1FEE700F083F800B1FEE70F2360
:1003C40001934FF4A0530390049301A84FF4805376
:1003D40007210294059300F0DDFA00B1FEE712B0A4
:1003E40010BD0000204B5A6942F48022F0B55A61D6
:1003F400BFF34F8FBFF34F8FBFF36F8F0021C3F84D
:1004040050125A6942F400325A61BFF34F8FBFF35E
:100414006F8FC3F88410D3F8803003F00704C3F35C
:100424004E320434C3F3C903B3FA83F505F01F0550
:10043400BFF34F8F02FA04F7194601FA05F60A488A
:100444003E4311F1FF31C0F86062F6D212F1FF327F
:10045400F0D2BFF34F8F436943F480334361BFF35A
:100464004F8FBFF36F8FF0BD00ED00E010B5044671
:1004740000F0BAFB4FF47A73B0FBF3F000F09AF893
:100484004FF0FF302146002200F064F8002010BD38
:10049400074A08B5136843F400731360032000F09F
:1004A40047F80F20FFF7E2FF00F0A6FC002008BD8C
:1004B400003C0240014B1868704700BF4C04002008
:1004C400194B1A6C13B542F080521A641B6C174A0C
:1004D40003F080530193019B136843F4803313604A
:1004E400FFF7E8FF0446114B5A68D20307D4FFF71D
:1004F400E1FF001BB0F57A7FF5D9032012E01A68FA
:1005040042F400321A60FFF7D5FF0446074B5B68DC
:100514009B0306D4FFF7CEFF001BB0F57A7FF5D915
:10052400EBE7002002B010BD00380240007000402C
:10053400074AD36823F4E0631B041B0C43F0BF6336
:1005440043F4003300F0070043EA0023D36070470C
:1005540000ED00E0154BDB68C3F3022370B5C3F173
:1005640007051C1D042D28BF0425062C8CBF033B46
:100574000023012404FA03F6AC40013C013E21406F
:1005840099403240002842EA01024FEA0212AFBF0A
:1005940000F1604000F00F00054BD2B2A5BF00F59A
:1005A4006140D2B21A5480F8002370BD00ED00E01F
:1005B40014ED00E00138B0F1807F3FBF064B074ADD
:1005C4005860F0213FBF82F8231000200722986072
:1005D40034BF1A600120704710E000E000ED00E035
:1005E400036873B5DE07044603D423689D0773D4F8
:1005F400C5E0A54B9A6802F00C02042A07D09A6859
:1006040002F00C02082A0BD15B68580208D59E4BF5
:100614001B689903E9D56368002BE6D10120B5E195
:10062400994B1A6822F480321A601A6822F48022E4
:100634001A601A6822F480321A60FFF73BFF0546FD
:10064400914B1A68920308D5FFF734FF41F28833BF
:10065400401B9842F4D9032098E11A6822F48032AE
:100664001A606268B2F5803F03D11A6822F48022CE
:1006740005E0B2F5A02F08D11A6842F480221A606E
:100684001A6842F480321A6008E0196821F4802163
:100694001960196821F48031196072B1FFF70AFFFB
:1006A4000546794B1B689E039FD4FFF703FF41F275
:1006B4008833401B9842F4D9CDE7FFF7FBFE05468B
:1006C400714B1B68980390D5FFF7F4FE41F2883311
:1006D400401B9842F4D9BEE76B4B9A6812F00C0F9A
:1006E40007D09A6802F00C02082A16D15B685902F6
:1006F40013D4654B1A68920702D5E268012A8DD19A
:100704001968F82090FAA0F02269B0FA80F021F07C
:10071400F80182400A431A6031E0E2685A4BEAB1B8
:100724001A6842F001021A60FFF7C4FE05465648F3
:1007340003689E0705D4FFF7BDFE401B6428F6D965
:1007440089E70268F82191FAA1F12369B1FA81F1EC
:1007540022F0F8028B401343036010E01A6822F081
:1007640001021A60FFF7A6FE0546474B1B6899076E
:1007740005D5FFF79FFE401B6428F6D96BE7236875
:100784001A0703D423685B0765D524E062693E4BEE
:1007940082B15A6F42F001025A67FFF78BFE054699
:1007A400394B5B6F9E07EDD4FFF784FE401B642832
:1007B400F6D950E75A6F22F001025A67FFF77AFE22
:1007C4000546314B5B6F9807DCD5FFF773FE401B82
:1007D4006428F6D93FE72C4B1A6C42F080521A6415
:1007E4001B6C2A4A03F080530193019B136843F462
:1007F40080731360FFF75EFE0546244B1B68D90522
:100804002DD5214B1A6F22F001021A671A6F22F0BC
:1008140004021A671A6F22F001021A67FFF74AFEF0
:100824000546194B1A6F92071FD41A6F22F0010262
:100834001A67A268012A20D11A6F22F004021A67EB
:100844001A6F42F001021A67FFF734FE05460E4B99
:100854001B6F9E0726D5A16900293AD17BE0FFF7DB
:1008640029FE401B6428C8D9F5E6FFF723FE41F2B0
:100874008833401B9842D4D9EDE6052A08D11A6F73
:1008840042F00402DBE700BF003802400070004081
:10089400196F21F004011967196F21F0010119671B
:1008A40042B1D1E7FFF706FE41F28833401B98427C
:1008B400CDD9D0E6FFF7FEFD0546354B1B6F9807F3
:1008C400C9D5FFF7F7FD41F28833401B9842F4D9AC
:1008D400C1E62F4B9A6802F00C02082A3FF49EAE40
:1008E4001A68022922F080721A6042D1FFF7E2FDF1
:1008F40005462748036899012FD447F6C07696FA2F
:10090400A6F64FF44035B6FA86F695FAA5F54FF0FB
:100914007061B5FA85F591FAA1F1E369226AB1FA39
:1009240081F11A43636A42F00052B3401A43A36A46
:100934005B08013BAB401343E26A8A4013434360C4
:10094400036843F080730360FFF7B4FD0446104B63
:100954001B689A0107D5002018E0FFF7ABFD401B88
:100964006428C6D977E6FFF7A5FD001B6428EED9F5
:1009740071E6FFF79FFD0446054B1B689B01EAD512
:10098400FFF798FD001B6428F6D964E602B070BD39
:1009940000380240724A136803F00F03994270B59D
:1009A40004460D466BD9136823F00F030B43136001
:1009B400136803F00F038B4201D0012070BD01685E
:1009C4008B0741BF6748836823F0F002A36844BFE4
:1009D40013438360CE070BD421684D0740F1AF80E9
:1009E4006048836823F4E052E36813438360A6E01D
:1009F40062685C4B012A196802D111F4003F06E0D9
:100A0400022A02D111F0007F01E011F0020FD4D0CC
:100A1400996821F003010A439A60FFF74BFD63686C
:100A2400012B05460ED14F4B9B6803F00C03042B9E
:100A3400D2D0FFF73FFD41F28833401B9842F2D9F0
:100A4400032070BD022B14D1464B9B6803F00C03AA
:100A5400082BC1D0FFF72EFD41F28833401B98428A
:100A6400F2D9EDE7FFF726FD41F28833401B9842A7
:100A7400E6D83C4B9B6813F00C0FF3D1ACE701684C
:100A8400880741BF3748836823F0F002A36844BF56
:100A940013438360CA070BD4314A136823F00F034E
:100AA4002B431360136803F00F03AB4285D193E724
:100AB40062682C4B012A196802D111F4003F06E048
:100AC400022A02D111F0007F01E011F0020F3FF47D
:100AD40074AF996821F003010A439A60FFF7EAFCB6
:100AE4006368012B06460DD11E4B9B6803F00C0373
:100AF400042BD1D0FFF7DEFC41F28833801B9842EF
:100B0400F2D99DE7022B14D1164B9B6803F00C031A
:100B1400082BC1D0FFF7CEFC41F28833801B9842EA
:100B2400F2D98DE7FFF7C6FC41F28833801B984267
:100B340086D80C4B9B6813F00C0FF3D1ACE70B0772
:100B440041BF084A2169936823F4604344BF43EAE0
:100B5400C10393600F20FFF789FC002070BD00BF24
:100B6400003C02400038024010B51C4CA36803F05E
:100B74000C03042B2ED0082B2ED1626802F03F0305
:100B8400626847F6C07112F4800F626891FAA1F1AD
:100B940047F6C07000EA020008BF114AB1FA81F1B9
:100BA40020FA01F00EBFB2FBF3F20E49B1FBF3F2EF
:100BB40002FB00F3094A50684FF4403292FAA2F261
:100BC40000F44030B2FA82F2D04001304000B3FB6E
:100BD400F0F010BD034810BD014810BD00380240BC
:100BE4000024F40040787D0108B5FFF7BDFF084BF1
:100BF400F0229B6892FAA2F203F0F003B2FA82F2B6
:100C0400D340044AD35CD840034B186008BD00BFEE
:100C14000038024064110008000000202DE9F3416F
:100C24000F6800220123934003EA07059D4240F028
:100C3400D2804C6824F0100CBCF1020F14D14FEA9E
:100C4400D20E00EB8E0E02F00706DEF82030B6005E
:100C54004FF00F0808FA06F823EA08080B69B340B6
:100C640048EA0303CEF820304FEA420E0323066815
:100C740003FA0EF3DB4303EA060804F0030606FA5C
:100C84000EF60CF1FF3C48EA0606BCF1010F0660C3
:100C940011D8866803EA060CCE6806FA0EF64CEA0A
:100CA40006068660466826EA050CC4F300169640DC
:100CB4004CEA06064660C66803EA060C8B6803FA2B
:100CC4000EF64CEA0603C360E30040F18480454B12
:100CD4005E6C46F480465E645B6C22F0030606F1AB
:100CE400804603F4804306F59C36019302F0030C1E
:100CF400019BD6F808E04FEA8C0C0F2303FA0CF39F
:100D04002EEA030E384B984226D003F580639842AE
:100D140024D003F58063984222D003F5806398427F
:100D240020D003F5806398421ED003F58063984277
:100D34001CD003F5806398421AD003F5806398426F
:100D440018D003F58063984216D003F58063984267
:100D54000CBF09230A2310E000230EE001230CE05A
:100D640002230AE0032308E0042306E0052304E049
:100D7400062302E0072300E0082303FA0CF343EA06
:100D84000E03DFF868E0B360DEF80030EE4314F4DD
:100D9400803F14BF2B433340CEF80030DEF80430DC
:100DA400DFF848E014F4003F14BF2B433340CEF87F
:100DB4000430DEF8083014F4801F14BF2B43334092
:100DC400CEF80830DEF80C30A40254BF06EA03055E
:100DD4001D43064BDD600132102A7FF423AF02B0BD
:100DE400BDE8F0810038024000000240003C0140B0
:100DF40002B90904816170477047000030B50446A8
:100E040087B0C8B90D4B0E48196B41F48071196352
:100E14001B6B03F480730093009B01230225029350
:100E2400039301A9032301950493FFF7F7FE0448F4
:100E340029462246FFF7DCFF07B030BD00380240E8
:100E44000020024010F1FF3001D300BFFAE77047E1
:100E540008B5FFF7C7FAFFF71BFBFFF793FA00206B
:100E6400FFF7CCFF074C0848636923F00203636172
:100E7400FFF7E8FF6369044843F002036361FFF787
:100E8400E1FFEFE700200240809698000146002031
:100E94000246034600F09CB808B50021044600F061
:100EA400F3F8044B1868C36B03B19847204600F06D
:100EB40055F900BF7811000838B5084B084DED1AF4
:100EC400AC1018BFED1805D0013C55F8043D984707
:100ED400002CF9D1BDE83840FFF78EB910020008A4
:100EE4001402000870B50F4E0F4D761BB61018BFD4
:100EF400002405D0013455F8043B9847A642F9D1A3
:100F04000A4E0B4D761BFFF771F9B61018BF00247B
:100F140006D0013455F8043B9847A642F9D170BD78
:100F240070BD00BF08020008080200081002000893
:100F34000802000870B4840746D0541E002A41D029
:100F4400CDB2034602E0621EE4B3144603F8015B2B
:100F54009A07F8D1032C2ED9CDB245EA05250F2CDA
:100F640045EA054519D903F110022646103E0F2E15
:100F740042F8105C42F80C5C42F8085C42F8045CED
:100F840002F11002F2D8A4F1100222F00F0204F0D0
:100F94000F041032032C13440DD91E462246043A82
:100FA400032A46F8045BFAD8221F22F00302043213
:100FB400134404F003042CB1C9B21C4403F8011B0C
:100FC400A342FBD170BC704714460346C2E700BF7E
:100FD4002DE9F047254C2568D5F848410646884652
:100FE40092469946CCB360681F2818DC431C7EB136
:100FF40004EB80050121C5F888A0D4F8887101FAB2
:1010040000F21743022EC4F88871C5F808911ED067
:101014000230636044F820800020BDE8F087144B60
:1010240003B34FF4C870AFF300800446D0B1D5F8D1
:101034004831002780E88800C5F848413846012334
:10104400C4F88871C4F88C71002EE1D0D0E7D4F8CC
:101054008C110A43C4F88C21DAE705F5A674C5F8A7
:101064004841C0E74FF0FF30BDE8F0877811000831
:1010740000000000024B13B10248FFF707BF70479E
:1010840000000000BD0E00082DE9F04F314B83B085
:101094001B68009303F5A47381460E460193009BDD
:1010A400D3F8487127B3DDF804A07C68651E0ED41C
:1010B400013407EB84044FF00008E6B1D4F80031A2
:1010C400B34218D0013D6B1CA4F10404F5D1224BAA
:1010D40073B17B68002B36D13B68002B34D0384683
:1010E400CAF80030AFF30080DAF80070002FDCD1CA
:1010F40003B0BDE8F08F7B682268013BAB420CBFB4
:101104007D60C4F80080002ADCD0D7F88831D7F895
:1011140004B00121A940194208D190477B685B457E
:10112400BDD1DAF80030BB42CCD0B8E7D7F88C3167
:10113400194204D14846D4F880109047EEE7D4F819
:1011440080009047EAE73B68BA461F46002FACD1BF
:10115400CEE700BF7811000800000000FEE700BFE2
:101164000000000001020304010203040607080949
:0C11740043000000080000200000000004
:0811800038F1FF7F01000000BF
:101188000024F400FFFFFFFF00000000F40200202D
:101198005C030020C40300200000000000000000E1
:1011A8000000000000000000000000000000000037
:1011B800000000000000000000000000741100089A
:1011C8000000000000000000000000000000000017
:1011D8000000000000000000000000000000000007
:1011E80000000000000000000000000000000000F7
:1011F80000000000000000000000000000000000E7
:1012080000000000000000000000000000000000D6
:1012180000000000000000000000000000000000C6
:1012280000000000000000000000000000000000B6
:1012380001000000000000000E33CDAB34126DE653
:10124800ECDE05000B0000000000000000000000BC
:101258000000000000000000000000000000000086
:101268000000000000000000000000000000000076
:101278000000000000000000000000000000000066
:101288000000000000000000000000000000000056
:04000005080002B934
:00000001FF
