:020000040800F2
:10000000000005203D030008210300083303000819
:10001000210300082103000821030008000000005C
:1000200000000000000000000000000021030008A4
:1000300021030008000000002103000899070008C0
:100040002103000821030008210300082103000800
:1000500021030008210300082103000821030008F0
:1000600021030008210300082103000821030008E0
:1000700021030008210300082103000821030008D0
:1000800021030008210300082103000821030008C0
:1000900021030008210300082103000821030008B0
:1000A00021030008210300082103000821030008A0
:1000B0002103000821030008210300082103000890
:1000C0002103000821030008210300082103000880
:1000D0002103000821030008210300082103000870
:1000E0002103000821030008210300082103000860
:1000F0002103000821030008210300082103000850
:10010000210300082103000821030008210300083F
:10011000210300082103000821030008210300082F
:10012000210300082103000821030008210300081F
:10013000210300082103000821030008210300080F
:1001400021030008210300082103000821030008FF
:1001500021030008210300082103000821030008EF
:1001600021030008210300082103000821030008DF
:1001700021030008210300082103000800000000FB
:1001800021030008210300082103000821030008BF
:1001900021030008210300082103000821030008AF
:1001A000210300082103000821030008210300089F
:1001B000210300082103000821030008210300088F
:0801C0002103000821030008DF
:1001C8004C45000800000020380400204C45000879
:1001D8000000FFFF0000FFFF380400209006002009
:1001E8000000FFFF0000FFFFF8B500BFF8BC08BC27
:1001F8009E467047F8B500BFF8BC08BC9E467047DD
:0C02080085290008810200085902000846
:10021400044B05481B1A062B02D9044B03B118479B
:10022400704700BF3B040020380400200000000099
:1002340005490648091A891001EBD171491002D009
:10024400034B03B1184770473804002038040020DA
:100254000000000010B5064C237843B9FFF7D8FF1F
:10026400044B13B10448AFF300800123237010BD85
:1002740038040020000000004045000808B5084B81
:100284001BB108480849AFF300800848036813B954
:10029400BDE80840CCE7064B002BF9D09847F7E7B8
:1002A40000000000404500083C0400203804002001
:1002B40000000000134B002B08BF114B9D46A3F513
:1002C400803A00218B460F461148124A121A02F056
:1002D400B7FA0D4B002B00D098470C4B002B00D0E5
:1002E40098470020002104000D000B4802F054FA46
:1002F40002F07EFA2000290002F01EFA02F052FAFF
:1003040000000800000005200000000000000000BC
:100314003804002090060020C9270008684620F011
:1003240007018D4601B5BDE8014085467047684622
:1003340020F007018D46FEE71449154B5B1A9B100C
:1003440000229A4206D0134850F8220041F82200B5
:100354000132F6E7104A114CD2F8883043F47003A6
:10036400C2F88830D2F8343223F04043C2F8343231
:100374000B4BE41AA41000251E46A54204D056F8DF
:10038400253098470135F8E702F0D6B9000000207F
:10039400380400204C45000800ED00E0100200087D
:1003A4000802000810B592B0012306934FF480337D
:1003B40007934FF480030D9319230E934FF4C873DE
:1003C40002240F9306A808230C941094119300F0B0
:1003D400A1FD00B1FEE701F0BBF800B1FEE70F2379
:1003E40001934FF4A0530390049301A84FF4805356
:1003F40006210294059300F067FF00B1FEE712B0F6
:1004040010BD0000204B5A6942F48022F0B55A61B5
:10041400BFF34F8FBFF34F8FBFF36F8F0021C3F82C
:1004240050125A6942F400325A61BFF34F8FBFF33E
:100434006F8FC3F88410D3F8803003F00704C3F33C
:100444004E320434C3F3C903B3FA83F505F01F0530
:10045400BFF34F8F02FA04F7194601FA05F60A486A
:100464003E4311F1FF31C0F86062F6D212F1FF325F
:10047400F0D2BFF34F8F436943F480334361BFF33A
:100484004F8FBFF36F8FF0BD00ED00E030B5039DDB
:10049400046845EA034363644368E263B3F5403F99
:1004A40035D1806801F07F4501F47F0301F47F4278
:1004B400C9B220B943EA050040EA020302E0012878
:1004C40002D11343194320E0022807D1D80C920A21
:1004D400C00240EA421242EAD10116E003280AD1DE
:1004E400D80CD20A800240EA421242EAD101EB0F50
:1004F40041EAC33109E0180D120B000240EA02126E
:1005040042EA11112B0F41EA0331A16330BDE160CE
:1005140030BD704710B5044630B390F8393003F05D
:10052400FF021BB980F83820FFF7F3FF022384F899
:10053400393023681A6822F4403162680A431A6029
:100544005A6B22F00701A2680A435A631A6CE168E5
:1005540022F47F5222F03F020A431A64002001234E
:10056400E06384F8393010BD012010BD73B590F8F4
:100574003840012C05464FF0020414D0012680F8BF
:100584003860066880F83940346824F00104346027
:10059400069C0094FFF77AFF2A68136843F001036E
:1005A4001360002000E0204602B070BD03681B68A1
:1005B400DB0770B504460D4604D42368DB699E0648
:1005C4002CD537E000F0EAF8064623685A6892070B
:1005D400F3D459685A68880602F001020AD5202229
:1005E40001209A609860042384F83930002384F849
:1005F400383070BD002AF2D1691CE7D01DB9002340
:1006040084F838301BE000F0C9F8801BA842DCD91C
:10061400F5E7691C12D15A68D2061FD52368022255
:100624009A6010229A600020012384F8393084F8FB
:10063400380070BD00F0B2F806460DE03DB9E36B3A
:10064400032043F02003E36384F8390070BD00F015
:10065400A5F8801BA842F2D82368DCE75A68100783
:10066400D7D508229A60042384F83930012070BD5C
:1006740090F83830012BF0B54FF002035AD0012224
:1006840080F8393080F83820036809BB5A6A2A494F
:10069400066A446A1140C269A2F10905012D41EAC2
:1006A400064142EA01029ABF04F07F410A4342EA4A
:1006B40004625A629A69816922F47F5222F03F02ED
:1006C4000A43012D9A612FD824F07F449C622BE0C9
:1006D4000D0100EB050EDA69174CDEF820701440AA
:1006E400DEF81C2044EA0744A2F109062243DEF89E
:1006F4002440012E9ABF04F07F44224342EA04625C
:10070400DA611A690544012EAC6922F47F5222F0A1
:100714003F0298BF00EB011142EA04021A619EBF36
:100724004A6A22F07F421A62012380F8393000239A
:1007340080F838301846F0BDF0FFFC0010B50446D0
:1007440000F0ECFE4FF47A73B0FBF3F000F0CCFB56
:100754004FF0FF302146002200F08AFB002010BD3C
:10076400074A08B5136843F400731360032000F0CC
:100774006DFB0F20FFF7E2FF01F006F9002008BD32
:10078400003C0240024A136801331360704700BF03
:100794005404002008B5FFF7F5FF08BD014B1868A5
:1007A400704700BF5404002013B50190FFF7F6FF13
:1007B4000446FFF7F3FF019B001B9842F9D302B0F4
:1007C40010BD704738B50D460446C8B190F82C30BA
:1007D40003F0FF021BB980F82D20FFF7F2FF02237C
:1007E40084F82C30211D206800F0EAFE206862683D
:1007F400294600F028FF012384F82C30002038BD5E
:10080400012038BD38B5044690F82C00C0B2022847
:100814000D460DD0022384F82C30206800F05EFFD2
:100824002B68022B0CBF0523012384F82C300020F5
:1008340038BD10B5044690F82C00C0B2022809D087
:10084400022384F82C30206800F06EFF012384F822
:100854002C30002010BD000003682DE9F34113F093
:10086400010604460BD0454A916821F400019160C9
:10087400466B916831439160B6FA86F6760913F4B3
:10088400002510D03D49E56BD1F88C2022F44012AC
:100894002A43B5F5801FC1F88C2015BFB5FA85F53C
:1008A40000256D090126D90210D53448216CD0F8F1
:1008B4008C2022F440020A43B1F5800FC0F88C204A
:1008C40003D0002908BF012500E0012613F0807F32
:1008D40018BF01269A065ED5284B226B196F4A4031
:1008E40012F4407F57D01A6C42F080521A641B6C89
:1008F400234A03F080530193019B136843F48073EC
:100904001360FFF74BFF07461D4B1B68DB0506D43E
:10091400FFF744FFC01B6428F6D9032091E2174B6C
:10092400196F1A6F42F480321A671A6F21F44070FB
:1009340022F480328F071A6718670FD4226B02F4EF
:100944004073B3F5407F0D4B1CD1996822F0704081
:1009540020F4407021F4F811014316E0FFF71EFF64
:100964000746064B1B6F9807E8D4FFF717FF41F2C1
:100974008833C01B9842F4D9CFE700BF0038024047
:1009840000700040996821F4F8119960196FC2F35E
:100994000B020A431A672368D9060CD5784AD2F8A1
:1009A4008C1021F08071C2F88C10D2F88C00A16BED
:1009B4000143C2F88C105A0441BF7148D0F890200A
:1009C40022F44031626E44BF0A43C0F890201F04F1
:1009D40041BF6B48D0F8902022F44021A26E44BF5E
:1009E4000A43C0F89020D80341BF6548D0F890204E
:1009F40022F44011E26E44BF0A43C0F890209903E8
:100A040041BF5F48D0F8902022F44001226F44BFD8
:100A14000A43C0F890205A0641BF5948D0F89020A4
:100A240022F00301626C44BF0A43C0F890201F0601
:100A340041BF5348D0F8902022F00C01A26C44BF6F
:100A44000A43C0F89020D80541BF4D48D0F8902003
:100A540022F03001E26C44BF0A43C0F890209905AB
:100A640041BF4748D0F8902022F0C001226D44BF16
:100A74000A43C0F890205A0541BF4148D0F890205D
:100A840022F44071626D44BF0A43C0F890201F05F0
:100A940041BF3B48D0F8902022F44061A26D44BF8E
:100AA4000A43C0F89020D80441BF3548D0F89020BC
:100AB40022F44051E26D44BF0A43C0F890209904E7
:100AC40041BF2F48D0F8902022F44041226E44BF09
:100AD4000A43C0F890205A0241BF2948D0F8902018
:100AE40022F08061A26F44BF0A43C0F890209F02A5
:100AF4000CD52348E16FD0F8902022F000620A431D
:100B0400B1F1006FC0F8902008BF012513F0080F61
:100B140018BF0125580341BF1948D0F8902022F08E
:100B24004071626F44BF0A43C0F89020190241BF6C
:100B34001348D0F8902022F08051D4F8802044BF8C
:100B44000A43C0F89020012E06D0B3F1007F03D0F1
:100B5400012D40F00C81BEE0094A136823F0806344
:100B64001360FFF71BFE0646DFF814E0DEF80030E2
:100B74001A0107D5FFF712FE801B6428F4D9CCE6CE
:100B8400003802402068C30723D5636B0BBBDEF833
:100B940084204FF4403898FAA8F84FF07067B8FAF8
:100BA40088F8DEF8846097FAA7F76368A168B7FA53
:100BB40087F79B0143EA017102F4403323FA08F3F7
:100BC40041EA034206F07063FB4042EA0363CEF855
:100BD4008430070303D5E36BB3F5801F05D0C60249
:100BE40030D5236CB3F5800F2CD1974E4FF4403899
:100BF400D6F8842098FAA8F84FF0E04EB8FA88F8AE
:100C0400D6F884709EFAAEFE6368E168BEFA8EFE82
:100C14009B0143EA016102F4403323FA08F341EAF9
:100C2400034207F0E04323FA0EF342EA0373C6F8E3
:100C34008430D6F88C30626A23F01F03013A1343E0
:100C4400C6F88C30C10123D5DFF8FCE14FF07068A1
:100C5400DEF8842098FAA8F84FF0E047B8FA88F84C
:100C6400DEF8846097FAA7F763682169B7FA87F713
:100C74009B0143EA014102F0706323FA08F341EA5D
:100C8400036206F0E043FB4042EA0373CEF884308B
:100C940082010DD5636822699B0143EA0243E2683D
:100CA40043EA0263A26843EA0273674AC2F88430E3
:100CB400654A136843F080631360FFF76FFD0646CF
:100CC400614B1B681B013FF543AFFFF767FD801BBA
:100CD4006428F5D921E65C4A136823F08053136035
:100CE400FFF75CFD0546584B1B689F0041D4206804
:100CF400060344D4C50245D4810274D402072AD51C
:100D040051484FF07066D0F8885096FAA6F64FF422
:100D1400403EB6FA86F6D0F888709EFAAEFE636955
:100D2400E269BEFA8EFE9B0143EA027107F4403386
:100D340023FA0EF341EA034205F07063F34042EAFA
:100D44000363C0F88830D0F88C3023F44032E36A6F
:100D54001343C0F88C303C4A136843F0805313604B
:100D6400FFF71CFD0446384B1B689B0063D500202D
:100D740067E0FFF713FD401B6428B4D9CDE5E36BAE
:100D84001BB1B7E7236C002BB6D12F4D4FF4403E77
:100D9400D5F888209EFAAEFE4FF0E047BEFA8EFEEC
:100DA400D5F8886097FAA7F76369A169B7FA87F756
:100DB4009B0143EA016102F4403323FA0EF341EA52
:100DC400034206F0E043FB4042EA0373C5F888306F
:100DD400D5F88C30A26A23F4F853013A43EA02238B
:100DE400C5F88C3088E7E36FB3F1006F86D1164FF6
:100DF4004FF0706ED7F888209EFAAEFE4FF0E046B2
:100E0400BEFA8EFED7F8885096FAA6F66369216A70
:100E1400B6FA86F69B0143EA014102F0706323FAB5
:100E24000EF341EA036205F0E043F34042EA037340
:100E3400C7F8883062E7FFF7B1FC001B642892D939
:100E44006BE502B0BDE8F08100380240074AD36880
:100E540023F4E0631B041B0C43F0BF6343F400332F
:100E640000F0070043EA0023D360704700ED00E080
:100E7400154BDB68C3F3022370B5C3F107051C1DD2
:100E8400042D28BF0425062C8CBF033B002301241A
:100E940004FA03F6AC40013C013E21409940324043
:100EA400002842EA01024FEA0212AFBF00F160409B
:100EB40000F00F00054BD2B2A5BF00F56140D2B2DD
:100EC4001A5480F8002370BD00ED00E014ED00E03A
:100ED4004109012300F01F00024A834042F82130F7
:100EE400704700BF00E100E00138B0F1807F3FBFF0
:100EF400064B074A5860F0213FBF82F823100020B8
:100F04000722986034BF1A600120704710E000E0A7
:100F140000ED00E0036873B5DE07044603D42368DC
:100F24009D0773D4C5E0A54B9A6802F00C02042A0D
:100F340007D09A6802F00C02082A0BD15B685802A9
:100F440008D59E4B1B689903E9D56368002BE6D14D
:100F54000120B5E1994B1A6822F480321A601A68AC
:100F640022F480221A601A6822F480321A60FFF791
:100F740015FC0546914B1A68920308D5FFF70EFC41
:100F840041F28833401B9842F4D9032098E11A684F
:100F940022F480321A606268B2F5803F03D11A6885
:100FA40022F4802205E0B2F5A02F08D11A6842F499
:100FB40080221A601A6842F480321A6008E01968C4
:100FC40021F480211960196821F48031196072B10B
:100FD400FFF7E4FB0546794B1B689E039FD4FFF79C
:100FE400DDFB41F28833401B9842F4D9CDE7FFF78B
:100FF400D5FB0546714B1B68980390D5FFF7CEFBD4
:1010040041F28833401B9842F4D9BEE76B4B9A688F
:1010140012F00C0F07D09A6802F00C02082A16D1BD
:101024005B68590213D4654B1A68920702D5E268CB
:10103400012A8DD11968F82090FAA0F02269B0FA3B
:1010440080F021F0F80182400A431A6031E0E2683E
:101054005A4BEAB11A6842F001021A60FFF79EFB8C
:101064000546564803689E0705D4FFF797FB401BC7
:101074006428F6D989E70268F82191FAA1F1236975
:10108400B1FA81F122F0F8028B401343036010E0BF
:101094001A6822F001021A60FFF780FB0546474BED
:1010A4001B68990705D5FFF779FB401B6428F6D91F
:1010B4006BE723681A0703D423685B0765D524E02C
:1010C40062693E4B82B15A6F42F001025A67FFF7E0
:1010D40065FB0546394B5B6F9E07EDD4FFF75EFB5E
:1010E400401B6428F6D950E75A6F22F001025A6770
:1010F400FFF754FB0546314B5B6F9807DCD5FFF7D0
:101104004DFB401B6428F6D93FE72C4B1A6C42F088
:1011140080521A641B6C2A4A03F080530193019B8A
:10112400136843F480731360FFF738FB0546244BC0
:101134001B68D9052DD5214B1A6F22F001021A67BD
:101144001A6F22F004021A671A6F22F001021A675A
:10115400FFF724FB0546194B1A6F92071FD41A6F29
:1011640022F001021A67A268012A20D11A6F22F024
:1011740004021A671A6F42F001021A67FFF70EFBA6
:1011840005460E4B1B6F9E0726D5A16900293AD14F
:101194007BE0FFF703FB401B6428C8D9F5E6FFF7A3
:1011A400FDFA41F28833401B9842D4D9EDE6052A72
:1011B40008D11A6F42F00402DBE700BF0038024096
:1011C40000700040196F21F004011967196F21F0B4
:1011D4000101196742B1D1E7FFF7E0FA41F2883320
:1011E400401B9842CDD9D0E6FFF7D8FA0546354BD7
:1011F4001B6F9807C9D5FFF7D1FA41F28833401B1A
:101204009842F4D9C1E62F4B9A6802F00C02082ADE
:101214003FF49EAE1A68022922F080721A6042D10D
:10122400FFF7BCFA05462748036899012FD447F60F
:10123400C07696FAA6F64FF44035B6FA86F695FAD5
:10124400A5F54FF07061B5FA85F591FAA1F1E3695E
:10125400226AB1FA81F11A43636A42F00052B34040
:101264001A43A36A5B08013BAB401343E26A8A401A
:1012740013434360036843F080730360FFF78EFAFF
:101284000446104B1B689A0107D5002018E0FFF7AD
:1012940085FA401B6428C6D977E6FFF77FFA001B5E
:1012A4006428EED971E6FFF779FA0446054B1B680A
:1012B4009B01EAD5FFF772FA001B6428F6D964E6AD
:1012C40002B070BD00380240724A136803F00F0385
:1012D400994270B504460D466BD9136823F00F0389
:1012E4000B431360136803F00F038B4201D00120FA
:1012F40070BD01688B0741BF6748836823F0F00223
:10130400A36844BF13438360CE070BD421684D0701
:1013140040F1AF806048836823F4E052E3681343EC
:101324008360A6E062685C4B012A196802D111F45B
:10133400003F06E0022A02D111F0007F01E011F023
:10134400020FD4D0996821F003010A439A60FFF791
:1013540025FA6368012B05460ED14F4B9B6803F0B9
:101364000C03042BD2D0FFF719FA41F28833401B47
:101374009842F2D9032070BD022B14D1464B9B68CE
:1013840003F00C03082BC1D0FFF708FA41F28833AD
:10139400401B9842F2D9EDE7FFF700FA41F2883397
:1013A400401B9842E6D83C4B9B6813F00C0FF3D1DA
:1013B400ACE70168880741BF3748836823F0F0022F
:1013C400A36844BF13438360CA070BD4314A13682C
:1013D40023F00F032B431360136803F00F03AB4296
:1013E40085D193E762682C4B012A196802D111F464
:1013F400003F06E0022A02D111F0007F01E011F063
:10140400020F3FF474AF996821F003010A439A6014
:10141400FFF7C4F96368012B06460DD11E4B9B6888
:1014240003F00C03042BD1D0FFF7B8F941F2883351
:10143400801B9842F2D99DE7022B14D1164B9B686E
:1014440003F00C03082BC1D0FFF7A8F941F288334D
:10145400801B9842F2D98DE7FFF7A0F941F2883357
:10146400801B984286D80C4B9B6813F00C0FF3D169
:10147400ACE70B0741BF084A2169936823F4604332
:1014840044BF43EAC10393600F20FFF757F90020DC
:1014940070BD00BF003C02400038024010B51C4C37
:1014A400A36803F00C03042B2ED0082B2ED1626802
:1014B40002F03F03626847F6C07112F4800F62685D
:1014C40091FAA1F147F6C07000EA020008BF114A80
:1014D400B1FA81F120FA01F00EBFB2FBF3F20E492A
:1014E400B1FBF3F202FB00F3094A50684FF44032B7
:1014F40092FAA2F200F44030B2FA82F2D040013003
:101504004000B3FBF0F010BD034810BD014810BD0E
:10151400003802400024F40040787D0108B5FFF74C
:10152400BDFF084BF0229B6892FAA2F203F0F0038D
:10153400B2FA82F2D340044AD35CD840034B186019
:1015440008BD00BF00380240702A000800000020D7
:10155400194B1A6C13B542F080521A641B6C174A6B
:1015640003F080530193019B136843F480331360A9
:10157400FFF714F90446114B5A68D20307D4FFF756
:101584000DF9001BB0F57A7FF5D9032012E01A6833
:1015940042F400321A60FFF701F90446074B5B6816
:1015A4009B0306D4FFF7FAF8001BB0F57A7FF5D950
:1015B400EBE7002002B010BD00380240007000408C
:1015C4000B680A6A012B2DE9F0474B68D1F808E053
:1015D400CF680E694D698C69D1F81CA0D1F82490AC
:1015E400016813D04EEA030E4EEA07073E43354323
:1015F4002C4321F4FF4844EA0A010A4328F07F08F7
:1016040042EA090343EA0803036019E042EA0A02D2
:101614004EEA030E21F4FF4C42EA09094EEA070799
:1016240042682CF07F0C3E4349EA0C01354322F416
:10163400FF4C2CF07F0C2C4344EA0C040160446002
:101644000020BDE8F087012A2DE9F043CA680E683E
:101654004D688C68D1F810904B69D1F818C01AD035
:101664008768013E07F07047013D3743013C47EA74
:101674000516013A46EA042545EA023409F1FF3227
:10168400013B44EA024141EA03520CF1FF3342EACE
:10169400036383601FE0C16806F1FF3E01F07048F8
:1016A4006F1E4EEA0808661E48EA071E09F1FF3558
:1016B4004EEA062747EA05460CF1FF3546EA05657A
:1016C400013B8668C560013A1B0506F0704643EA93
:1016D4000232324382600020BDE8F08373B50023F8
:1016E4000193064691E809000343C86843EA402091
:1016F4008B68013B40EA43130193019B3361144619
:10170400FFF74CF80546B06910F020000AD0631CBE
:1017140001D1012006E024B1FFF740F8401BA042AC
:10172400F7D9032002B070BD436943EA4101416126
:10173400002070472DE9F04307684C68FD68D1F834
:10174400189007F1840ED2010EEB0203C5F30B458A
:10175400586800F470405860FE68086805EB040C93
:10176400C6F30B46451C354445EA0C455D60FD68EF
:10177400CE68C5F30A0505EB060C9D6805F47045B3
:101784009D60FE688F68C6F30A067D1C354445EAF1
:101794000C459D601D690F6925F007051D614FF01B
:1017A400000C1F619E6991F8315091F83280C3F8A2
:1017B40018C091F8306046EA096646EA052545EA0C
:1017C40008459D615D6925F0FF055D614D695D61B9
:1017D400DD6925F4E06525F00705DD610E6ACD6954
:1017E4003543DD619D6A4D6AC3F828C09D624FB1DF
:1017F400012F09D0BD1E022D08D9072F0CBF0225C9
:10180400012504E0042502E0032500E00225241A52
:101814006C43E01C8C6ADE6AC96A6C4340EA044487
:1018240006F0E026DE62DC62186B20F4FF6020F034
:101834000700186319635EF8023043F001034EF8A1
:101844000230BDE8F083704738B5044600286AD0FA
:1018540090F8A13003F0FF021BB980F8A020FFF735
:10186400F2FF022384F8A13023689A6922F07042BF
:101874009A61996962681143A2681143E26811434D
:1018840022690A439A619968284A0A409A609968C9
:10189400A2690A43616942EA01429A60D968234A0B
:1018A4000A40DA60D968226A0A43E16942EA0142DD
:1018B400DA6019691D4A0A401A611969A26A0A4361
:1018C400616A42EA01421A615969184A0A405A6136
:1018D4005969226B0A43E16A42EA01425A61D96AB0
:1018E40094F8360094F8352001F07F41D962D96A22
:1018F40094F83450294341EA022242EA0042DA626F
:101904005A6B42F004025A635A6B42F002025A6361
:101914009A6942F001029A6100200123C4F8A400EC
:1019240084F8A13038BD012038BD00BF00F800F0B4
:10193400F8B590F8A030012B06468C4696464FF039
:1019440002001DD0012786F8A07086F8A100342477
:101954000D4604FB02640FCD38340FC40FCD0FC401
:101964000FCD0FC42B682360304661467246FFF7E3
:10197400E1FE336800205F6286F8A17086F8A0005B
:10198400F8BD90F8A1007047704700002DE9F341BD
:101994000F6800220123934003EA07059D4240F0AB
:1019A400D2804C6824F0100CBCF1020F14D14FEA21
:1019B400D20E00EB8E0E02F00706DEF82030B600E1
:1019C4004FF00F0808FA06F823EA08080B69B34039
:1019D40048EA0303CEF820304FEA420E0323066898
:1019E40003FA0EF3DB4303EA060804F0030606FADF
:1019F4000EF60CF1FF3C48EA0606BCF1010F066046
:101A040011D8866803EA060CCE6806FA0EF64CEA8C
:101A140006068660466826EA050CC4F3001696405E
:101A24004CEA06064660C66803EA060C8B6803FAAD
:101A34000EF64CEA0603C360E30040F18480454B94
:101A44005E6C46F480465E645B6C22F0030606F12D
:101A5400804603F4804306F59C36019302F0030CA0
:101A6400019BD6F808E04FEA8C0C0F2303FA0CF321
:101A74002EEA030E384B984226D003F58063984231
:101A840024D003F58063984222D003F58063984202
:101A940020D003F5806398421ED003F580639842FA
:101AA4001CD003F5806398421AD003F580639842F2
:101AB40018D003F58063984216D003F580639842EA
:101AC4000CBF09230A2310E000230EE001230CE0DD
:101AD40002230AE0032308E0042306E0052304E0CC
:101AE400062302E0072300E0082303FA0CF343EA89
:101AF4000E03DFF868E0B360DEF80030EE4314F460
:101B0400803F14BF2B433340CEF80030DEF804305E
:101B1400DFF848E014F4003F14BF2B433340CEF801
:101B24000430DEF8083014F4801F14BF2B43334014
:101B3400CEF80830DEF80C30A40254BF06EA0305E0
:101B44001D43064BDD600132102A7FF423AF02B03F
:101B5400BDE8F0810038024000000240003C014032
:101B640002B909048161704730B500282FD001689B
:101B7400184A8468022380F835300B681A40436899
:101B84001C43C3681C4303691C4343691C438369A6
:101B94001C43C3691C43036A23431343426A042A54
:101BA40001BFC46A056B2C4323430B604B69042AB1
:101BB40023F0070343EA020304BF826A13434B6121
:101BC40001220023C36480F83520184630BD01206B
:101BD40030BD00BF3F8010F010B5002800F0B18187
:101BE40090F83530022B00F0AC8103681A6822F0BB
:101BF40001021A6000221A605A609A60DA601A615F
:101C040021225A61AF4A934217D9183293420AD01B
:101C1400AD498B4209D018318B4214BF4FF080710B
:101C24004FF4802103E0A94901E04FF48071A84CEE
:101C34009342E16050D120215BE0A64A934218D937
:101C440002F5567293420AD0A3498B4209D0183147
:101C54008B4214BF4FF080714FF4802103E09B4905
:101C640001E04FF480719A4C9342A16046D1202147
:101C740051E09A4A934217D9183293420AD09849AC
:101C84008B4209D018318B4214BF4FF080714FF44E
:101C9400802103E08D4901E04FF48071914C93421F
:101CA400E1603DD1202148E08F4A93420AD08F4918
:101CB4008B4209D018318B4214BF4FF080714FF41E
:101CC400802103E0814901E04FF48071854C934207
:101CD400A16037D1202142E07B498B4207D01831E3
:101CE4008B4214BF4FF000614FF4001101E04FF438
:101CF40000619342E16037D1082142E076498B428A
:101D040007D018318B4214BF4FF000614FF400111B
:101D140001E04FF400619342A16038D1082143E00F
:101D24006F498B4207D018318B4214BF4FF00061CA
:101D34004FF4001101E04FF400619342E16039D1A6
:101D4400082144E069498B4207D018318B4214BF03
:101D54004FF000614FF4001101E04FF40061934231
:101D6400A1603AD1082145E057498B4207D0183188
:101D74008B4214BF4FF000714FF4002101E04FF487
:101D84000071534C9342E1603AD1594944E05249BD
:101D94008B4207D018318B4214BF4FF000714FF4BF
:101DA400002101E04FF40071494C9342A16038D105
:101DB4004F4942E04A498B4207D018318B4214BF45
:101DC4004FF000714FF4002101E04FF40071454CD5
:101DD4009342E16036D1464940E044498B4207D002
:101DE40018318B4214BF4FF000714FF4002101E011
:101DF4004FF400713B4C9342A16034D13C493EE026
:101E040031498B4207D018318B4214BF4FF4800103
:101E14004FF4803100E040219342E16034D110233B
:101E24003FE02D498B4207D018318B4214BF4FF449
:101E340080014FF4803100E040219342A16032D10F
:101E440010233DE026498B4207D018318B4214BF42
:101E54004FF480014FF4803100E040219342E1606F
:101E640048D1102353E021498B4207D018318B42CB
:101E740014BF4FF480014FF4803100E040219342BD
:101E8400A16047D1102352E00F4A934207D0183281
:101E940093420CBF4FF480134FF0806301E04FF482
:101EA40080630B4A34E00C4A934207D018329342C1
:101EB4000CBF4FF480134FF0806301E04FF4806354
:101EC400034A35E0586402408864024004008000FC
:101ED40000640240B8600240286402405860024036
:101EE40088600240006002401060024028600240A6
:101EF40001008000144A934207D0183293420CBF69
:101F04004FF480134FF0806301E04FF480630F4A75
:101F1400D3600EE00E4A934207D0183293420CBFAE
:101F24004FF480134FF0806301E04FF48063074A5D
:101F340093600023C36480F8343080F83530184649
:101F440010BD012010BD00BF886002400060024047
:101F5400286002402DE9F3411F46194B099E14469F
:101F64004FF440325A60174A0D461168164A4FF032
:101F7400340E0EFB01228046926C0898D860022A27
:101F840018BF00229A600E48104A1A60FEF7C2FA7F
:101F940098B90B484146FEF76BFB70B900970848A7
:101FA40031462A462346FEF7E1FA30B904480A21AD
:101FB40002B0BDE8F041FEF7F9BA02B0BDE8F08125
:101FC400A0050020580400205C04002000B002405A
:101FD4004FF4F07070474FF48870704710B58EB0AE
:101FE4000023044601934FF4F07003934FF4887276
:101FF40005930A9107938DF834308DF835308DF8B8
:102004003630FF214FF4C063029004920691089386
:102014000B9007230C9201A9224609480993FFF764
:1020240087FC084B0C2060431A184FF0FF315160B5
:10203400054991604FF07F421A500EB010BD00BFA9
:102044005C0400200405002004000020014B1860FB
:10205400704700BF58040020084A1368126884338C
:10206400C001012919580CBF41F0010121F00101FF
:102074001950536A43F00103536270475C04002013
:10208400034B1A680C235343024AD050704700BFD5
:102094005804002004050020034B1A68034B0C214C
:1020A40001FB0233586070475804002004050020E7
:1020B40007B50A4B0A491A680190342303FB02133B
:1020C400002100911046D96D4FF4F0724FF48873DB
:1020D400FFF740FF03B05DF804FB00BF5804002085
:1020E4005C0400200B4B30B51C680B4B342505FBFE
:1020F4000433583353F8104C5B68022C4FF4F074DB
:1021040004FB010106BF92B223F8112043F82120F9
:1021140030BD00BF580400205C04002008B5094B02
:1021240009481A68936943F0010393614FF480519D
:102134000122FFF715FD054808210122BDE80840EA
:10214400FFF70EBD5C04002000200240002802407E
:102154004B4B4C485A6CF0B542F080625A645A6C4E
:10216400494E8FB002F080620092009A1A6B42F4DA
:1021740000021A631A6B02F400020192019A1A6BAC
:1021840042F010021A631A6B02F010020292029AD1
:102194001A6B42F040021A631A6B02F04002039277
:1021A400039A1A6B42F480721A631A6B02F48072F7
:1021B4000492049A1A6B42F400721A631A6B02F4C2
:1021C40000720592059A1A6B42F480621A631A6BC4
:1021D40002F480620692069A1A6B42F480721A63C1
:1021E4001A6B02F480720792079A1A6B42F48062A7
:1021F4001A631B6B03F480630893089B1023022467
:102204000E25099309A900230A940B930C940D95A8
:102214004FF48057FFF7BAFB092309A91B480A9416
:102224000D930997FFF7B2FB4FF46743304609A9B2
:1022340009930A940D95FFF7A9FB4EF6FF7309A9BC
:10224400134809930A940D95FFF7A0FB0A94114CC7
:102254000D95F723204609A909930125FFF796FB5D
:10226400304609A909970A95FFF790FB08232046F1
:1022740009A909930A95FFF789FB0FB0F0BD00BFC8
:1022840000380240001002400020024000180240C2
:102294000024024000280240054808230360C023AC
:1022A40043610523C3614FF48033C362FEF7D4BA9C
:1022B4001C05002038B5284D284C01232B60282309
:1022C40063610923A3613523E3610B23236240F295
:1022D4001B13A36240F21523636240F21D13002115
:1022E4002363204640F23523E362FFF7D5FF4FF422
:1022F400F07323664FF488736366002384F83430E4
:1023040084F8353084F836306360A360E360236179
:102314002046134B2360FFF734FB014610B92046D7
:10232400FFF716FF0D48FFF78FFA0E484FF4805160
:102334000122FFF715FC082101220B48FFF710FCCE
:1023440000F022F92A68094B0C2101FB0233084AE8
:102354009A60002038BD00BF580400205C040020AF
:1023640000680140002002400028024004050020CB
:10237400040000202DE9F743224C234D4FF00008C0
:1023840001261027214681464FF6FF722846CDF8D4
:10239400048084E8C000A660C4F80C80FEF732FA1A
:1023A4000220FEF701FA0223214628464FF6FF7267
:1023B40084E88800A660C4F80C80FEF723FA03239F
:1023C40084E888002146082328464FF6FF72A3605C
:1023D400C4F80C80FEF716FA4FF408730193042333
:1023E40084E888002146019BE3604FF6FF7228468B
:1023F400A660FEF707FA28464946FEF71AFA03B024
:10240400BDE8F0833006002040060020554B70B52F
:102414009A6B42F001029A639A6B8EB002F0010249
:102424000192019A1A6B42F480021A631A6B02F445
:1024340080020292029A1A6B42F004021A631A6B27
:1024440002F004020392039A1A6B42F008021A6320
:102454001A6B02F008020492049A1A6B42F01002FA
:102464001A631A6B02F010020592059A1A6B42F075
:1024740020021A631A6B02F020020692069A1A6B63
:1024840042F040021A631A6B02F040020792079A64
:102494001A6B42F080021A631B6B03F080030893EB
:1024A400089B02230EAC0A930C930C230D93082370
:1024B40044F8143D0122064621462B480B92FFF7AF
:1024C40065FA4CF20B73214628480993FFF75EFA2C
:1024D4004FF68373214626480993FFF757FA4FF6C0
:1024E4003F03214623480993FFF750FA48F2331378
:1024F400214621480993FFF749FA214628231F4C16
:102504001F480993FFF742FA8023A3604FF4007336
:10251400E3604FF4806323614FF4805363614FF4AD
:102524008043A3614FF40033002523620323A36295
:102534002563144B3463204623606560E56165625E
:10254400E562A663FFF748FB2046FFF70DFB052174
:102554002A463820FEF78CFC3820FEF7B9FC0EB072
:1025640070BD00BF0038024000080240000C024069
:10257400001002400014024000180240E005002050
:10258400001C02401064024038B51A4C1A4D1B4B13
:10259400236002232B602B616B61AB6110232361E9
:1025A400402363614FF480730721A3614FF40063F8
:1025B4000422236220464FF480536960E9600021BD
:1025C4006160A160E260E1616362A162AA60FFF7F9
:1025D4001DFF20462946FEF7F5F8094C10B10123EA
:1025E400237000E0207040F20360FFF7C3FE207800
:1025F40038BD00BF4006002074060020400100A042
:102604000C00002030B5044687B0C8B90D4B0E4805
:10261400196B41F4807119631B6B03F4807300938D
:10262400009B012302250293039301A9032301952F
:102634000493FFF7ABF9044829462246FFF790FAC2
:1026440007B030BD003802400020024010F1FF30D6
:1026540001D300BFFAE7704700231B210C4A5943FA
:102664000A4440F823200B4A01339342F5D1002356
:102674001B21074A59430A4450F82310914205D1BB
:10268400044A01339342F3D101207047002070477C
:10269400FECACDAB80841E0038B5FFF70BFE4FF0A9
:1026A40040410020FFF79AFCFFF792FC0446FFF735
:1026B40092FC6043810001F140410120FFF78EFC50
:1026C400FFF72CFD0020FFF7C1FC1848FFF7E4FCDE
:1026D4004FF0FF20FFF7D4FC6FF0FF00FFF7E8FC9A
:1026E4000120FFF7B3FC1248FFF7D6FC1148FFF7AF
:1026F400C7FC0E48FFF7DCFC0020FFF7A7FC012015
:102704000146FFF7A9FC00200146FFF7A5FC0025C0
:102714000024A0B2A9B2074A0134FFF7E3FC0A2C53
:10272400F7D101350A2DF3D138BD00BFFF0000FFFA
:102734000000FFFF00A5FFFF38B5FDF763FEFEF7BD
:102744000FF8FDF72FFEFFF71FFF0A20FEF72CF806
:102754000020FFF757FFFFF79FFF4FF04040FFF7C0
:102764007BFF0A4C0A4B012818BF1C46094D6B69B4
:1027740023F002036B612046FFF768FF6B6943F0A7
:1027840002036B612046FFF761FFEFE7A0252600F7
:10279400809698000020024001460020024603462D
:1027A40000F09CB808B50021044600F0F3F8044B8F
:1027B4001868C36B03B19847204600F055F900BF71
:1027C4003C45000838B5084B084DED1AAC1018BF4D
:1027D400ED1805D0013C55F8043D9847002CF9D17B
:1027E400BDE83840FDF708BD1002000814020008D7
:1027F40070B50F4E0F4D761BB61018BF002405D0D0
:10280400013455F8043B9847A642F9D10A4E0B4DC2
:10281400761BFDF7EBFCB61018BF002406D001347C
:1028240055F8043B9847A642F9D170BD70BD00BF6E
:102834000802000808020008100200080802000844
:1028440070B4840746D0541E002A41D0CDB203464A
:1028540002E0621EE4B3144603F8015B9A07F8D160
:10286400032C2ED9CDB245EA05250F2C45EA0545A2
:1028740019D903F110022646103E0F2E42F8105CBF
:1028840042F80C5C42F8085C42F8045C02F1100265
:10289400F2D8A4F1100222F00F0204F00F04103257
:1028A400032C13440DD91E462246043A032A46F843
:1028B400045BFAD8221F22F003020432134404F00A
:1028C40003042CB1C9B21C4403F8011BA342FBD17D
:1028D40070BC704714460346C2E700BF2DE9F047B9
:1028E400254C2568D5F848410646884692469946BF
:1028F400CCB360681F2818DC431C7EB104EB800550
:102904000121C5F888A0D4F8887101FA00F21743B0
:10291400022EC4F88871C5F808911ED00230636095
:1029240044F820800020BDE8F087144B03B34FF433
:10293400C870AFF300800446D0B1D5F84831002701
:1029440080E88800C5F8484138460123C4F88871F6
:10295400C4F88C71002EE1D0D0E7D4F88C110A436E
:10296400C4F88C21DAE705F5A674C5F84841C0E738
:102974004FF0FF30BDE8F0873C4500080000000040
:10298400024B13B10248FFF707BF70470000000075
:10299400C92700082DE9F04F314B83B01B68009321
:1029A40003F5A47381460E460193009BD3F8487146
:1029B40027B3DDF804A07C68651E0ED4013407EB50
:1029C40084044FF00008E6B1D4F80031B34218D0C3
:1029D400013D6B1CA4F10404F5D1224B73B17B6857
:1029E400002B36D13B68002B34D03846CAF800306F
:1029F400AFF30080DAF80070002FDCD103B0BDE83B
:102A0400F08F7B682268013BAB420CBF7D60C4F849
:102A14000080002ADCD0D7F88831D7F804B001212F
:102A2400A940194208D190477B685B45BDD1DAF8CB
:102A34000030BB42CCD0B8E7D7F88C31194204D16E
:102A44004846D4F880109047EEE7D4F880009047C9
:102A5400EAE73B68BA461F46002FACD1CEE700BF79
:102A64003C45000800000000FEE700BF0000000035
:102A74000102030401020304060708090000000020
:102A84000000000000000000000000000000000042
:102A94000000000000000000000000000000000032
:102AA4000000000000000000000000000000000022
:102AB4000000000000000000000000000000000012
:102AC40000000000000000000000038000038000FC
:102AD4000380000380000380000380000380000360
:102AE40080000380000100000100000000000000DD
:102AF40000038000038000000000000000000000CC
:102B040000000000000000000000000000000000C1
:102B140000000000000E70000E70000E7000042013
:102B24000004200004200004200000000000000035
:102B34000000000000000000000000000000000091
:102B44000000000000000000000000000000000081
:102B540000000000000000000000066000066000A5
:102B64000660000660000660003FF8003FF80006BB
:102B740060000CC0003FF8003FF8000CC0000CC01F
:102B8400000CC0000CC0000CC000000000000000DD
:102B94000000000000000000000000000000000130
:102BA400800001800007B0000FF00018700018705A
:102BB400001C00000F800007E00000F00018300047
:102BC4001C30001C70001FE0001BC00001800001CD
:102BD400800001800001800000000000000000006F
:102BE400000000000000000000000780000FC0008B
:102BF4001CE0001860001860001CE0000FF80007DB
:102C0400E0001FF000073800061800061800073817
:102C14000003F00001E000000000000000000000DC
:102C240000000000000000000000000000000000A0
:102C3400000000000000000003F00007F0000C603A
:102C4400000C00000C00000600000700000F9C00B0
:102C54001DFC0018F0001870000FFC0007DC0000D9
:102C64000000000000000000000000000000000060
:102C740000000000000000000000000000038000CD
:102C84000380000380000100000100000100000136
:102C94000000000000000000000000000000000030
:102CA4000000000000000000000000000000000020
:102CB4000000000000000000000000000000000010
:102CC400000000180000380000700000F00000E070
:102CD4000000E00001C00001C00001C00001C0000C
:102CE40001C00001C00000E00000E000007000002E
:102CF4007000003800001800000000000000000010
:102D0400000000000000000000001800001C00008B
:102D14000E00000E000007000007000003800003FF
:102D2400800003800003800003800003800007000C
:102D3400000700000F00000E00001C000018000037
:102D4400000000000000000000000000000000007F
:102D540000000180000180000180001DB8001FF800
:102D64000007E00003C00003C00006600006600026
:102D7400000000000000000000000000000000004F
:102D8400000000000000000000000000000000003F
:102D9400000000000000000000000000000000002F
:102DA4000180000180000180000180000180003F5B
:102DB400FC003FFC000180000180000180000180D4
:102DC400000180000000000000000000000000007E
:102DD40000000000000000000000000000000000EF
:102DE40000000000000000000000000000000000DF
:102DF40000000000000000000000000000000000CF
:102E040000000000000000E00000C00001C000015C
:102E140080000180000300000300000000000000A7
:102E2400000000000000000000000000000000009E
:102E34000000000000000000000000000000001F6F
:102E4400F8001FF80000000000000000000000006F
:102E5400000000000000000000000000000000006E
:102E6400000000000000000000000000000000005E
:102E7400000000000000000000000000000000004E
:102E8400000000000000000000000000000000003E
:102E940000000000000003C00003C00003C00000E5
:102EA400000000000000000000000000000000001E
:102EB4000000000000180000180000380000300076
:102EC40000700000600000600000C00000C000014D
:102ED40080000180000300000300000600000600DB
:102EE400000E00000C00001C000018000018000078
:102EF40000000000000000000000000000000000CE
:102F0400000003C00007E0000C30000C300018186B
:102F140000181800181800181800181800181800BD
:102F24001818000C30000C300007E00003C000004B
:102F3400000000000000000000000000000000008D
:102F44000000000000000000000000800007800076
:102F54001F80001D800001800001800001800001AD
:102F64008000018000018000018000018000018058
:102F7400001FF8001FF8000000000000000000001F
:102F8400000000000000000000000000000000003D
:102F9400000007C0001FF00038300030180030185F
:102FA4000000180000300000600001C00003800031
:102FB4000600000C00001800003FF8003FF8000075
:102FC40000000000000000000000000000000000FD
:102FD4000000000000000000000003C0000FE0003B
:102FE4000C700000300000300000600003C00003DB
:102FF400E0000070000018000018000018001838E5
:10300400001FF0000FC000000000000000000000DE
:1030140000000000000000000000000000000000AC
:10302400000000E00001E00001E000036000066031
:10303400000660000C60000C600018600030600046
:103044003FF8003FF80000600003F80003F80000B8
:10305400000000000000000000000000000000006C
:10306400000000000000000000001FF0001FF0003E
:103074001800001800001800001BC0001FF0001CFE
:10308400300000180000180000180000180030304C
:10309400003FF0000FC0000000000000000000002E
:1030A400000000000000000000000000000000001C
:1030B400000000F80003F8000700000E00000C00F8
:1030C400001800001BC0001FF0001C30001818007E
:1030D4001818001818000C38000FF00003E0000066
:1030E40000000000000000000000000000000000DC
:1030F400000000000000000000001FF8001FF8009E
:10310400181800183800003000003000007000006B
:10311400600000600000E00000C00000C00001C0CA
:103124000001800001800000000000000000000099
:10313400000000000000000000000000000000008B
:10314400000007E0000FF0001C38001818001818E1
:10315400000C300007E00007E0000C3000181800F5
:103164001818001818001C38000FF00007E00000C1
:10317400000000000000000000000000000000004B
:103184000000000000000000000007C0000FF00075
:103194001C30001818001818001818000C38000FFC
:1031A400F80003D80000180000300000700000E0B0
:1031B400001FC0001F00000000000000000000000D
:1031C40000000000000000000000000000000000FB
:1031D400000000000000000000000000000003C028
:1031E4000003C00003C00000000000000000000055
:1031F40000000000000003C00003C00003C0000082
:1032040000000000000000000000000000000000BA
:1032140000000000000000000000000000000000AA
:1032240000000000000000F00000F00000F00000CA
:10323400000000000000000000000000E00001C0E9
:103244000001800001800003000002000000000073
:10325400000000000000000000000000000000006A
:103264000000000000000000001C00003C0000F012
:103274000003C0000F00003C0000F000003C000010
:103284000F000003C00000F000003C00001C000020
:10329400000000000000000000000000000000002A
:1032A400000000000000000000000000000000001A
:1032B4000000000000000000007FFC007FFC000014
:1032C40000000000007FFC007FFC00000000000004
:1032D40000000000000000000000000000000000EA
:1032E40000000000000000000000000000000000DA
:1032F40000000000000000007000007800001E00C4
:103304000007800001E000007800001E0000780043
:1033140001E0000780001E0000780000700000003B
:103324000000000000000000000000000000000099
:103334000000000000000000000000000007C000C2
:103344000FE0001870001830001830000070000002
:10335400E00003C000038000030000000000000040
:10336400000700000700000000000000000000004B
:103374000000000000000000000000000000000049
:10338400000003E00007F0000E38000C1800187865
:103394000018F80019D80019980019980019980015
:1033A40018F8001878001800000C00000E18000728
:1033B400F80003E00000000000000000000000002E
:1033C400000000000000000000000000001F80005A
:1033D4001FC00001C0000360000360000630000647
:1033E40030000C30000FF8001FF800180C00300CEF
:1033F40000FC7F00FC7F00000000000000000000D3
:1034040000000000000000000000000000000000B8
:1034140000000000007FE0007FF00018380018185A
:10342400001818001838001FF0001FF800181C00BE
:10343400180C00180C00180C007FF8007FF0000036
:103444000000000000000000000000000000000078
:103454000000000000000000000000000003EC0079
:103464000FFC001C1C00180C00300C003000003055
:103474000000300000300000300000180C001C1C5C
:10348400000FF80003F0000000000000000000003E
:103494000000000000000000000000000000000028
:1034A40000000000007FC0007FF0001838001818EA
:1034B40000180C00180C00180C00180C00180C0054
:1034C400180C001818001838007FF0007FE0000086
:1034D40000000000000000000000000000000000E8
:1034E400000000000000000000000000007FF80061
:1034F4007FF8001818001818001998001980001F88
:1035040080001F80001980001998001818001818EE
:10351400007FF8007FF800000000000000000000B9
:103524000000000000000000000000000000000097
:1035340000000000003FFC003FFC000C0C000C0CE1
:10354400000CCC000CC0000FC0000FC0000CC00069
:103554000CC0000C00000C00003FC0003FC0000085
:103564000000000000000000000000000000000057
:103574000000000000000000000000000003EC0058
:103584000FFC001C1C00180C00300C003000003034
:10359400000030FE0030FE00300C00380C001C1C13
:1035A400000FFC0003F00000000000000000000019
:1035B4000000000000000000000000000000000007
:1035C40000000000007E7E007E7E0018180018189F
:1035D400001818001818001FF8001FF80018180029
:1035E4001818001818001818007E7E007E7E00004F
:1035F40000000000000000000000000000000000C7
:10360400000000000000000000000000001FF8009F
:103614001FF800018000018000018000018000018A
:103624008000018000018000018000018000018091
:10363400001FF8001FF80000000000000000000058
:103644000000000000000000000000000000000076
:10365400000000000007FE0007FE000030000030FC
:103664000000300000300000300030300030300006
:103674003030003030003060003FE0000F80000048
:103684000000000000000000000000000000000036
:10369400000000000000000000000000007F3E0069
:1036A4007F3E0018300018600018C0001980001B0D
:1036B40080001FC0001CE00018700018300018388B
:1036C400007F1F007F1F00000000000000000000BA
:1036D40000000000000000000000000000000000E6
:1036E40000000000007F80007F80000C00000C00C0
:1036F400000C00000C00000C00000C00000C0C007E
:103704000C0C000C0C000C0C007FFC007FFC000077
:1037140000000000000000000000000000000000A5
:1037240000000000000000000000000000F00F0096
:10373400F81F00381C003C3C003C3C00366C003652
:103744006C0033CC0033CC00318C00300C00300CD6
:1037540000FE7F00FE7F000000000000000000006B
:103764000000000000000000000000000000000055
:10377400000000000078FE0078FE001C18001E18EF
:10378400001F18001B18001B980019D80018D80037
:1037940018F8001878001838007F18007F18000007
:1037A4000000000000000000000000000000000015
:1037B4000000000000000000000000000003C00042
:1037C4000FF0001C3800181800381C00300C0030B2
:1037D4000C00300C00300C00381C001818001C3889
:1037E400000FF00003C00000000000000000000013
:1037F40000000000000000000000000000000000C5
:1038040000000000003FF0003FF8000C1C000C0C0E
:10381400000C0C000C0C000C18000FF8000FE0005A
:103824000C00000C00000C00003FC0003FC0000072
:103834000000000000000000000000000000000084
:103844000000000000000000000000000003C000B1
:103854000FF0001C3800181800381C00300C003021
:103864000C00300C00300C00381C001818001C38F8
:10387400000FF00007C00007CC000FFC000C38005C
:103884000000000000000000000000000000000034
:1038940000000000007FE0007FF0001838001818D6
:1038A400001818001838001FF0001FC00018E000AE
:1038B4001870001830001838007F1E007F0E0000BA
:1038C40000000000000000000000000000000000F4
:1038D4000000000000000000000000000007D80005
:1038E4000FF8001C38001818001818001E00000FEC
:1038F400C00003F0000078001818001818001C38E5
:10390400001FF0001BE000000000000000000000A9
:1039140000000000000000000000000000000000A3
:1039240000000000003FFC003FFC00318C00318CA3
:1039340000318C00318C0001800001800001800086
:103944000180000180000180000FF0000FF00000F2
:103954000000000000000000000000000000000063
:10396400000000000000000000000000007E7E0057
:103974007E7E00181800181800181800181800186F
:1039840018001818001818001818001818000C301F
:10399400000FF00003C00000000000000000000061
:1039A4000000000000000000000000000000000013
:1039B40000000000007F7F007F7F00180C000C18BF
:1039C400000C18000C1800063000063000036000DC
:1039D40003600003600001C00001C000008000001B
:1039E40000000000000000000000000000000000D3
:1039F40000000000000000000000000000FE3F8006
:103A0400FE3F8030060030060030860019CC0019D5
:103A1400CC001B6C001B6C001E7C000E38000E38A2
:103A2400000C18000C18000000000000000000004A
:103A34000000000000000000000000000000000082
:103A440000000000007E7E007E7E001818000C300E
:103A54000006600003C00001800001800003C00074
:103A64000660000C30001818007E7E007E7E000088
:103A74000000000000000000000000000000000042
:103A8400000000000000000000000000007C7E0038
:103A94007C7E001818000C300006600006600003ED
:103AA400C0000180000180000180000180000180CD
:103AB400000FF0000FF00000000000000000000004
:103AC40000000000000000000000000000000000F2
:103AD40000000000001FF8001FF80018180018303C
:103AE4000018600018C000018000030000061800E0
:103AF4000C18001818003018003FF8003FF80000B8
:103B040000000000000000000000000000000000B1
:103B14000000000000000000000001F00001F000BF
:103B2400018000018000018000018000018000010B
:103B3400800001800001800001800001800001807C
:103B44000001800001800001800001F00001F0000C
:103B54000000000000000000000000001800001831
:103B640000001C00000C00000E000006000006000F
:103B74000003000003000001800001800000C00079
:103B840000C0000060000060000070000030000011
:103B940038000018000018000000000000000000B9
:103BA400000000000000000000000F80000F8000F3
:103BB400018000018000018000018000018000017B
:103BC40080000180000180000180000180000180EC
:103BD400000180000180000180000F80000F800040
:103BE40000000000000000000000000000000000D1
:103BF400800001C00003E0000770000630000C18CC
:103C040000180C0010040000000000000000000078
:103C140000000000000000000000000000000000A0
:103C24000000000000000000000000000000000090
:103C34000000000000000000000000000000000080
:103C44000000000000000000000000000000000070
:103C54000000000000000000000000000000000060
:103C64000000000000000000000000000000000050
:103C7400000000000000FFFF00FFFF000000000341
:103C8400000003800000E00000600000000000006D
:103C94000000000000000000000000000000000020
:103CA4000000000000000000000000000000000010
:103CB4000000000000000000000000000000000000
:103CC40000000000000000000000000000000000F0
:103CD4000000000000000FC0001FE00000300000E2
:103CE400300007F0001FF000383000303000307032
:103CF400001FFC000FBC00000000000000000000DA
:103D040000000000000000000000000000000000AF
:103D140000007800007800001800001800001BE084
:103D2400001FF8001C1800180C00180C00180C00D8
:103D3400180C00180C001C18007FF8007BE0000031
:103D4400000000000000000000000000000000006F
:103D5400000000000000000000000000000000005F
:103D640000000000000003EC000FFC001C1C0038E5
:103D74000C00300C00300000300000380C001C1C1B
:103D8400000FF80003F00000000000000000000035
:103D9400000000000000000000000000000000001F
:103DA400000000780000780000180000180007D810
:103DB400001FF800183800301800301800301800C0
:103DC4003018003018001838001FFE0007DE00000D
:103DD40000000000000000000000000000000000DF
:103DE40000000000000000000000000000000000CF
:103DF40000000000000007E0001FF8001818003061
:103E04000C003FFC003FFC00300000300000180CA8
:103E1400001FFC0007F0000000000000000000008C
:103E2400000000000000000000000000000000008E
:103E3400000001FC0003FC000600000600003FF83F
:103E4400003FF8000600000600000600000600001F
:103E54000600000600000600003FF0003FF00000EE
:103E6400000000000000000000000000000000004E
:103E7400000000000000000000000000000000003E
:103E840000000000000007DE001FFE0018380030AC
:103E94001800301800301800301800301800183896
:103EA400001FF80007D800001800001800003800B0
:103EB4000FF0000FC0000000000000000000000030
:103EC40000007800007800001800001800001BE0D3
:103ED400001FF0001C3800181800181800181800EB
:103EE4001818001818001818007E7E007E7E000046
:103EF40000000000000000000000000000000000BE
:103F040000000000000000000000018000018000AB
:103F14000000000000001F80001F800001800001DD
:103F24008000018000018000018000018000018088
:103F3400003FFC003FFC0000000000000000000007
:103F4400000000000000000000000000000000006D
:103F5400000000C00000C0000000000000001FF0CE
:103F6400001FF0000030000030000030000030007E
:103F7400003000003000003000003000003000004D
:103F840030000030000070001FE0001F80000000BF
:103F9400000000000000000000003C00003C0000A5
:103FA4000C00000C00000CF8000CF8000CC0000D14
:103FB40080000F80000F00000F80000DC0000CE097
:103FC400003C7C003C7C000000000000000000007D
:103FD40000000000000000000000000000000000DD
:103FE40000001F80001F800001800001800001800C
:103FF4000001800001800001800001800001800038
:104004000180000180000180003FFC003FFC0000B3
:10401400000000000000000000000000000000009C
:10402400000000000000000000000000000000008C
:10403400000000000000F77800FFFC0039CC0031DC
:104044008C00318C00318C00318C00318C00318C2F
:1040540000FDEF00FDEF0000000000000000000084
:10406400000000000000000000000000000000004C
:1040740000000000000000000000000000007BE0E1
:10408400007FF0001C3800181800181800181800D9
:104094001818001818001818007E7E007E7E000094
:1040A400000000000000000000000000000000000C
:1040B40000000000000000000000000000000000FC
:1040C40000000000000003C0000FF0001C3800389E
:1040D4001C00300C00300C00300C00381C001C3864
:1040E400000FF00003C0000000000000000000000A
:1040F40000000000000000000000000000000000BC
:1041040000000000000000000000000000007BE050
:10411400007FF8001C1800180C00180C00180C0084
:10412400180C00180C001C18001FF8001BE00018E5
:1041340000001800001800007F00007F000000004D
:10414400000000000000000000000000000000006B
:1041540000000000000007DE001FFE0018380030D9
:1041640018003018003018003018003018001838C3
:10417400001FF80007D800001800001800001800FD
:1041840000FE0000FE00000000000000000000002F
:1041940000000000000000000000000000003E7865
:1041A400003EFC0007CC00070000060000060000EB
:1041B4000600000600000600003FF0003FF000008B
:1041C40000000000000000000000000000000000EB
:1041D40000000000000000000000000000000000DB
:1041E40000000000000007F8000FF800181800187D
:1041F40018001F80000FF00000F80018180018388D
:10420400001FF0001FE0000000000000000000009C
:10421400000000000000000000000000000000009A
:1042240000000C00000C00000C00000C00003FF02B
:10423400003FF0000C00000C00000C00000C00001B
:104244000C00000C00000C1C0007FC0003F0000034
:10425400000000000000000000000000000000005A
:10426400000000000000000000000000000000004A
:104274000000000000007878007878001818001812
:104284001800181800181800181800181800183802
:10429400000FFE0007DE0000000000000000000028
:1042A400000000000000000000000000000000000A
:1042B40000000000000000000000000000007C3E40
:1042C400007C3E001818001818000C30000C300058
:1042D40006600006600007E00003C00003C00000A1
:1042E40000000000000000000000000000000000CA
:1042F40000000000000000000000000000000000BA
:10430400000000000000783C00783C0031180033C5
:1043140098003398001AB0001EF0001EF0001C60D4
:10432400000C60000C6000000000000000000000B1
:104334000000000000000000000000000000000079
:1043440000000000000000000000000000003E7CAF
:10435400003E7C000C300006600003C000018000B9
:1043640003C0000660000C30003E7C003E7C000070
:104374000000000000000000000000000000000039
:104384000000000000000000000000000000000029
:104394000000000000007E1F007E1F00180C000CAF
:1043A40018000C180006300006300003600003E01B
:1043B4000001C00000C00001800001800003000073
:1043C4003FC0003FC00000000000000000000000EB
:1043D40000000000000000000000000000001FF8C2
:1043E400001FF80018300018600000C000018000B1
:1043F4000300000618000C18001FF8001FF8000046
:1044040000000000000000000000000000000000A8
:104414000000000000000000000000E00001E000D7
:104424000180000180000180000180000180000102
:1044340080000380000700000380000180000180E9
:104444000001800001800001800001E00000E00024
:104454000000000000000000000000000000000058
:1044640000000180000180000180000180000180C3
:1044740000018000018000018000018000018000B3
:1044840001800001800001800001800001800001A2
:104494008000018000018000000000000000000096
:1044A400000000000000000000000700000780007A
:1044B4000180000180000180000180000180000172
:1044C400800001C00000E00001C000018000018004
:1044D40000018000018000018000078000070000C7
:1044E40000000000000000000000000000000000C8
:1044F40000000000000000000000000000000000B8
:10450400000000000E00001F18003BB80031F0004E
:1045140000E00000000000000000000000000000B7
:104524000000000000000000000000000000000087
:104534000000000043000000100000200000000004
:0845440074BDFF7F01000000BF
:10454C000024F400802A00081100180001FFFFFF6E
:10455C0000000000FC02002064030020CC030020BB
:10456C00000000000000000000000000000000003F
:10457C00000000000000000000000000000000002F
:10458C00000000003845000800000000000000009A
:10459C00000000000000000000000000000000000F
:1045AC0000000000000000000000000000000000FF
:1045BC0000000000000000000000000000000000EF
:1045CC0000000000000000000000000000000000DF
:1045DC0000000000000000000000000000000000CF
:1045EC0000000000000000000000000000000000BF
:1045FC0000000000000000000100000000000000AE
:10460C000E33CDAB34126DE6ECDE05000B00000072
:10461C00000000000000000000000000000000008E
:10462C00000000000000000000000000000000007E
:10463C00000000000000000000000000000000006E
:10464C00000000000000000000000000000000005E
:04000005080002B934
:00000001FF
